:100000000C94A7070C94C71B0C94A01B0C94CF074F
:100010000C94CF070C94CF070C94CF070C94CF0708
:100020000C94CF070C94CF070C94CF070C94461C6C
:100030000C94CF070C94CF070C94CF070C94CF07E8
:100040000C94561B0C94CF070C94141C0C94EE1BB0
:100050000C94CF070C94CF070C94CF070C94CF07C8
:100060000C94371A0C94CF074C6967687473204955
:100070006E697469616C697A6174696F6E20636F0F
:100080006D706C65746564004C69676874732049B1
:100090006E697469616C697A6174696F6E004F4C46
:1000A000454420496E697469616C697A6174696F4D
:1000B0006E20636F6D706C65746564004F4C4544D1
:1000C00020496E697469616C697A6174696F6E0048
:1000D000536166656475696E6F20696E69746961E4
:1000E0006C697A6174696F6E20636F6D706C657492
:1000F000656400427574746F6E20496E697469613D
:100100006C697A6174696F6E20636F6D706C657471
:10011000656400427574746F6E20496E697469611C
:100120006C697A6174696F6E0053616665647569A4
:100130006E6F20696E697469616C697A6174696F48
:100140006E0050757A7A6C6520696E697469616CAD
:10015000697A6174696F6E20636F6D706C65746528
:10016000640050757A7A6C6520696E697469616C97
:10017000697A6174696F6E0000FF00E0FF07F000AC
:100180000F38001C1800181800181800181800184C
:10019000180018FCFF3FFFFFFFFFFFFFFFEFFFFF0F
:1001A00083FFFF81FFFF81FFFFC3FFFFC7FFFFC783
:1001B000FFFFE7FFFFFFFFFFFFFFFFFFFFFCFF3F2A
:1001C00000000000240027002A0000000000250095
:1001D00028002B00000000080002010000030407B3
:1001E0000000000000000000010204081020408010
:1001F0000102040810200102040810200000000081
:100200002300260029000404040404040404020258
:10021000020202020303030303035F000303050555
:100220000405061614FDFC0EFC0EFE026D05BA0850
:100230000B200600602C01210FC4253423391C2C0F
:100240002265C92122012209A5644621E145002336
:100250001B8B616429114BC412D961729849C41275
:10026000D961729849C412B14408242149A65B1986
:1002700087846B924829520A5582B643E810334668
:100280004AA14AA8129195E39020002529EEE17B2E
:1002900035938A26415948280B456511A9287D24A4
:1002A00087C6C6225134240B8A64C1982CA6148CAC
:1002B0004EE330002624D0258C4B078AE420991C7D
:1002C0002493832672581D3AABD984135270561D5D
:1002D00052A7B4DA21741B012707A2642E711828D3
:1002E0001105A23327128D442399DE66B29950007E
:1002F000291005A2332194CD64337D1A89466A0002
:100300002A10E7E045354A9A44442349649434026C
:100310002B154A215C2987C8217288F07030CA21C8
:1003200072881C22042C0BE4602B23394446D9002C
:100330002D0765E034F1102E0A84202C2339442443
:10034000002F0FC6213CA918540C2A0615838A00D9
:100350003013C9255C379C8C6492997F9BC8449369
:10036000E10C00310BC7295C271C15F79F0E3215D5
:10037000C9255C47134D66B6896C3C1D4FA762D5F5
:10038000C3A1003317C9255C47134D66B6896C2C91
:100390009C83E41399DB44342B013416C9255C1F7C
:1003A000174F1923B3D028368A4D829383743C2D7E
:1003B0003518C9255C73889CE29038240EB1C5E6D7
:1003C000E389CC6D229A95003616C9255C575A915F
:1003D000D924E3C988B2E66D229B8C84330037119F
:1003E000C9255CF1509E8AE562B97875BC11003868
:1003F00015C9255C379449A4D4E2456434858E55EB
:100400006A4D46033917C9255C37144D669299B772
:10041000C98434194F6436C96854033A0D2425340D
:10042000233944C4924344023B0F84653323394447
:10043000C4924364940D003C114A215C0F1113399E
:10044000D32174081D4287083D0BC9A45CF14047C5
:100450003C1C083E124A215C2187D02174081D42B1
:1004600026729643003F12C921545712DD6C13D9EE
:1004700058772431952C044027CF21847B1ECBE470
:10048000A090AC241129916422924C449189246A51
:100490002289D244249A10E5A0D8587C0802412031
:1004A000CE1D741F07CB8173201D1499834272489F
:1004B0006C1E1B47A7076178181FC927D402421E6C
:1004C000CC21747198CD48C3D170341CCD6687E0BF
:1004D000D274329D4C27D3C970729001431DCC2138
:1004E00074590AB18C25E33A840EA183E6A03968D9
:1004F0000E89CC23E3184D5A03441FCE21847198F2
:100500000E69E3D178349FCC27F3C97C329FCC2786
:10051000E3D17834241D8600451FCB216C71A00CDB
:100520002753C92C1499852223E171249C0567A1C6
:10053000C83832950C0F07461ECB216C71A00C27D2
:1005400053C92C1499852223E171249C0567C13974
:10055000640E995B014721CD217C598A914863D172
:1005600058328744E690C81C36874D0FE1D1743469
:100570009D91A8A50800481ECE218451AC8C47E36C
:10058000D178341E8D4787D278341E8D47E3D178D9
:10059000349E140B490AC5254C5119ED7F294A1385
:1005A000CA1D645B9EEF936C429A9026C291684884
:1005B000044B1ECE2184512B4D8543E94C3C924F78
:1005C000E4103BE43E218FA833E29036A5D40C4CD6
:1005D00010CA2164519EEFAF91696428991D0C4D9A
:1005E0002DD1219C612E9169555A64189985669187
:1005F000596816998546A1596C129AC526A1598C3D
:10060000360BCE66C1D968189CD462054E21CE2126
:100610008441AD5067D42035584CA10543A4608C6B
:10062000120C16A3C428313C1B8BCA21004F1DCECF
:1006300021846926D1C6A3F1640EB143EC103BC4FA
:100640000EB1439647E319896C04501ECC21747196
:1006500010CE4843CA9032A40C2933D2213807CD9A
:100660004173D01C3487D40151284E22836926D18E
:10067000C6A3F1640EB143EC103BC40EB1D026A367
:100680009168269951CA76A81C3A8983EAB011006C
:10069000521FCD218471A00D49D3D174341D0D6733
:1006A00087E86C381BCE68C3D970369C1827005376
:1006B00016CA21644709AD0C25D308D97A355BCB1E
:1006C000D5D3245402541CCB216C7130ADCD64338E
:1006D000D92C3887CC2173C81C3287CC2173C8BC75
:1006E00006551ECE218451AC8C47F3D83C368FCDB5
:1006F00063F3D83C368FCD63F3D83C38941B015656
:1007000022CF1D7461AC9067F320353C0D4FE3B3ED
:10071000386416074DE2B0491C3887CEC171781C89
:10072000005730D41D9C61315568C4D9701AA4D1CA
:10073000C2335A78460B5322943864129AC42193D8
:10074000D0240EA1D161C3396C380786E3D070186C
:1007500000581FCF218C63AA11A734F9480EB1C3EA
:10076000E8503AAC0EB3434464E174481B538A0624
:10077000591FCD217C61A35065D3204D3A0B53E224
:10078000903A680E9BC3E6B0396C0E9B436E005ADC
:1007900019CC216CF1102E4FC294289D0E9943E87C
:1007A000AC1172645C3E1C025B0A04A63361D2FF8A
:1007B00013015C12C8214C21968BE562B9582E9624
:1007C0008BE562015D0A04A23341D2FF93015E0E04
:1007D00008A14D27961269222D42A2005F074960A9
:1007E0004BF140600885A43E215B1461122A215C14
:1007F000739A4D8463DA646D329B8C9806621FCCC9
:100800001D644107CD4173D01C34074D88B4D174A9
:10081000329D4C27D3C974421B496A00630F2921BA
:1008200054571A19CB5B2333190900641DCC216C72
:100830004F07CD4173D01C34A48C6694E9643A9977
:100840004EA693E96846A41065122A215C471C4D08
:1008500086C6C3413E8E0C652500660EC8213C4706
:1008600093EC3AB44DF7B106671EEB215B0F924350
:1008700046C6D14C2813CA4643A31C74081E22D274
:1008800089583294DD00681ECC216C4107CD41733C
:10089000D01C34074D6A24D270341C0D47C3D1706C
:1008A000349C940A690CC52134335A0792F64B01E3
:1008B0006A0F471633B91D8DB83F5A2C2212006BB0
:1008C0001DCC216C4107CD4173D01C34078D4A33B8
:1008D000E1283C115F27C4116D46A9186C0AC52197
:1008E0003441DAFFA5006D183321A441A9D8482569
:1008F000D27069B8345C1A2E0D97862BA5066E153A
:100900002C216C41A99148C3D170341C0D47C3D12F
:1009100070522A6F0F2B2164579C4DA6BE4E66C3A2
:100920001A00701CAC1D633122D246D3C974329DAB
:100930004C27D3096D3421CE4173D01C5207711C52
:10094000AC21634712CD28D3C974329D4C27D3D133
:100950008C489983E6A039680E29720F28214C41F2
:1009600011512423C974C71A00731229215445094F
:10097000C924C388F16A2D4A2225007411A7214495
:10098000178E0A67A6E19E22A310050075152C217B
:100990006C51220D47C3D170341C0D47C3115B85C8
:1009A0000076142A1D4C519A0C43C3D828388A92D9
:1009B000E972881000771B301D7C51294D66C3D029
:1009C0006C181B91822352944426D185728850085A
:1009D00078122B216461619351A4F57955429351AA
:1009E0002806791BAB2163519B4C43D3D82C388B01
:1009F0004EC293F81C32074565D1497C0E7A0E2908
:100A0000215471A0D588DC8AC403017B0E05A23372
:100A10002712EDA4281BED26147C07C2315CF103DC
:100A20007D0F05A23321948DB60945A23DA9017E13
:100A30000B6A2465B572888C460000000004FFFF35
:100A400000005F00030204040305050E0FFFFD0B09
:100A5000FD0BFD019E037E04EC2005008C14210794
:100A6000B186140745220733C51589252315A784A8
:100A70007849988449344C499844C394844998648B
:100A8000002417E77478E1A0449114496192AE49BB
:100A90001849915419C438032519BB843C63944503
:100AA00059299C722C877228C7A231CA4A59142E20
:100AB000002613A8855A6A1446A95C89922C2946F7
:100AC00059126D01270631C51303280CE36D5549F2
:100AD0009444FD166501290DE36D15599445FD12E9
:100AE0002511002A0A55B55795CAD214012B0B7748
:100AF0008D79716D18B2B8062C0742743315052D27
:100B00000613A414032E06218513022F0CB484743B
:100B1000A5AC9495B21A00300CB685384312FAC7CA
:100B20006448003108B3865843D43F320DB6853847
:100B300043128A69D86B3A0C3310B6853843128A4F
:100B400069694E45311912003412B785B8A9986405
:100B5000512D099330198634AE00350FB6851887AC
:100B6000B43AC8692A8AC99000360FB6853843124C
:100B7000AA9545131D932101370EB68518D7300D60
:100B8000D3300DD32200380FB6853843123A2643AE
:100B9000123A2643023910B6853843123A26839A10
:100BA0008A623224003A07818513A2003B0AA274AC
:100BB0003475284914003C0856959892D9003D0791
:100BC000369D19E7613E08569518B2C9083F0DB623
:100BD0008558A6514CC37630CD00401DCB7D9D433A
:100BE0002A4A395253122D8AA42C92B2488A949AD6
:100BF000A2E5989A0E1A004113B98499F99CC44948
:100C00009A8559351A86284D723D4211B785199734
:100C1000703526831426A971181400430FB8857AFD
:100C20009B25D5BB2369A26913004410B8851A839C
:100C3000162A6912FB9A84CAA001450DB7851907C7
:100C4000B97958E2E66108460CB7851807B97958B2
:100C5000E2CE004713B9857B43262AB18EE448389B
:100C6000E87A1227DA29480BB8851AB1E7E1107B38
:100C70000E4907B186140F024A0BB684B7FD2A8AC3
:100C8000C990004B14B8851969124659294CD235C0
:100C90000AB362942671004C09B6861869FF3A0CB3
:100CA0004D19BB841C39B40FF992264A9A4859242D
:100CB000659196645A9289A1584E14B8851AAA1261
:100CC0002AA1944999166991988889BA0A4F10B94E
:100CD000857BA326A549EE3D49234DDC00500DB789
:100CE00085199770350E831277065112B9857BA34B
:100CF00026A549EE968951124A9A3805520FB885B1
:100D00001A87249DADC930A549EC1C530DB78559F0
:100D100093B6EACEEA264D005415B984198F39925C
:100D200023399223399223399223391202550CB870
:100D3000851AB17F4EC26C88005614B98419B99EC9
:100D4000A4511A695A314B9338C97324045720BDF2
:100D5000841D69AAA6621226599245599245599254
:100D600055B2244CB2244CB2242DA719005814B902
:100D70008419799266D524CF913C49B36A94267937
:100D8000005913B98419F9AAA459314B9378CF911A
:100D90001CC991105A0EB785198738ADAA55B53CB4
:100DA0000C015B09E36D1443D4FF345C0BB4841471
:100DB000599815B362565D09E36C1453FFD3105E66
:100DC0000A55B557591225352D5F07186C180701BC
:100DD000600722CD155100611087853843648E0667
:100DE000454BC244921601620DB6851769CB228D20
:100DF0008ED3B200630D8685374322AD8D933224A6
:100E000000640CB685B82DA7D171529600650F8687
:100E1000853843228DC3A0A692322400660BB48489
:100E2000544A164D599F00670EB66D38A7D17152BE
:100E30009674528604680BB6851869CB228D3E06DF
:100E40006908B18513CA30086A0AE36B53D5A83F15
:100E50002D006B10B68517695B12553231C9A25A45
:100E600012066C07B185130F026D1189851B89A4C9
:100E700048B64CCBB44CCBB44C2B6E0A868518C903
:100E8000228D3E066F0D86853843228D8E93322447
:100E900000700EB66D18C9228D8ED3B2A4550071A4
:100EA0000CB66D38A7D1715296B401720A848515BB
:100EB000C91065BD01730B8585374B368EB664014D
:100EC000740AA484345934653D0A750A868517A1CD
:100ED0008F93B2047610878417A99A64511665958A
:100EE00030493300771089841A59A6655A25EA4B90
:100EF0005B318B00780E8784179A9255D2384DB2A9
:100F00008A267911B76C17E998645156CA92548DA4
:100F10005351047A09868417D7B0D7617B0BE56CEF
:100F20007552D8562D76157C07E16D131F047D0C84
:100F3000E56C156AD85A2B76D2007E09369D389218
:100F400062520000000004FFFF000000AA1D1124EF
:100F50001FBECFEFD8E0DEBFCDBF11E0A0E0B1E013
:100F6000EAE0FFE402C005900D92A63AB107D9F776
:100F700025E0A6EAB1E001C01D92AE35B207E1F767
:100F800017E0C7EAD7E004C02197FE010E946F274F
:100F9000C63AD107C9F70E9464200C9483270C94A9
:100FA0000000662329F06A3019F0862F90E008953A
:100FB0008FEF9FEF0895AF92BF92CF92DF92EF92A3
:100FC000FF920F93CF93DF93EC01DA017901942F15
:100FD0009770E1E0F0E09F01092E01C0220F0A9412
:100FE000EAF7522F6E018AE8C80ED11CF601808103
:100FF00040E0823018F4422F813049F15D01F8EF72
:10100000AF22E8ADF9AD28813981D90150968C9194
:101010008A9D90018B9D300D1124620F731FDF019B
:10102000A60FB71F01111AC0EA0EFB1E8C91842B6C
:1010300085278D93AE15BF05C9F7DF91CF910F912D
:10104000FF90EF90DF90CF90BF90AF90089550E069
:10105000D5CF440F550FE114F10479F33C91342BB3
:1010600035273C939F5F9770E1E0EE1AF1089111EC
:10107000F0CF2CAD3DADA20FB31FF60180818230C1
:1010800028F4813009F051E041E0E5CF51E0E3CFB1
:1010900080E0089590E080E00895CF93DF93C6E26A
:1010A000D4E08FAFEAADFBAD0190F081E02D8AE294
:1010B00094E00995EAADFBAD0280F381E02D8AE270
:1010C00094E0DF91CF910994CF92DF92EF92FF925B
:1010D0000F931F93CF93DF9300D000D01F92CDB713
:1010E000DEB7C090640400916504E0912A04F09199
:1010F0002B04D188102FF12CE12CE0912A04F091DF
:101100002B04808920916204309163041C821D832A
:101110008B8348E0849FC00111248E9DA0018F9D88
:10112000500D9E9D500D1124240F351F3A832983A5
:10113000E0912E04F0912F049E012F5F3F4F41E07C
:101140006FE08AE294E009951F5F812F801B8C1568
:1011500028F48FEFE81AF80A1D1578F20F900F9017
:101160000F900F900F90DF91CF911F910F91FF90F3
:10117000EF90DF90CF900895809184049091850442
:10118000892BA1F18091A4048093B0044091A5041F
:101190004093B1049091AF04992341F1913069F4E7
:1011A0009091A604891714F49093B0048091A70439
:1011B0008417E4F48093B10408953091A104209140
:1011C000A304082E000C990B622F022E000C770B43
:1011D000630F711D37FD7A95861797071CF4320F40
:1011E0003093B004241714F42093B104089583308D
:1011F00018F48093B404089581E0FBCF90E3843623
:1012000018F084569F5FFBCF9093940290E38A304E
:1012100018F08A509F5FFBCF9093950290E3811165
:1012200007C0909396021092970285E992E0089584
:1012300081509F5FF4CF9B01DC011896ED91FC91EA
:1012400041E067E1099420914802260F3327331FBC
:1012500021323105ECF420916E02FC0190E080E037
:10126000243069F082E00895A09148022191AC01F8
:101270004A5D5D4FA40FB52FB11D2C9301968617C3
:1012800098F380914802680F6093480280E00895C7
:1012900081E00895089508950895E0911D028091D8
:1012A0001C02E81730F4F0E0E450FE4F808190E03B
:1012B00008958FEF9FEF089590911D0280911C0279
:1012C0002FEF3FEF981748F4E92FF0E0E450FE4F7E
:1012D000208130E09F5F90931D02C90108958091A5
:1012E0001C0290911D02891B990B0895CF92DF92E9
:1012F000EF92FF920F931F93CF93DF937C01CB016B
:101300008A012091FB01222389F0EB016B01C40EBD
:10131000D51ECC15DD0569F06991D701ED91FC91E1
:101320000190F081E02DC7010995F3CF642F0E9451
:101330002309C801DF91CF911F910F91FF90EF908A
:10134000DF90CF900895CF93DF931F92CDB7DEB794
:1013500069832091FB012223F9F020911E022032A3
:1013600058F021E030E0FC013383228390E080E0FC
:101370000F90DF91CF91089580911F02E82FF0E048
:10138000E552FE4F998190838F5F80931F02809377
:101390001E0281E090E0ECCF61E0CE0101960E9458
:1013A0002309F7CF833081F028F4813099F082301F
:1013B000A9F008958730A9F08830C9F08430B1F4DD
:1013C000809180008F7D03C0809180008F77809313
:1013D0008000089584B58F7784BD089584B58F7D8E
:1013E000FBCF8091B0008F778093B00008958091FB
:1013F000B0008F7DF9CFCF93DF93282F30E0F90134
:10140000EC52FE4F8491F901E851FE4FD491F9015D
:10141000EA5FFD4FC491CC23A1F081110E94D20953
:10142000EC2FF0E0EE0FFF1FE450FE4FA591B491BA
:10143000EC91ED2381E090E009F480E0DF91CF9121
:10144000089580E090E0FACF1F93CF93DF93282F89
:1014500030E0F901EC52FE4F8491F901E851FE4F62
:10146000D491F901EA5FFD4FC491CC23A9F0162F66
:1014700081110E94D209EC2FF0E0EE0FFF1FE6531E
:10148000FE4FA591B4918FB7F894EC91111108C05B
:10149000D095DE23DC938FBFDF91CF911F9108950C
:1014A000DE2BF8CFCF93DF93EC018091DA0490919B
:1014B000DB04019701F560E08AE00E94240A60E005
:1014C00089E00E94240A60E08EE00E94240A60E025
:1014D0008FE00E94240A60E080E10E94240A60E01C
:1014E00081E10E94240A60E08CE00E94240A60E00E
:1014F0008BE00E94240AFE01319761E08AE0E73028
:10150000F10568F4E957F54F61E00C946F278E0AF6
:10151000930A950A970A990A9B0A9D0A89E0DF9126
:10152000CF910C94240A8EE0FACF8FE0F8CF80E1BF
:10153000F6CF81E1F4CF8CE0F2CF8BE0F0CF809159
:10154000DC0480FF76C08091EB049091EC04892B41
:1015500009F46FC090E080E00E94520A8091DC04A0
:1015600081FF6CC08091EB049091EC04892B09F40D
:1015700065C081E090E00E94520A8091DC0482FF05
:1015800062C08091EB049091EC04892B09F45BC05C
:1015900082E090E00E94520A8091DC0483FF58C0F0
:1015A0008091EB049091EC04892B09F451C083E005
:1015B00090E00E94520A8091DC0484FF4EC080912A
:1015C000EB049091EC04892B09F447C084E090E08F
:1015D0000E94520A8091DC0485FF44C08091EB0494
:1015E0009091EC04892BF1F185E090E00E94520A81
:1015F0008091DC0486FF3BC08091EB049091EC0469
:10160000892BA9F186E090E00E94520A8091DC04C7
:1016100087FF32C08091EB049091EC04892B61F13B
:1016200087E090E00E94520A1092F2041092F104B6
:10163000089560E08AE00E94240A90CF60E089E08B
:101640000E94240A9ACF60E08EE00E94240AA4CF70
:1016500060E08FE00E94240AAECF60E080E10E944B
:10166000240AB8CF60E081E10E94240AC1CF60E083
:101670008CE00E94240ACACF60E08BE00E94240A1A
:10168000D3CF10926E0281E08093700210926F02AD
:1016900061E082E10E94240A61E083E10E94240A61
:1016A000E9EBF0E080818E7F808380818D7F808375
:1016B00088E48093B80085E48093BC000895CF93BC
:1016C000DF9391E0909325028823B9F0C091B80090
:1016D000D091BA008091BC008A7B8093BC0060E00E
:1016E00082E10E94240A60E083E10E94240A0E94B1
:1016F000410BD093BA00C093B800DF91CF91089509
:10170000CF93DF9390E0FC01E851FE4F24918A5F74
:101710009D4FFC0184918823C9F090E0880F991FA8
:10172000FC01E054FE4FA591B491FC01E653FE4F3D
:10173000C591D49161110DC09FB7F8948C912095FB
:1017400082238C938881282328839FBFDF91CF91A8
:101750000895623051F49FB7F8943C91822F8095A0
:1017600083238C93E8812E2BEFCF8FB7F894EC91E5
:101770002E2B2C938FBFEACF3FB7F8948091D701DF
:101780009091D801A091D901B091DA0126B5A89B1A
:1017900005C02F3F19F00196A11DB11D3FBFBA2F03
:1017A000A92F982F8827BC01CD01620F711D811DC3
:1017B000911D42E0660F771F881F991F4A95D1F748
:1017C00008958F929F92AF92BF92CF92DF92EF9245
:1017D000FF926B017C010E94BC0B4B015C01C114A8
:1017E000D104E104F104B9F00E94BC0B6819790935
:1017F0008A099B09683E73408105910580F321E0C9
:10180000C21AD108E108F10888EE880E83E0981E1C
:10181000A11CB11CE4CFFF90EF90DF90CF90BF9060
:10182000AF909F908F9008950F931F93CF93DF9366
:101830008C01C62F642FCC32E8F4CA3208F041C0C4
:10184000C83271F1C93209F442C080E0C034D0F12D
:10185000CF73F801EC0FF11D868D8F3F91F1C031F0
:10186000E0F00E94FB0921E0892B09F420E0F80157
:10187000218F27C0CD3289F140F384EB8C0F823069
:1018800020F7CF73C00FD12FD11D8E8D411133C0E2
:1018900061E00E94800B60E08E8D0E94240A11C0DE
:1018A000025E1F4FD0E0F80181918F018F3F31F030
:1018B00061E0D03108F062E00E94800BDF5FD6313A
:1018C00091F781E0DF91CF911F910F91089570E022
:1018D00090E080E00E94E10BF4CF85E090E043309F
:1018E00010F082E090E0880F991F880F991F0597EC
:1018F0000197F1F7E6CF62E00E94800BE2CF2FB7AD
:10190000F8946091D3017091D4018091D5019091A8
:10191000D6012FBF08950895AF92BF92CF92DF9264
:10192000EF92FF920F931F93CF93DF936C017B0194
:101930008B01040F151FEB015E01AE18BF08C01725
:10194000D10759F06991D601ED91FC910190F08198
:10195000E02DC6010995892B79F7C501DF91CF915B
:101960001F910F91FF90EF90DF90CF90BF90AF90BD
:101970000895FC01538D448D252F30E0842F90E095
:10198000821B930B541710F0CF960895019708957A
:10199000FC01918D828D981761F0A28DAE0FBF2F43
:1019A000B11D5D968C91928D9F5F9F73928F90E099
:1019B00008958FEF9FEF0895FC01918D828D981708
:1019C00031F0828DE80FF11D858D90E008958FEF45
:1019D0009FEF0895FC01918D228D892F90E0805C0E
:1019E0009F4F821B91098F739927089584EA92E093
:1019F0000E94EA0C21E0892B09F420E0822F08954F
:101A000080E090E0892B29F00E94F60C81110C9463
:101A100000000895FC01A48DA80FB92FB11DA35A91
:101A2000BF4F2C91848D90E001968F739927848FFE
:101A3000A689B7892C93A089B1898C918370806421
:101A40008C93938D848D981306C00288F389E02DC2
:101A500080818F7D80830895EF92FF920F931F9373
:101A6000CF93DF93EC0181E0888F9B8D8C8D981351
:101A70001AC0E889F989808185FF15C09FB7F8945D
:101A8000EE89FF896083E889F989808183708064A9
:101A900080839FBF81E090E0DF91CF911F910F91F4
:101AA000FF90EF900895F62E0B8D10E00F5F1F4F03
:101AB0000F731127E02E8C8D8E110CC00FB607FC12
:101AC000FACFE889F989808185FFF5CFCE010E94A0
:101AD0000A0DF1CFEB8DEC0FFD2FF11DE35AFF4FF7
:101AE000F0829FB7F8940B8FEA89FB89808180622E
:101AF000CFCFEF92FF920F931F93CF93DF938C0181
:101B00007B01D0E0C0E0F701EC0FFD1F649166237C
:101B100039F0C8010E942C0D892B11F02196F3CFCA
:101B200042E050E063EA71E0C8010E948C0C8C0F27
:101B30009D1FDF91CF911F910F91FF90EF9008951E
:101B4000CF93DF93EC01888D8823B9F0AA89BB89F4
:101B5000E889F9898C9185FD03C0808186FD0DC0DF
:101B60000FB607FCF7CF8C9185FFF2CF808185FF00
:101B7000EDCFCE010E940A0DE9CFDF91CF910895FC
:101B8000DC011A96ED91FC9130E020E00994DC0133
:101B90001696ED91FC9130E020E040E069E1099477
:101BA000DC011696ED91FC9130E020E040E068E128
:101BB00009949A01DC011696ED91FC91462F67E19C
:101BC0000994EF92FF920F931F93CF93DF931F928D
:101BD000CDB7DEB77C018B01D8016C91673129F15B
:101BE00050F46531A0F40F90DF91CF911F910F91C8
:101BF000FF90EF9008956A3118F16E3FA1F7F80158
:101C00004181498369E2C7010E94C00D0BC0F80100
:101C100041814983D7011696ED91FC9130E020E097
:101C2000C70109950E5F1F4FD7CFF80181818983C6
:101C3000AE014F5F5F4F61E0C7010E94D90DF2CF47
:101C40000F5F1F4FD7011696ED91FC9130E020E019
:101C500040E0C7010995C0CF462FDC011696ED91F3
:101C6000FC9130E020E066E10994462FDC011696F5
:101C7000ED91FC9130E020E065E10994EF92FF9254
:101C80000F931F93CF93DF93EC01042F79016D30F5
:101C900009F446C050F46B30C9F1693009F49FC0B3
:101CA0006A3009F465C080E046C06E3009F452C065
:101CB0006F3099F70E94D00DF7011381110F110FAA
:101CC000110F6C89160F60E4CE010E94350E612F52
:101CD00062956F706061CE010E94350E612F6F704A
:101CE000CE010E942C0EF7016481606BCE010E9430
:101CF0002C0EF701408151816281660F660F660FDD
:101D0000CE010E94D90D0150A1F72EC06BE171E008
:101D1000442311F066E171E0CE010E94E10D0AC09A
:101D2000411110C06FE071E00E94E10DE881F9817E
:101D300082898C8B81E0DF91CF911F910F91FF9071
:101D4000EF90089568E071E00E94E10DE881F9816B
:101D50008389EFCF0E94D00D61E8CE010E94350E3D
:101D6000602FCE010E942C0ECE010E94C70DE2CF43
:101D7000EA85FB8530E020E040E068E2CE0109958D
:101D8000EE81FF8130E020E040E064E1CE01099582
:101D900041E06BE4CE010E94C00DE881F9814481ED
:101DA00069E2CE010E94C00D40E06BE4CE010E94CA
:101DB000C00DE881F981448169E2CE010E94C00D25
:101DC00041E06BE4CE010E94C00DE881F9814581BC
:101DD00069E2CE010E94C00D60E271E09DCF85E511
:101DE00091E0998388831C8AA5CFDC011896ED9138
:101DF000FC9130E020E040E069E10994DC011896B4
:101E0000ED91FC9130E020E040E068E10994CF934F
:101E1000DF931F92CDB7DEB76983BE016F5F7F4F3F
:101E20000E941B090F90DF91CF910895EF92FF92CE
:101E30001F93CF93DF93EC01162F7A010E94FE0EC1
:101E400060E4CE010E94070FE885F9859701412FD4
:101E500067E1CE010995CE01DF91CF911F91FF90EF
:101E6000EF900C94F50EEF92FF921F93CF93DF93B8
:101E7000EC01142F7901663181F138F4643109F4F1
:101E80004BC0653179F080E022C06831C9F150F172
:101E90006931C9F78091CB01882391F1CE010E946D
:101EA000F50E2EC08091CB01882319F0CE010E943F
:101EB000F50ECE010E94FE0E60E0CE010E94070FDB
:101EC000612FCE010E94070F81E08093CB01DF914B
:101ED000CF911F91FF90EF900895642F0E94070FFC
:101EE00081E0F5CF8091CB01882319F0CE010E94CB
:101EF000F50EA701193138F4612FCE010E94160F9B
:101F00001092CB01EDCF68E1CE010E94160F18515F
:101F100088E1E80EF11CEDCF8E898F3F11F488E740
:101F20008E8BE885F9859701412F64E1CE01DF9121
:101F3000CF911F91FF90EF900994FC016623D9F196
:101F40006A30C9F1808D811125C06C3F48F085E071
:101F5000808F617070E0738B628B2EEF3FEF29C032
:101F6000683F20F084E0808F6370F4CF603F20F002
:101F700083E0808F6770EECF603E20F082E0808F3C
:101F80006F70E8CF262F30E0603C98F081E0808FC2
:101F90006F71E0CF8150808F2289338996E0220FC4
:101FA000331F9A95E1F76F73262B338B228B8111A8
:101FB000D4CFC90108952FEF3FEFFBCF0F93FC0162
:101FC000E05CFF4F0190F081E02D4E1B5F0BDC01C8
:101FD000D496ED91FC9109950F910895CF93DF93DD
:101FE000FC01A081B18182AD90E09C0143E0220F11
:101FF000331F4A95E1F737AF26AF50962C91509793
:1020000048E0249F9001112435AF24AF23AD30E088
:10201000B90153E0660F771F5A95E1F7EF01C05CF5
:10202000DF4F7983688351964C915197E901C80F2E
:10203000D91F50E04C175D0718F4CA01821B930B9F
:10204000EF01CE5BDF4F79836883229623E0880F10
:10205000991F2A95E1F7860F971F99838883229607
:1020600054968D919C91559799838883E85BFF4F97
:1020700056968D919C9191838083DF91CF910895A5
:102080000F931F93FC01E25BFF4F0190F081E02D65
:10209000DC01A05BBF4F0D90BC91A02D4A175B07E0
:1020A00040F4E017F10748F00417150730F080E01E
:1020B00019C0E017F107C0F3FACFFC01E65BFF4F50
:1020C00040815181845B9F4FFC0180819181681721
:1020D000790758F481E04217530720F081E0261772
:1020E000370728F71F910F91089542175307B0F350
:1020F000DECF2F923F924F925F926F927F928F929C
:102100009F92AF92BF92CF92DF92EF92FF920F9386
:102110001F93CF93DF93CDB7DEB72A970FB6F8940E
:10212000DEBF0FBECDBF9A878987865B9F4F9A839C
:102130008983FC0111821082E985FA85EA5BFF4FF1
:102140004080518029853A85245B3F4F3C832B8317
:10215000F90151824082E985FA85EE5BFF4F2080CC
:10216000318029853A85225B3F4F3E832D83F901DB
:1021700031822082E985FA85EC5BFF4F60807180B7
:1021800029853A85205B3F4F38872F83F90171827B
:102190006082E985FA85E85AFF4FE080F180E985A1
:1021A000FA85EC5AFF4FA080B180E985FA85EA5A9A
:1021B000FF4FC080D180E985FA85EE5AFF4F8080BD
:1021C000918087019501A601B40189859A850E94B5
:1021D000401029853A852C573F4F3A87298781112E
:1021E0001BC0F90110822A960FB6F894DEBF0FBE0D
:1021F000CDBFDF91CF911F910F91FF90EF90DF90B6
:10220000CF90BF90AF909F908F907F906F905F9096
:102210004F903F902F90089581E0E985FA85808363
:102220008114910421F0E981FA8191828082A414C1
:10223000B50420F4EB81FC81B182A0822C143D0412
:1022400020F4ED81FE81D182C082E614F70458F6B5
:10225000EF81F885F182E082C6CF0F93CF93DF93B1
:10226000E02FDC01AC57BF4FFC91FF2309F460C0A5
:102270002115310509F45CC02230310538F00230F7
:1022800009F04AC06F5F7F4F621B730B0E2F017006
:10229000E0FD52C0FC01E25BFF4F0190F081E02DB8
:1022A0004E175F0708F444C0FC01E05BFF4F01904C
:1022B000F081E02D4E175F07D8F5FC01E45BFF4F7E
:1022C0000190F081E02DDC01A65BBF4F0D90BC9129
:1022D000A02D260F371F2617370738F56E177F07F3
:1022E00018F59F0121503109A217B30708F56A17A5
:1022F0007B0708F4BD012E173F0708F4F901E61B20
:10230000F70BEC01AEA9BFA914960D90BC91A02DBE
:102310009F01FD0109950CC0033009F0B7CF4F5F55
:102320005F4F421B530BB2CFBD016E177F07E0F228
:10233000DF91CF910F910895FC01E65BFF4F019073
:10234000F081E02D6E177F0798F3FC01E45BFF4FEF
:102350000190F081E02D6E177F0750F7FC01E05BE4
:10236000FF4F0190F081E02DDC01A25BBF4F0D908B
:10237000BC91A02D240F351F24173507A8F44E1744
:102380005F0788F49F0121503109A217B30780F637
:102390004A175B0708F4AD012E173F0708F4F9014F
:1023A000E41BF50BAECFAD014E175F0708F6EDCF7E
:1023B000213069F038F0223079F0840F911D47FD0B
:1023C0009A950895860F911D67FD9A950895841B2F
:1023D000910947FD93950895861B910967FD939593
:1023E0000895213069F038F0223079F0861B910988
:1023F00067FD93950895840F911D47FD9A95089563
:10240000860F911D67FD9A950895841B910947FDDC
:10241000939508953F924F925F926F927F928F9221
:102420009F92AF92BF92CF92DF92EF92FF920F9363
:102430001F93CF93DF937C01162F442EEC01C25AD9
:10244000DF4F5E806F806C018AE8C80ED11C7884F3
:102450007518312E711608F4372C8C809D800E85EE
:10246000202F462D652D8A819B810E94D8115C0109
:10247000202F462D652DC4010E94F111AC0144208E
:1024800079F08C85F6018083232D30E0B501C701FA
:102490000E942D11171548F017196394512CD7CFAE
:1024A0008B858111F7CF8D85EDCF150D1E836F8242
:1024B000DF91CF911F910F91FF90EF90DF90CF9020
:1024C000BF90AF909F908F907F906F905F904F9054
:1024D0003F900895DC011A964C911A97ED91FC916A
:1024E0001197249130E0042E02C0359527950A9467
:1024F000E2F7842F860F883068F031961196FC93AE
:10250000EE93E49198E0941B01C0EE0F9A95EAF7E0
:102510002E2B88501A968C938FEF9FEF01C0880F57
:102520006A95EAF78095822308950F931F93CF93BE
:10253000DF938C01EC01C25ADF4F798368831A86DE
:10254000FC01EF58FF4F6081CE010E946A1288871C
:10255000F801EE58FF4F6081CE010E946A12898710
:10256000F801E657FF4F90819C8781E0911180E050
:102570008D87DF91CF911F910F910895CF93C62F33
:102580000E946A12C15021E030E001C0220FCA95BA
:10259000EAF7821BCF910895FC01E60FF11D8491AB
:1025A00090E0982F88273196E4918E0F911D089521
:1025B000CF93DF93EC01FC018491809397043196D3
:1025C000E491E0939804FE013296E491E09399043B
:1025D000FE013396E491E0939A04FE013496E4916F
:1025E000E0939B04FE013596E491E0939C04FE0188
:1025F0003696E491E0939D04FE013796E491E093D2
:102600009E04FE013896E491E0939F04FE01399602
:10261000E491E093A004FE013A96E491E093A104D2
:10262000FE013B96E491E093A204FE013C96E49106
:10263000E093A304FE013D96E491E093A404FE011F
:102640003E96E491E093A504FE013F96E491E09369
:10265000A604FE017096E491E093A70461E1CE0127
:102660000E94CC129093A9048093A80463E1CE0148
:102670000E94CC129093AB048093AA0465E1CE0132
:102680000E94CC129093AD048093AC04DF91CF9163
:102690000895EF92FF920F931F93CF93DF93FC0166
:1026A000E65AFF4F20813181295E3F4F6F3F710510
:1026B00009F048F561367105D8F080589F4FFC014C
:1026C00080819181280F391FC9010196FC01449135
:1026D000442309F447C0F90144914617170671F4E1
:1026E0000196DF91CF911F910F91FF90EF90089588
:1026F0006134710548F382589F4FE1CFFC0184910A
:10270000280F311DE1CF8B01FC01EE57FF4FC08137
:10271000D181C20FD31F7E0160E0C7010E94CC129D
:10272000C80FD91F62E0C7010E94CC12F4E0EF0E7F
:10273000F11C8017910780F3FE01849190E0982F9F
:1027400088273196E4918E2B009761F008171907BE
:1027500019F4CE010396C5CFFE013296E491CE0F57
:10276000D11DEACF90E080E0BCCFCF92DF92FF9204
:102770000F931F93CF93DF93109290041092420413
:102780006C0180ECF82E10E000E0D0E0C0E0F60133
:1027900061916F01E0912C04F0912D048AE294E0A4
:1027A00009958F3F980789F18E3F2FEF920779F3B4
:1027B000BC018AE294E00E944913009721F1BC0118
:1027C0008AE294E00E94951260919D0488E894E06A
:1027D0000E94BE128093B20460919E0488E894E047
:1027E0000E94BE1260919F0488E894E00E94BE128D
:1027F000082F880F110B80ECF81202C0F090B20481
:10280000C00FD11FC4CF80E0F3CF209190042223CA
:1028100099F08091B204022E000C330B280F311D69
:1028200087FD3A95C20FD31FC01BD10B1F1424F490
:10283000CF0DD11DF7FCDA95CE01DF91CF911F911D
:102840000F91FF90DF90CF9008958F929F92AF925B
:10285000BF92CF92DF92EF92FF920F931F93CF938D
:10286000DF93EC017B018A016901FC01E459FF4F10
:102870008081813009F46FC008F462C0823009F4AD
:1028800075C0833009F47DC0FE01E05AFF4FF1822C
:10289000E082329611830083B601CE010E94491373
:1028A000009709F4FFC07E012EE5E20EF11CBC0189
:1028B000CE010E949512FE01E959FF4FB0803C966F
:1028C0006081C7010E94BE12882EFE01EC58FF4FA6
:1028D0006081C7010E94BE12082FFE01EB58FF4F16
:1028E0006081C7010E94BE12A82EF70190841914BE
:1028F0000CF090C016850B0D0195212F402F682DEF
:10290000828193810E94D8116C01F70193838283A5
:10291000212F402F682D848195810E94F111AC01F7
:10292000F70195838483113009F484C0A8F1123033
:1029300009F491C0133009F4A4C08C01960136C08B
:10294000FE01E45AFF4F0190F081E02DCE01099580
:10295000080F191F99CFFE01E45AFF4F0190F08133
:10296000E02DCE010995E81AF90A8ECFFE01E45A4E
:10297000FF4F0190F081E02DCE010995081B190B46
:1029800083CFFE01E45AFF4F0190F081E02DCE018C
:102990000995E80EF91E78CF9601290D311D97FC97
:1029A0003A958C010B0D111DB7FC1A95B601CE019D
:1029B0000E944010882371F1F701168217828E0160
:1029C00001591F4F6E01F0E7CF0ED11CF801608155
:1029D000C7010E946A12882EF6016081C7010E9419
:1029E0006A12982E40E0682DCE010E940A1241E042
:1029F000692DCE010E940A1261E0C7010E946A128D
:102A00008111F0CFF70187818B1504F3C657DF4F93
:102A1000848588838A2DAA0C990BDF91CF911F9111
:102A20000F91FF90EF90DF90CF90BF90AF909F906D
:102A30008F90089581E090E08B199109B7FC9395F0
:102A400096012F5F3F4F8A01090D111D97FC1A95C2
:102A5000C80ED91EABCF81E090E0BC0169197109A5
:102A600097FC739596012F5F3F4F8B199109B7FC27
:102A700093958A010F5F1F4F480F591FC60ED71E2F
:102A800095CF96012B0D311DB7FC3A9581E090E072
:102A90008919910997FC93958A010F5F1F4F480F81
:102AA000591F84CF90E080E0B8CFCF92DF92EF92B1
:102AB000FF920F931F93CF93DF938C0110924204E8
:102AC0007B01D12CC12CC4E1D0E0F70161917F01E1
:102AD000E0912C04F0912D048AE294E009958F3F57
:102AE000980719F18E3F2FEF920779F39C01AE0101
:102AF000B8018AE294E00E942514209196042130C6
:102B000059F038F0223059F0233061F0C80ED91E48
:102B1000DCCF080F191FFACFC80FD91FF7CF081B3A
:102B2000190BF4CFC81BD90BF1CFC601DF91CF91A0
:102B30001F910F91FF90EF90DF90CF9008952F920B
:102B40003F924F925F926F927F928F929F92AF923D
:102B5000BF92CF92DF92EF92FF920F931F93CF938A
:102B6000DF93CDB7DEB72F970FB6F894DEBF0FBE59
:102B7000CDBF2C017B018DE99FE090932D048093C4
:102B80002C04CB010E94B5136C0101969695879594
:102B9000481A590A2CE1C216D10408F0EAC04CE1E7
:102BA00050E04C195D09569547955A8349837CE15D
:102BB000C72ED12C81E0809393048DE99FE0909300
:102BC0002D0480932C04B701C2010E945515898100
:102BD0009A81481A590A8091B0049091B4049F8355
:102BE000082E000C990B2091B1043C01621A710867
:102BF00027FD739428E0620E711C33E0E32EF12C64
:102C000024E130E0A901481B590B59874887C601C8
:102C100001969C01240D351D3B872A87A2014C0D8E
:102C20005D1D5D874C875201AE18BF08C701880F34
:102C3000991F9C012C0D3D1D3A832983E091860448
:102C4000F09187048AE294E0099528843984280E5B
:102C5000391EA70140955095420D531D5F874E8741
:102C600051E0E51AF10809F48CC08E859F85860D28
:102C7000971D9E838D832A853B852E0D3F1D3C83AA
:102C80002B838C014E855F85B5018AE294E00E941A
:102C900040108823E9F100E029813A814E855F8563
:102CA000B5018AE294E00E942D1132E063167104AE
:102CB00078F1430142E0841A91088E859F85019640
:102CC0009F878E8781149104C9F001E09401AC01C3
:102CD000B5018AE294E00E942D1194014E855F8532
:102CE0006C857D856E0D7F1D8AE294E00E942D111A
:102CF0002E853F85280D391D3F872E8700E02981CD
:102D00003A814E855F85B5018AE294E00E942D11DB
:102D10008F810E94F70832E0E316F10431F541E0BB
:102D200050E05F874E8751E0251A31084D815E8162
:102D30002E853F85420F531F00E029813A81B20161
:102D40008AE294E00E942D116B817C814E855F8523
:102D5000640F751F01E09301A1018AE294E00E94D3
:102D60002D118E859F85029739F492E0691A7108BA
:102D70005ACF1A8219821ECF82E090E09F878E87F9
:102D8000D5CF2F960FB6F894DEBF0FBECDBFDF9123
:102D9000CF911F910F91FF90EF90DF90CF90BF9058
:102DA000AF909F908F907F906F905F904F903F90EB
:102DB0002F900895CF92DF92EF92FF920F931F937F
:102DC000CF93DF93EC01962F683109F44BC0B90122
:102DD000993130F49431C9F0973189F080E006C020
:102DE000993109F461C09032C9F781E0DF91CF9148
:102DF0001F910F91FF90EF90DF90CF90089550E0DA
:102E000088E992E00E947609F0CF8C859D85AE8599
:102E1000BF85892B8A2B8B2B71F4E881F981A585DD
:102E2000B0E020EA36E841E050E00E9427276C87B6
:102E30007D878E879F8710921D0210921C02109230
:102E40001F0210921E020E94410B8AE499E09093A7
:102E50004702809346028BE499E090934B02809363
:102E60004A02C3CF2C853D854E855F8560E074E2C4
:102E700084EF90E00E943227205131094109510925
:102E800056954795379527952093B8008E8990E001
:102E90009595879591E09093FB018093CA011092DC
:102EA0001F0210921E02A1CFD0911E02D13208F053
:102EB00093C0C091CA010E94BC0B6B017C01809140
:102EC0006E02811164C082E080936E0281E0809383
:102ED00070028FEF80936D0210929202D093910254
:102EE000ABEDB1E0E1E7F2E080E0D8137CC01092F6
:102EF000930280919302CC0FC82BC09393028091D0
:102F00006F02813009F073C010926F020E94BC0BF7
:102F10006B017C01809193028093BB008091210220
:102F200090912202A0912302B0912402892B8A2B36
:102F30008B2B99F00E94BC0B009121021091220270
:102F400020912302309124026C197D098E099F097A
:102F50000617170728073907D8F18091BC0083FDB1
:102F6000D9CF85EC8093BC000E94BC0B6B017C0127
:102F700080916E028230E9F180916D028F3F61F1A4
:102F800080916D02803241F180916D0225C0809167
:102F9000210290912202A0912302B0912402892B58
:102FA0008A2B8B2B09F48BCF0E94BC0B0091210242
:102FB0001091220220912302309124026C197D0984
:102FC0008E099F09061717072807390708F077CFDA
:102FD000809120020E945F0B10921F0210921E022D
:102FE0001092FB0102CF9D9191938F5F7ECF85EE72
:102FF000B9CF8091210290912202A0912302B09139
:103000002402892B8A2B8B2B09F4B2CF0E94BC0B94
:10301000009121021091220220912302309124027A
:103020006C197D098E099F090617170728073907AC
:1030300008F09ECFCDCFFC01E65DFE4F20813181AF
:1030400023303105E1F038F42130310559F02230D8
:10305000310581F0089524303105D1F02530310556
:10306000D1F0089511821082845D9E4FFC0131835E
:103070002083089521E030E031832083F5CF22E0E2
:1030800030E031832083845D9E4F21E030E0EECF3D
:1030900023E030E0F6CF24E030E0F3CFFC01E65D42
:1030A000FE4F2081318122303105F9F038F42115AD
:1030B000310561F02130310599F008952430310552
:1030C00001F1E0F025303105F9F0089521E030E01C
:1030D00031832083845D9E4FFC01318320830895DA
:1030E00042E050E051834083F5CF23E030E031836C
:1030F0002083845D9E4F21E030E0EECF24E030E07D
:10310000F6CF25E030E0F3CF29E030E0F0CFCF92EA
:10311000DF92EF92FF920F931F93CF93DF936C0197
:10312000EB017B01E40EF51E10E000E0CE15DF059B
:1031300061F06991D601ED91FC910190F081E02D53
:10314000C6010995080F191FF1CFC801DF91CF9172
:103150001F910F91FF90EF90DF90CF900895CF9245
:10316000DF92EF92FF920F931F93CF93DF93EC01C7
:103170006C0124E0C20ED11CFC01E057FF4F01900E
:10318000F081E02DC60109958E3FEFEF9E07D8F440
:103190008E010C561F4FF801408151817E01F2E9EA
:1031A000EF0EF11CF701608171819C01C6010E9444
:1031B0002514C059DF4F28812130C1F078F022302A
:1031C000B9F02330E9F081E090E0DF91CF911F91D9
:1031D0000F91FF90EF90DF90CF900895F70120813D
:1031E0003181820F931F91838083EDCFF801F7CF58
:1031F000F70120813181281B390B31832083E3CFF4
:10320000F801F7CFDC01ED91FD918081ED91FD9109
:103210009081ED91FD916C9163708E2309F0646053
:103220009F2309F06860EFE1F9E1E60FF11D659574
:1032300065956D936D917D918D919D91099423C0BC
:103240001AC012C016C010C01EC009C014C013C0DE
:1032500006C019C009C00DC007C00DC014C062501F
:103260007040804090400BC0615070408040904062
:1032700006C06E5F01C06F5F7F4F8F4F9F4F9E9361
:103280008E937E936E9308958091410390914203B3
:103290000C94021980914303909144030C940219F9
:1032A000089590E080E00895E6E2F4E0A481B5811D
:1032B00050962C9186AD38E0839FC0011124289F41
:1032C000A001299F500D112470E060E084AD95AD00
:1032D0000C947527CF930E946408C0916504809177
:1032E0006404C80FE0912A04F0912B048189C81767
:1032F00070F0E0912E04F0912F0430E020E040E0E7
:1033000060E18AE294E0099580E0CF910895809190
:10331000B50481110E9454198C2F0E944D0881E040
:10332000F4CF8091B50481110E94541980E00C946F
:103330004D08EF92FF920F931F93CF93DF9300D02E
:103340001F92CDB7DEB77C018B0119821A821B82D6
:10335000809184049091850482549A4051F082E4D3
:103360009AE090938504809384040E94D8120E946E
:10337000BC0881E0E816F10401F122E0E216F10454
:1033800069F10F3F100741F0802F0E94FE08BC0139
:10339000CE0101960E947C27BE016F5F7F4F84E1C2
:1033A00090E00E949F150F900F900F90DF91CF91AA
:1033B0001F910F91FF90EF9008950F3F100741F07C
:1033C000802F0E94FE08BC01CE0101960E947C273E
:1033D000BE016F5F7F4F80E490E0E3CF0F3F1007A7
:1033E00041F0802F0E94FE08BC01CE0101960E9490
:1033F0007C27BE016F5F7F4F8CE690E0D2CF85EDDA
:103400008093BC008091210290912202A09123021E
:10341000B09124020796A11DB11D23E0B695A79592
:10342000979587952A95D1F72091BC0024FD03C07C
:1034300010926E02089540912102509122026091F3
:10344000230270912402452B462B472B69F30097EA
:10345000A105B10541F025E32A95F1F70000019798
:10346000A109B109E1CF809120020C945F0B1F925A
:103470000F920FB60F9211242F933F934F935F93A8
:103480006F937F938F939F93AF93BF93EF93FF932C
:103490008091B900887F803609F44AC0F0F58832FF
:1034A00009F4A7C018F5803109F49BC0B8F488234B
:1034B00009F4F9C0883009F494C0FF91EF91BF91ED
:1034C000AF919F918F917F916F915F914F913F91BC
:1034D0002F910F900FBE0F901F901895883109F40F
:1034E00088C0803251F780936D0214C0803409F493
:1034F0009DC040F48033B9F38833F9F680936D02B0
:1035000085ECB0C0803509F485C0883509F496C0D3
:10351000883499F60E94FF19D0CF883909F48CC0FD
:1035200038F5883729F050F4883611F0803729F6BD
:1035300083E080936E0210926C0257C0883809F4C1
:103540007BC0803919F0803809F0B7CF80916C02C8
:10355000803208F071C0E0916C0281E08E0F8093A0
:103560006C028091BB00F0E0E45BFD4F80833DC0C6
:10357000803B39F0E0F4803A09F479C0883A09F0E8
:103580009CCF84E080936E02109249021092480210
:10359000E0914602F091470209958091480281111D
:1035A0000FC081E0809348021092260209C0803C3F
:1035B00009F4A6CF883C09F4A3CF883B09F07DCF5E
:1035C000E091490281E08E0F80934902F0E0EA5DCC
:1035D000FD4F80818093BB00909149028091480209
:1035E00029C0809193028093BB0085EC8093BC003E
:1035F00064CF9091920280919102981758F5E091D2
:10360000920281E08E0F80939202F0E0EF58FD4F1E
:103610008081E9CFE091920281E08E0F8093920247
:103620008091BB00F0E0EF58FD4F808390919202B3
:10363000809191029817C8F285E8D8CFE091920264
:1036400081E08E0F809392028091BB00F0E0EF58F2
:10365000FD4F80838091700281115CCF81E0809367
:103660006F0284EA8093BC0010926E0226CF85EC34
:103670008093BC0010926E0280916C02803230F414
:10368000E0916C02F0E0E45BFD4F108260916C020F
:1036900070E0E0914A02F0914B028CE492E00995CF
:1036A00010926C020ACF10926D0234CF1F920F92CB
:1036B0000FB60F9211242F933F938F939F93AF9345
:1036C000BF938091D3019091D401A091D501B09185
:1036D000D6013091D20123E0230F2D3758F5019602
:1036E000A11DB11D2093D2018093D3019093D401E9
:1036F000A093D501B093D6018091D7019091D801C4
:10370000A091D901B091DA010196A11DB11D80935C
:10371000D7019093D801A093D901B093DA01BF915A
:10372000AF919F918F913F912F910F900FBE0F906E
:103730001F90189526E8230F0296A11DB11DD2CF28
:103740001F920F920FB60F9211242F933F934F9316
:103750005F936F937F938F939F93AF93BF93EF93F9
:10376000FF93E0910201F09103010995FF91EF9120
:10377000BF91AF919F918F917F916F915F914F9189
:103780003F912F910F900FBE0F901F9018951F9291
:103790000F920FB60F9211242F933F934F935F9385
:1037A0006F937F938F939F93AF93BF93EF93FF9309
:1037B000E0910001F09101010995FF91EF91BF9116
:1037C000AF919F918F917F916F915F914F913F91B9
:1037D0002F910F900FBE0F901F9018951F920F9270
:1037E0000FB60F9211242F933F934F935F936F93D4
:1037F0007F938F939F93AF93BF93EF93FF9384EA4D
:1038000092E00E940A0DFF91EF91BF91AF919F91BD
:103810008F917F916F915F914F913F912F910F9079
:103820000FBE0F901F9018951F920F920FB60F9218
:1038300011242F938F939F93EF93FF93E091B40202
:10384000F091B5028081E091BA02F091BB0282FD55
:103850001BC090818091BD028F5F8F732091BE024B
:10386000821741F0E091BD02F0E0EC55FD4F958FDD
:103870008093BD02FF91EF919F918F912F910F90B7
:103880000FBE0F901F9018958081F4CF1F920F925A
:103890000FB60F9211242F933F934F935F936F9323
:1038A0007F938F939F93AF93BF93CF93DF93EF93C8
:1038B000FF938091CC01C091A503D0E087FF23C086
:1038C00010928500109284008091CC018F5F8093CC
:1038D000CC018091CC01082E000C990B8C179D0710
:1038E00024F48091CC018C307CF180918400909103
:1038F000850084349C4908F423C180918400909110
:10390000850004961FC18091CC01082E000C990BF4
:103910008C179D07CCF6E091CC0128E0E202F00183
:103920001124EB5BFC4F808186FFCECFE091CC0170
:1039300088E0E802F0011124EB5BFC4F808160E03D
:103940008F730E94240AC0CFE091CC0188E0E80286
:10395000F0011124EB5BFC4F8781882309F468C0D8
:10396000A091CC01E091CC0128E0A202D001112469
:10397000AB5BBC4F88E0E802F0011124EB5BFC4F2D
:1039800015962D913C9181819281A091CC01E0917D
:10399000CC018217930708F08AC028E0E202F00108
:1039A0001124EB5BFC4F88E0A802D0011124AB5B33
:1039B000BC4F17968C9121813281820F932F911DDC
:1039C00092838183A091CC01E091CC0128E0A202F6
:1039D000D0011124AB5BBC4F88E0E802F001112458
:1039E000EB5BFC4F15962D913C9181819281821762
:1039F0009307F0F0A091CC01E091CC0128E0E20225
:103A0000F0011124EB5BFC4F88E0A802D0011124E7
:103A1000AB5BBC4F15968D919C9192838183E09115
:103A2000CC0128E0E202F0011124EB5BFC4F17828D
:103A30008091840090918500E091CC0128E0E20221
:103A4000F0011124EB5BFC4F21813281820F931F27
:103A50009093890080938800E091CC0188E0E8028F
:103A6000F0011124EB5BFC4F808186FF0DC0E091DB
:103A7000CC0128E0E202F0011124EB5BFC4F8081D5
:103A800061E08F730E94240AFF91EF91DF91CF9143
:103A9000BF91AF919F918F917F916F915F914F9166
:103AA0003F912F910F900FBE0F901F90189588E0B7
:103AB000E802F0011124EB5BFC4F28E0A202D001E8
:103AC0001124AB5BBC4F17962C9181819281821B94
:103AD000910992838183A091CC01E091CC0188E08F
:103AE000A802D0011124AB5BBC4F28E0E202F00138
:103AF0001124EB5BFC4F15962D913C9181819281B5
:103B00002817390708F494CFA091CC01E091CC019B
:103B100088E0E802F0011124EB5BFC4F28E0A202F0
:103B2000D0011124AB5BBC4F15968D919C91928373
:103B30008183E091CC0188E0E802F001112475CF87
:103B400080E49CE990938900809388008FEF8093B4
:103B5000CC019ACFCF93DF9310929B0210929A02DE
:103B600088EE93E0A0E0B0E080939C0290939D02E9
:103B7000A0939E02B0939F0221E731E03093990217
:103B8000209398021092A7021092A6028093A80296
:103B90009093A902A093AA02B093AB0283E891E0AC
:103BA0009093A5028093A40285EC90E09093B102DB
:103BB0008093B00284EC90E09093B3028093B202C1
:103BC00080EC90E09093B5028093B40281EC90E099
:103BD0009093B7028093B60282EC90E09093B90282
:103BE0008093B80286EC90E09093BB028093BA0277
:103BF0001092BD021092BE021092BF021092C0023B
:103C0000109229041092280481ED97E09093B70454
:103C10008093B6041092B9041092B8041092BB04B9
:103C20001092BA041092420485E991E0909327041F
:103C30008093260410922B0410922A0410923F04C1
:103C400010923604109237041092380410923904FE
:103C50008FEF8093400480934404E8E4F4E08EE521
:103C600094E0CFEFC1938E179F07E1F78EE39EE0BC
:103C700090932F0480932E0483E39FE0909331046C
:103C8000809330048AED96E190933304809332045C
:103C900084E19CE0909335048093340430E020E08C
:103CA00040E069E08AE294E00E943E0E10928504B2
:103CB000109284048BED97E090935F0480935E04F0
:103CC00086EA93E0909363048093620481E080939A
:103CD000640410926504109293041092B30410923D
:103CE000AF048093B4048093B5048DE991E0909380
:103CF0006104809360048AE294E00E94EE0F1092C7
:103D00007D0410927C0410928104109280048FEF45
:103D10009FEF90937F0480937E049093830480931D
:103D20008204E0916004F09161040280F381E02D4F
:103D30008AE294E009958AE498E09093870480935E
:103D4000860410929604C0935304C0935404C09305
:103D500055041092BD041092BC041092BF0410923E
:103D6000BE041092C1041092C0041092C3041092B9
:103D7000C2041092C7041092C6041092C904109293
:103D8000C8041092CA041092CB041092CC04109272
:103D9000CD041092CE041092CF041092D004109251
:103DA000D1041092D3041092D204E091A503EC3018
:103DB00008F087C181E08E0F8093A503E093D404BF
:103DC00088E0E89FF0011124EB5BFC4F88EB9BE05F
:103DD000928381831092D90484E091E09093D80477
:103DE0008093D7041092DB041092DA041092DF045F
:103DF0001092E0041092E1041092E2041092E304A5
:103E00001092E4041092E5041092E6041092E70484
:103E10001092E8041092E9041092EA041092EC0463
:103E20001092EB041092ED041092EE041092EF0445
:103E30001092F0041092F2041092F1041092F40423
:103E40001092F30462E082E00E94800B62E083E063
:103E50000E94800BE8E0F2E0E491F0E0EE0FFF1F3B
:103E6000E450FE4FA591B491B093F604A093F504ED
:103E7000EAEEF1E044914093F904E9E0F2E0E491E4
:103E8000F0E0EE0FFF1FE450FE4FC591D491D093A8
:103E9000F804C093F704EBEEF1E0E491E093FA0448
:103EA0001092FC041092FD041092FE041092FF0484
:103EB0002BE33FE1C9010197F1F79C91842F8923FE
:103EC00091E009F490E08881E82309F092609093F2
:103ED000FB0425EF34E0309342032093410384E454
:103EE00099E19093010180930001809169008C7F9A
:103EF000816080936900E89A81E0809300053093A7
:103F00004403209343038AE499E19093030180934F
:103F1000020180916900837F846080936900E99A3F
:103F200082E08093000582E390E090930405809303
:103F3000030580E991E0909306058093050580E2F2
:103F400093E0909308058093070588EE93E09093A3
:103F50000A058093090510920C0510920B0510922A
:103F60000E0510920D051092100510920F0510927B
:103F7000120510921105109214051092130510925B
:103F8000160510921505109218051092170510923B
:103F90001A051092190510921C0510921B0510921B
:103FA0001E0510921D051092200510921F051092FB
:103FB00022051092210510922405109223051092DB
:103FC00026051092250510922805109227051092BB
:103FD0002A051092290510922C0510922B0510929B
:103FE0002E0510922D051092300510922F0510927B
:103FF000320510923105109234051092330510925B
:1040000035058FEF9FEF909337058093360590939A
:1040100039058093380510923A0510923B051092AD
:104020003C0510923D0510923E0510923F051092FE
:1040300040051092410510924205109243051092DE
:10404000440510924505109247051092460581E0FF
:1040500090E0909349058093480510924B0510928B
:104060004A0510924C0510924D0510924E05109283
:104070004F0584E090E0909302058093010562E093
:104080000E94800B10925305109252051092550514
:104090001092540589E19CEFAFEFBFEF8093560576
:1040A00090935705A0935805B093590510925A055F
:1040B00010925B0510925C0510925D05DF91CF9127
:1040C0000895C093D4048ECE789484B5826084BD64
:1040D00084B5816084BD85B5826085BD85B581600C
:1040E00085BD80916E00816080936E00109281008A
:1040F0008091810082608093810080918100816045
:104100008093810080918000816080938000809105
:10411000B10084608093B1008091B0008160809391
:10412000B00080917A00846080937A0080917A0058
:10413000826080937A0080917A00816080937A0017
:1041400080917A00806880937A001092C100E0919B
:10415000B402F091B50282E08083E091B002F09168
:10416000B1021082E091B202F091B30287E680833F
:104170001092BC02E091B802F091B90286E080830F
:10418000E091B602F091B702808180618083E09176
:10419000B602F091B702808188608083E091B60218
:1041A000F091B702808180688083E091B602F0913F
:1041B000B70280818F7D808362E671E084EA92E0BD
:1041C0000E94790D69E271E084EA92E00E94790D23
:1041D0006CEB70E084EA92E00E94790D80E89AE14D
:1041E000A6E0B0E08093360490933704A09338049F
:1041F000B0933904E0912E04F0912F0430E020E0D8
:1042000040E06AE08AE294E009950E9491190E94D8
:104210006A198111FCCF0E944D08E0912E04F091A3
:104220002F0430E020E040E06BE08AE294E0099562
:104230006EE970E084EA92E00E94790D1092BD046C
:104240001092BC048091C6049091C704892B31F46C
:1042500081E090E09093C5048093C4048091D404DD
:104260008C3008F04AC061E086E00E94800BE0914B
:10427000D40428E0E29FD0011124AB5BBC4F8C91A9
:10428000807C86608C931092D5041092D6042CE02A
:104290008E2F622F0E946327829FB001112430E08D
:1042A00020E0DB01A20FB31F43E0AA0FBB1F4A951A
:1042B000E1F7AB5BBC4F9C9196FD16C02F5F3F4F63
:1042C0002C30310571F781110FC01092800082E00F
:1042D000809381001092850010928400B19A8091A1
:1042E0006F00826080936F0038E0E39FF00111243B
:1042F000EB5BFC4F8081806480838091D40448E034
:10430000849F80011124F801EB5BFC4F28E030E032
:10431000348323838C3008F048C08091D504C8E8EA
:10432000D0E0C81BD10987FDD395CC0FDD1FCC0F82
:10433000DD1F6E010D2E000CEE08FF088091D604E3
:1043400068E572E0681B710987FD7395660F771F3A
:10435000660F771F072E000C880B990B6C197D09CF
:104360008E099F0923E0660F771F881F991F2A95E2
:10437000D1F724EB30E040E050E00E9408272C0DFC
:104380003D1D4E1D5F1D2C173D070CF49E018FB780
:10439000F894F801EB5BFC4F22503109220F331FD8
:1043A0003683258394E697838FBFC8E5D2E008E87B
:1043B00010E08091D6046E01C81AD10887FDD3940D
:1043C000CC0CDD1CCC0CDD1C0D2C000CEE08FF0809
:1043D0008091D5044801881A910887FD9394880C30
:1043E000991C880C991C092C000CAA08BB08E091A8
:1043F000D40490E080E0EF3FB9F058E0E59FF00191
:104400001124EB5BFC4F8181928143E0880F991F5F
:104410004A95E1F7B0E0A0E054E0B595A7959795EF
:1044200087955A95D1F702969C012F5F3F4F032E37
:10443000000C440B550B281939094A095B09A4EBF8
:10444000B0E00E942727A7019601281939094A09D7
:104450005B090E9408272830310539F065E070E0DB
:1044600080E090E00E94E10BA4CF68E870E084EA6D
:1044700092E00E94790D61E089E00E94800B61E08A
:104480008AE00E94800B61E08FE00E94800B61E077
:104490008EE00E94800B61E081E10E94800B61E070
:1044A00080E10E94800B61E08BE00E94800B61E064
:1044B0008CE00E94800B68E670E084EA92E00E9443
:1044C000790DC6E2D4E081E090E09093F20480930D
:1044D000F10463E171E084EA92E00E94790D8EE4D8
:1044E00098E19093100580930F05D0931205C09327
:1044F00011058BE198E19093160580931505D093F3
:104500001805C093170580914805909149058230A0
:10451000910514F482E090E090934905809348055A
:1045200063EF70E084EA92E00E94790D60ED70E044
:1045300084EA92E00E94790D109251051092500584
:1045400081E090E0909353058093520522E030E0A3
:104550003093DB042093DA041092DE041092DD0421
:1045600040ED57E060E070E04093DF045093E004DA
:104570006093E1047093E2049093F4048093F30455
:1045800062E471E084EA92E00E94790D442443944D
:10459000C1E0D0E032E0232E312C80910005823042
:1045A00008F079C0F89485EF94E00E940219809198
:1045B000FC049091FD04A091FE04B091FF04789456
:1045C00080935A0590935B05A0935C05B0935D05BD
:1045D000809101059091020597FDB2C00E94FB09F0
:1045E0007C010E947F0CAB01BC0140933E055093BF
:1045F0003F05609340057093410580913805909187
:104600003905E816F90609F048C080913A059091FD
:104610003B05A0913C05B0913D054A015B01881A1C
:10462000990AAA0ABB0A8091030590910405B0E09B
:10463000A0E088169906AA06BB0620F0F09237057E
:10464000E0923605E0903605F0903705C0900B05F6
:10465000D0900C058091420590914305A0914405AE
:10466000B09145054A015B01881A990AAA0ABB0A5A
:1046700080913305909134058230910509F4B2C0E0
:10468000CCF4009751F1019709F477C010923405EA
:104690001092330555C0F8948ACF40933A05509351
:1046A0003B0560933C0570933D05F0923905E0921F
:1046B0003805C8CF8630910509F40BC187309105C4
:1046C00009F44CC1039711F7CE14DF0409F09AC026
:1046D000D0933405C093330557C0809135058111BF
:1046E00014C08091090590910A05B0E0A0E08815FA
:1046F0009905AA05BB0548F4E0913105F091320512
:10470000309719F0409235050995CE14DF04C1F4B5
:10471000D0933405C093330580913E0590913F05B9
:10472000A0914005B09141058093420590934305C7
:10473000A0934405B0934505109247051092460595
:104740008091520590915305019709F022C1E091A3
:104750005005F0915105EA30F10508F016C1ED540D
:10476000FC4D0C946F27C124842589258E25952521
:104770009C25C524C524C5249F25CE14DF0469F0DB
:1047800030923405209233054093420550934305FF
:104790006093440570934505D3CF809107059091B0
:1047A0000805B0E0A0E088159905AA05BB0508F04A
:1047B000C7CFE0911F05F0912005309709F00995CA
:1047C000E0912105F0912205309729F08091230591
:1047D00090912405099586E090E0909334058093AC
:1047E0003305AECF80914605909147050196909391
:1047F000470580934605A3E0B0E0B0933405A0934D
:1048000033059ECF8091460590914705409105055F
:104810005091060570E060E084169506A606B7067E
:1048200040F420914805309149058217930709F01B
:1048300087CF8130910531F5E0910D05F0910E059E
:10484000309709F00995E0910F05F09110058091DE
:10485000110590911205309741F510923405109290
:10486000330510924705109246050E947F0C609315
:10487000420570934305809344059093450510923B
:1048800035055ECF029799F4E0911305F091140578
:10489000309709F00995E0911505F0911605809182
:1048A0001705909118053097C1F20995D6CFE09180
:1048B0001905F0911A05309709F00995E0911B054B
:1048C000F0911C0580911D0590911E05309769F7A8
:1048D000C4CFCE14DF0439F0E7E0F0E0F093340504
:1048E000E09333052DCF80914C0590914D05A0911B
:1048F0004E05B0914F05481B590B6A0B7B0B8091FD
:104900004A0590914B05B0E0A0E0481759076A07A7
:104910007B0708F415CFE0912B05F0912C0530971B
:1049200009F00995E0912D05F0912E05309729F0B9
:1049300080912F0590913005099580913E059091C9
:104940003F05A0914005B091410580934C0590939F
:104950004D05A0934E05B0934F05F2CEE09125058D
:10496000F0912605309709F00995E0912705F0911F
:104970002805309709F471CF8091290590912A0577
:1049800094CF1092BD041092BC0410925305109263
:1049900052058091C4049091C5048130910541F580
:1049A0002091C6043091C704232B11F59093C704BE
:1049B0008093C6040E9491198091BC049091BD041B
:1049C0008230910509F470C108F0C0C0009709F465
:1049D000DEC0019709F44FC10E946A198111ECCF22
:1049E0001092C5041092C4041092C7041092C60419
:1049F0000E947F0C6093CA047093CB048093CC0414
:104A00009093CD04C090CE04D090CF04E090D00419
:104A1000F090D1049B01AC012C193D094E095F09AE
:104A200069017A013BEFC316D104E104F104E8F017
:104A30006093CE047093CF048093D0049093D104FC
:104A40008091D2049091D304019709F45BC1D09373
:104A5000D304C093D2048091C6049091C704892BDB
:104A600021F4D093C504C093C4048091DA049091DA
:104A7000DB048130910509F493C1029709F447C121
:104A80000E947F0C6093E3047093E4048093E50438
:104A90009093E604C090E704D090E804E090E90425
:104AA000F090EA049B01AC012C193D094E095F0905
:104AB00069017A013BEFC316D104E104F104B8F0B7
:104AC0006093E7047093E8048093E9049093EA0408
:104AD0008091EB049091EC04019709F494C1D09378
:104AE000EC04C093EB04D093F204C093F10480E093
:104AF00090E0892B09F451CD0E94F60C882309F42B
:104B000047CD0E94000044CDD093BD04C093BC04A7
:104B10003CCF3092BD042092BC0437CF23E030E07C
:104B20003093BD042093BC0430CF84E090E0909398
:104B3000BD048093BC0429CF85E090E0F8CF49E024
:104B400050E05093BD044093BC041FCF83309105C7
:104B500009F4BFC0049709F03FCF6091BE04709183
:104B6000BF048091D2049091D304019709F0A8C0AA
:104B700090E080E00E9499196091C0047091C10496
:104B800081E090E00E9499196FEF7FEF88C0D09389
:104B9000C904C093C80480918404909185048A510B
:104BA000924051F08AE192E09093850480938404CE
:104BB0000E94D8120E94BC080CE110E02CE430E006
:104BC00044E050E064E370E08AE294E00E94401028
:104BD000882309F401CF98E7C92E91E0D92E24E06B
:104BE000E22EF12C47019FEF891A990A84012CE4E7
:104BF00030E0A70164E370E08AE294E00E94401094
:104C0000882329F15090B404560184E3682E712C56
:104C100011E0F5018491812321F15092B40400E068
:104C200021E030E0A701B3018AE294E00E942D1157
:104C3000FFEF6F1A7F0A110F21F42FEFA21AB20AA9
:104C400011E03CE46316710421F75092B40443E090
:104C5000C40ED11C74015CE18516910409F0C2CF29
:104C6000BBCE8091B3048111E3CF81E0511080E08D
:104C70008093B404D4CF6091BE047091BF0490E0DF
:104C800080E00E9499196091BE047091BF0481E098
:104C900090E00E9499196091BE047091BF0482E077
:104CA00090E00E94991998CE8091D2049091D304FB
:104CB0006FEF7FEF019721F06091BE047091BF0408
:104CC00090E080E00E9499196091C0047091C10445
:104CD00010C06091BE047091BF048091D204909185
:104CE000D304019769F790E080E00E9499196FEF73
:104CF0007FEF81E090E00E9499196091C204709169
:104D0000C304CDCF1092D3041092D204A4CE8091CC
:104D1000DD049091DE04892B09F0B2CE0E947F0C55
:104D20006B017C018091F3049091F404019729F5C3
:104D30008091DC048093D1010E947F0C6093CD01AF
:104D40007093CE018093CF019093D0011092F40420
:104D50001092F3048AEF90E0A0E0B0E08093ED04BD
:104D60009093EE04A093EF04B093F0041092EC043F
:104D70001092EB048FEF8093DC048091CD01909131
:104D8000CE01A091CF01B091D001C81AD90AEA0A88
:104D9000FB0A94ECC91699E0D906E104F10450F439
:104DA0008091F1049091F204019709F069CE0E947C
:104DB0009F0A66CE8091D1018093DC0460E08AE096
:104DC0000E94240A60E089E00E94240A60E08EE0EC
:104DD0000E94240A60E08FE00E94240A60E080E1E3
:104DE0000E94240A60E081E10E94240A60E08CE0D5
:104DF0000E94240A60E08BE00E94240A1092DB04E7
:104E00001092DA043DCE1092EC041092EB046BCEBB
:104E1000052E97FB1EF400940E941F2757FD07D014
:104E20000E94322707FC03D04EF40C941F275095A4
:104E30004095309521953F4F4F4F5F4F0895909586
:104E40008095709561957F4F8F4F9F4F08950E9479
:104E50005427A59F900DB49F900DA49F800D911D88
:104E600011240895A1E21A2EAA1BBB1BFD010DC03F
:104E7000AA1FBB1FEE1FFF1FA217B307E407F5070A
:104E800020F0A21BB30BE40BF50B661F771F881FE6
:104E9000991F1A9469F760957095809590959B017C
:104EA000AC01BD01CF010895A29FB001B39FC00125
:104EB000A39F700D811D1124911DB29F700D811D46
:104EC0001124911D0895991B79E004C0991F96172C
:104ED00008F0961B881F7A95C9F780950895EE0F04
:104EE000FF1F0590F491E02D0994DC0101C06D9342
:104EF00041505040E0F70895FB01DC0101900D9214
:0A4F00000020E1F70895F894FFCFB8
:104F0A008B0C8B0C00642D641815A015C019FF18A2
:104F1A0015A115C819FF1815AE19FF1815AF19FFF5
:104F2A001815AE15D5168015A8163F15D3160015F7
:104F3A0040158D16141520160015A115C815DA1678
:104F4A0002158116CF15D916F115DB1640152E1547
:104F5A00A415A619FF0001140A6464323200127AF9
:104F6A00000004289610080000800040000000009D
:104F7A0000A309760951194C096F095C094D09000A
:104F8A000000002C0D8C0CB90CA00DEA0CC80CDC2E
:104F9A000C00000000AF18871851195019EE0F794C
:064FAA0010DE0F0D0A00ED
:00000001FF
