:100000000C94A4060C94F11B0C94CA1B0C94CC0603
:100010000C94CC060C94CC060C94CC060C94CC0618
:100020000C94CC060C94CC060C94CC060C94701C4E
:100030000C94CC060C94CC060C94CC060C94CC06F8
:100040000C94801B0C94CC060C943E1C0C94181C35
:100050000C94CC060C94CC060C94CC060C94CC06D8
:100060000C94611A0C94CC06007E00E0FF01F0C3F2
:10007000033800071C00060C000E0C000C0C000CD2
:100080000C000C0C000C1C00001C00001C000018D4
:100090000000FCFF3FFEFF7FFFFFFFFFFFFFFFC7EA
:1000A000FFFF83FFFF81FFFF81FFFF83FFFFC7FF8C
:1000B000FFC7FFFFC7FFFFE7FFFFFFFFFFFFFFFFD8
:1000C000FFFFFEFFFFFCFF3F000000007E00C0FFBF
:1000D00001E0DF0770000F38000E18001C1C001C28
:1000E0001C00181C00181C00181C00181800001810
:1000F0000000FCFF3FFEFF7FFFFFFFFFFFFFFFC78A
:10010000FFFF83FFFF81FFFF81FFFF83FFFFC7FF2B
:10011000FFC7FFFFC7FFFFE7FFFFFFFFFFFFFFFF77
:10012000FFFFFEFFFFFCFF3F00000000000080FF1C
:1001300001E0FF07F0000F70000E38001C180018D7
:1001400018001818001818001818001818001818A7
:100150000000FCFF3FFEFF7FFFFFFFFFFFFFFFC729
:10016000FFFF83FFFF81FFFF81FFFF83FFFFC7FFCB
:10017000FFC7FFFFC7FFFFE7FFFFFFFFFFFFFFFF17
:10018000FFFFFEFFFFFCFF3F00000000000000FF3C
:1001900000C0FF03E0C30770000E38001C180018F1
:1001A0001800181800181800181800181800181847
:1001B0000000FCFF3FFEFF7FFFFFFFFFFFFFFFC7C9
:1001C000FFFF83FFFF81FFFF81FFFF83FFFFC7FF6B
:1001D000FFC7FFFFC7FFFFE7FFFFFFFFFFFFFFFFB7
:1001E000FFFFFEFFFFFCFF3F0000000000000000DB
:1001F0000080FF01E0FF07F0000F38001C38001CF2
:1002000018001818001818001818001818001818E6
:100210000000FCFF3FFEFF7FFFFFFFFFFFFFFFC768
:10022000FFFF83FFFF81FFFF81FFFF83FFFFC7FF0A
:10023000FFC7FFFFC7FFFFE7FFFFFFFFFFFFFFFF56
:10024000FFFFFEFFFFFCFF3F00000000000000007A
:100250000000FF00C0FF03E0810770000E38001CA3
:100260001800181800181800181800181800181886
:100270000018FCFF3FFEFF7FFFFFFFFFFFFFFFC7F0
:10028000FFFF83FFFF81FFFF81FFFF83FFFFC7FFAA
:10029000FFC7FFFFC7FFFFE7FFFFFFFFFFFFFFFFF6
:1002A000FFFFFEFFFFFCFF3F4C6967687473204946
:1002B0006E697469616C697A6174696F6E20636FCD
:1002C0006D706C65746564004C696768747320496F
:1002D0006E697469616C697A6174696F6E004F4C04
:1002E000454420496E697469616C697A6174696F0B
:1002F0006E20636F6D706C65746564004F4C45448F
:1003000020496E697469616C697A6174696F6E0005
:10031000536166656475696E6F20696E69746961A1
:100320006C697A6174696F6E20636F6D706C65744F
:10033000656400427574746F6E20496E69746961FA
:100340006C697A6174696F6E20636F6D706C65742F
:10035000656400427574746F6E20496E69746961DA
:100360006C697A6174696F6E005361666564756962
:100370006E6F20696E697469616C697A6174696F06
:100380006E0050757A7A6C6520696E697469616C6B
:10039000697A6174696F6E20636F6D706C657465E6
:1003A000640050757A7A6C6520696E697469616C55
:1003B000697A6174696F6E0000FF00E0FF07F0006A
:1003C0000F38001C1800181800181800181800180A
:1003D000180018FCFF3FFFFFFFFFFFFFFFEFFFFFCD
:1003E00083FFFF81FFFF81FFFFC3FFFFC7FFFFC741
:1003F000FFFFE7FFFFFFFFFFFFFFFFFFFFFCFF3FE8
:1004000000000000240027002A0000000000250052
:1004100028002B0000000008000201000003040770
:1004200000000000000000000102040810204080CD
:10043000010204081020010204081020000000003E
:100440002300260029000404040404040404020216
:10045000020202020303030303035F000303050513
:100460000405061614FDFC0EFC0EFE026D05BA080E
:100470000B200600602C01210FC4253423391C2CCD
:100480002265C92122012209A5644621E1450023F4
:100490001B8B616429114BC412D961729849C41233
:1004A000D961729849C412B14408242149A65B1944
:1004B00087846B924829520A5582B643E810334626
:1004C0004AA14AA8129195E39020002529EEE17BEC
:1004D00035938A26415948280B456511A9287D2462
:1004E00087C6C6225134240B8A64C1982CA6148C6A
:1004F0004EE330002624D0258C4B078AE420991C3B
:100500002493832672581D3AABD984135270561D1A
:1005100052A7B4DA21741B012707A2642E71182890
:100520001105A23327128D442399DE66B29950003B
:10053000291005A2332194CD64337D1A89466A00BF
:100540002A10E7E045354A9A44442349649434022A
:100550002B154A215C2987C8217288F07030CA2186
:1005600072881C22042C0BE4602B23394446D900EA
:100570002D0765E034F1102E0A84202C2339442401
:10058000002F0FC6213CA918540C2A0615838A0097
:100590003013C9255C379C8C6492997F9BC8449327
:1005A000E10C00310BC7295C271C15F79F0E321593
:1005B000C9255C47134D66B6896C3C1D4FA762D5B3
:1005C000C3A1003317C9255C47134D66B6896C2C4F
:1005D0009C83E41399DB44342B013416C9255C1F3A
:1005E000174F1923B3D028368A4D829383743C2D3C
:1005F0003518C9255C73889CE29038240EB1C5E695
:10060000E389CC6D229A95003616C9255C575A911C
:10061000D924E3C988B2E66D229B8C84330037115C
:10062000C9255CF1509E8AE562B97875BC11003825
:1006300015C9255C379449A4D4E2456434858E55A8
:100640006A4D46033917C9255C37144D669299B730
:10065000C98434194F6436C96854033A0D242534CB
:10066000233944C4924344023B0F84653323394405
:10067000C4924364940D003C114A215C0F1113395C
:10068000D32174081D4287083D0BC9A45CF1404783
:100690003C1C083E124A215C2187D02174081D426F
:1006A00026729643003F12C921545712DD6C13D9AC
:1006B00058772431952C044027CF21847B1ECBE42E
:1006C000A090AC241129916422924C449189246A0F
:1006D0002289D244249A10E5A0D8587C08024120EF
:1006E000CE1D741F07CB8173201D1499834272485D
:1006F0006C1E1B47A7076178181FC927D402421E2A
:10070000CC21747198CD48C3D170341CCD6687E07C
:10071000D274329D4C27D3C970729001431DCC21F5
:1007200074590AB18C25E33A840EA183E6A0396896
:100730000E89CC23E3184D5A03441FCE21847198AF
:100740000E69E3D178349FCC27F3C97C329FCC2744
:10075000E3D17834241D8600451FCB216C71A00C99
:100760002753C92C1499852223E171249C0567A184
:10077000C83832950C0F07461ECB216C71A00C2790
:1007800053C92C1499852223E171249C0567C13932
:10079000640E995B014721CD217C598A914863D130
:1007A00058328744E690C81C36874D0FE1D1743427
:1007B0009D91A8A50800481ECE218451AC8C47E32A
:1007C000D178341E8D4787D278341E8D47E3D17897
:1007D000349E140B490AC5254C5119ED7F294A1343
:1007E000CA1D645B9EEF936C429A9026C291684842
:1007F000044B1ECE2184512B4D8543E94C3C924F36
:10080000E4103BE43E218FA833E29036A5D40C4C93
:1008100010CA2164519EEFAF91696428991D0C4D57
:100820002DD1219C612E9169555A64189985669144
:10083000596816998546A1596C129AC526A1598CFA
:10084000360BCE66C1D968189CD462054E21CE21E4
:100850008441AD5067D42035584CA10543A4608C29
:10086000120C16A3C428313C1B8BCA21004F1DCE8D
:1008700021846926D1C6A3F1640EB143EC103BC4B8
:100880000EB1439647E319896C04501ECC21747154
:1008900010CE4843CA9032A40C2933D2213807CD58
:1008A0004173D01C3487D40151284E22836926D14C
:1008B000C6A3F1640EB143EC103BC40EB1D026A325
:1008C0009168269951CA76A81C3A8983EAB011002A
:1008D000521FCD218471A00D49D3D174341D0D67F1
:1008E00087E86C381BCE68C3D970369C1827005334
:1008F00016CA21644709AD0C25D308D97A355BCBDC
:10090000D5D3245402541CCB216C7130ADCD64334B
:10091000D92C3887CC2173C81C3287CC2173C8BC32
:1009200006551ECE218451AC8C47F3D83C368FCD72
:1009300063F3D83C368FCD63F3D83C38941B015613
:1009400022CF1D7461AC9067F320353C0D4FE3B3AB
:10095000386416074DE2B0491C3887CEC171781C47
:10096000005730D41D9C61315568C4D9701AA4D188
:10097000C2335A78460B5322943864129AC4219396
:10098000D0240EA1D161C3396C380786E3D070182A
:1009900000581FCF218C63AA11A734F9480EB1C3A8
:1009A000E8503AAC0EB3434464E174481B538A06E2
:1009B000591FCD217C61A35065D3204D3A0B53E2E2
:1009C000903A680E9BC3E6B0396C0E9B436E005A9A
:1009D00019CC216CF1102E4FC294289D0E9943E83A
:1009E000AC1172645C3E1C025B0A04A63361D2FF48
:1009F00013015C12C8214C21968BE562B9582E96E2
:100A00008BE562015D0A04A23341D2FF93015E0EC1
:100A100008A14D27961269222D42A2005F07496066
:100A20004BF140600885A43E215B1461122A215CD1
:100A3000739A4D8463DA646D329B8C9806621FCC86
:100A40001D644107CD4173D01C34074D88B4D17467
:100A5000329D4C27D3C974421B496A00630F292178
:100A600054571A19CB5B2333190900641DCC216C30
:100A70004F07CD4173D01C34A48C6694E9643A9935
:100A80004EA693E96846A41065122A215C471C4DC6
:100A900086C6C3413E8E0C652500660EC8213C47C4
:100AA00093EC3AB44DF7B106671EEB215B0F92430E
:100AB00046C6D14C2813CA4643A31C74081E22D232
:100AC00089583294DD00681ECC216C4107CD4173FA
:100AD000D01C34074D6A24D270341C0D47C3D1702A
:100AE000349C940A690CC52134335A0792F64B01A1
:100AF0006A0F471633B91D8DB83F5A2C2212006B6E
:100B00001DCC216C4107CD4173D01C34078D4A3375
:100B1000E1283C115F27C4116D46A9186C0AC52154
:100B20003441DAFFA5006D183321A441A9D8482526
:100B3000D27069B8345C1A2E0D97862BA5066E15F7
:100B40002C216C41A99148C3D170341C0D47C3D1ED
:100B500070522A6F0F2B2164579C4DA6BE4E66C360
:100B60001A00701CAC1D633122D246D3C974329D69
:100B70004C27D3096D3421CE4173D01C5207711C10
:100B8000AC21634712CD28D3C974329D4C27D3D1F1
:100B90008C489983E6A039680E29720F28214C41B0
:100BA00011512423C974C71A00731229215445090D
:100BB000C924C388F16A2D4A2225007411A7214453
:100BC000178E0A67A6E19E22A310050075152C2139
:100BD0006C51220D47C3D170341C0D47C3115B8586
:100BE0000076142A1D4C519A0C43C3D828388A9297
:100BF000E972881000771B301D7C51294D66C3D0E7
:100C00006C181B91822352944426D1857288500817
:100C100078122B216461619351A4F5795542935167
:100C20002806791BAB2163519B4C43D3D82C388BBE
:100C30004EC293F81C32074565D1497C0E7A0E29C5
:100C4000215471A0D588DC8AC403017B0E05A23330
:100C50002712EDA4281BED26147C07C2315CF1039A
:100C60007D0F05A23321948DB60945A23DA9017ED1
:100C70000B6A2465B572888C460000000004FFFFF3
:100C80000000120002030304020304050A00FE0828
:100C9000FE08FE0000000000A7200500BB002A0996
:100CA0002DEFA6525366082B0A2DEBC65058C6509E
:100CB000082C0722B55012002D050BCF0C2E051263
:100CC000B9102F0B44D927E3300EE3180030094543
:100CD000E94D125FD2043108C4E949A35E04320B26
:100CE00045E94D12258B627C0C330C45E94D1225EC
:100CF000CA104B9A00340B45E9AE22291A6F7100D5
:100D0000350C45E91C520CD1104B9A00360B45E9C5
:100D10004D124D492C6902370A44E91C7118875A53
:100D200000380C45E94D12254D124B9A00390B4500
:100D3000E94D124BA22969023A062AB99004000033
:100D40000004FFFF00002C1D11241FBECFEFD8E0D0
:100D5000DEBFCDBF11E0A0E0B1E0E6EEF1E502C0FC
:100D600005900D92AE3AB107D9F725E0AEEAB1E0B1
:100D700001C01D92A834B207E1F716E0C4EAD6E03C
:100D800004C02197FE010E94DD28C33AD107C9F7AC
:100D90000E940E200C94F1280C940000662329F088
:100DA0006A3019F0862F90E008958FEF9FEF089535
:100DB000AF92BF92CF92DF92EF92FF920F93CF93B9
:100DC000DF93EC01DA017901942F9770E1E0F0E014
:100DD0009F01092E01C0220F0A94EAF7522F6E01DB
:100DE0008AE8C80ED11CF601808140E0823018F4F8
:100DF000422F813049F15D01F8EFAF22E8ADF9AD46
:100E000028813981D90150968C918A9D90018B9DC2
:100E1000300D1124620F731FDF01A60FB71F0111E0
:100E20001AC0EA0EFB1E8C91842B85278D93AE157C
:100E3000BF05C9F7DF91CF910F91FF90EF90DF9041
:100E4000CF90BF90AF90089550E0D5CF440F550F8D
:100E5000E114F10479F33C91342B35273C939F5FE7
:100E60009770E1E0EE1AF1089111F0CF2CAD3DAD95
:100E7000A20FB31FF6018081823028F4813009F07F
:100E800051E041E0E5CF51E0E3CF80E0089590E00C
:100E900080E00895CF93DF93C7EFD3E08FAFEAAD43
:100EA000FBAD0190F081E02D8BEF93E00995EAAD69
:100EB000FBAD0280F381E02D8BEF93E0DF91CF91CA
:100EC0000994CF92DF92EF92FF920F931F93CF93EB
:100ED000DF9300D000D01F92CDB7DEB7C0903504AD
:100EE00000913604E091FB03F091FC03D188102FB0
:100EF000F12CE12CE091FB03F091FC03808920911F
:100F00003304309134041C821D838B8348E0849F1A
:100F1000C00111248E9DA0018F9D500D9E9D500DEE
:100F20001124240F351F3A832983E091FF03F091A8
:100F300000049E012F5F3F4F41E06FE08BEF93E095
:100F400009951F5F812F801B8C1528F48FEFE81AFD
:100F5000F80A1D1578F20F900F900F900F900F90D8
:100F6000DF91CF911F910F91FF90EF90DF90CF9085
:100F700008958091990490919A04892B31F481E02D
:100F800090E090939804809397040895809155047D
:100F900090915604892BA1F180917504809381046E
:100FA000409176044093820490918004992341F10A
:100FB000913069F490917704891714F49093810427
:100FC000809178048417E4F480938204089530912A
:100FD000720420917404082E000C990B622F022ECB
:100FE000000C770B630F711D37FD7A9586179707F5
:100FF0001CF4320F30938104241714F420938204DC
:101000000895833018F480938504089581E0FBCF20
:1010100090E3843618F084569F5FFBCF9093A10233
:1010200090E38A3018F08A509F5FFBCF9093A20222
:1010300090E3811107C09093A3021092A40282EA68
:1010400092E0089581509F5FF4CF8F929F92AF926C
:10105000BF92FF920F931F93CF93DF93F090B90449
:101060002BE02F1508F44CC02091BB0408E512E0DA
:10107000021B110927FD1395000F111F000F111FEF
:101080002091BA04C8E8D0E0C21BD10927FDD3954E
:10109000CC0FDD1FCC0FDD1F4E010D2E000CAA085A
:1010A000BB089801012E000C440B550B2819390977
:1010B0004A095B09DC010E94982824EB30E040E0FB
:1010C00050E00E946E28820E931EA41EB51E8C1640
:1010D0009D062CF0E801801691060CF4E40122979D
:1010E000CC0FDD1F2FB7F8948F2D90E0FC01EE0F91
:1010F000FF1FE80FF91FEE5AFC4FD283C1832FBFA9
:10110000DF91CF911F910F91FF90BF90AF909F9073
:101110008F9008959B01DC011896ED91FC9141E0C0
:1011200067E1099420915502260F3327331F21329E
:101130003105ECF420917B02FC0190E080E024304A
:1011400069F082E00895A09155022191AC014D5CB7
:101150005D4FA40FB52FB11D2C930196861798F300
:1011600080915502680F6093550280E0089581E0F8
:101170000895089508950895E0912A028091290222
:10118000E81730F4F0E0E75FFD4F808190E00895CC
:101190008FEF9FEF089590912A02809129022FEFFF
:1011A0003FEF981748F4E92FF0E0E75FFD4F20810B
:1011B00030E09F5F90932A02C9010895809129022F
:1011C00090912A02891B990B0895CF92DF92EF929A
:1011D000FF920F931F93CF93DF937C01CB018A0182
:1011E00020910802222389F0EB016B01C40ED51E69
:1011F000CC15DD0569F06991D701ED91FC91019065
:10120000F081E02DC7010995F3CF642F0E94920869
:10121000C801DF91CF911F910F91FF90EF90DF9068
:10122000CF900895CF93DF931F92CDB7DEB7698338
:10123000209108022223F9F020912B02203258F04D
:1012400021E030E0FC013383228390E080E00F90C6
:10125000DF91CF91089580912C02E82FF0E0E851C2
:10126000FE4F998190838F5F80932C0280932B0295
:1012700081E090E0ECCF61E0CE0101960E949208FF
:10128000F7CF833081F028F4813099F08230A9F0D3
:1012900008958730A9F08830C9F08430B1F4809186
:1012A00080008F7D03C0809180008F7780938000C5
:1012B000089584B58F7784BD089584B58F7DFBCF65
:1012C0008091B0008F778093B00008958091B00036
:1012D0008F7DF9CFCF93DF93282F30E0F901EC5EBB
:1012E000FB4F8491F901E85DFB4FD491F901EA5B72
:1012F000FB4FC491CC23A1F081110E944109EC2F36
:10130000F0E0EE0FFF1FE45CFB4FA591B491EC9170
:10131000ED2381E090E009F480E0DF91CF91089522
:1013200080E090E0FACF1F93CF93DF93282F30E037
:10133000F901EC5EFB4F8491F901E85DFB4FD4911C
:10134000F901EA5BFB4FC491CC23A9F0162F811160
:101350000E944109EC2FF0E0EE0FFF1FE65FFB4F0C
:10136000A591B4918FB7F894EC91111108C0D09564
:10137000DE23DC938FBFDF91CF911F910895DE2B89
:10138000F8CFCF93DF93EC018091BC049091BD0422
:10139000019701F560E08AE00E94930960E089E02E
:1013A0000E94930960E08EE00E94930960E08FE064
:1013B0000E94930960E080E10E94930960E081E16E
:1013C0000E94930960E08CE00E94930960E08BE04A
:1013D0000E949309FE01319761E08AE0E730F10550
:1013E00068F4EA50F64F61E00C94DD28FD09020A2A
:1013F000040A060A080A0A0A0C0A89E0DF91CF915A
:101400000C9493098EE0FACF8FE0F8CF80E1F6CF0D
:1014100081E1F4CF8CE0F2CF8BE0F0CF8091D30468
:101420009091D404019709F079C08091BE0480FFA7
:1014300076C08091CD049091CE04892B09F46FC0C1
:1014400090E080E00E94C1098091BE0481FF6CC0E1
:101450008091CD049091CE04892B09F465C081E080
:1014600090E00E94C1098091BE0482FF62C0809119
:10147000CD049091CE04892B09F45BC082E090E00A
:101480000E94C1098091BE0483FF58C08091CD04A1
:101490009091CE04892B09F451C083E090E00E9422
:1014A000C1098091BE0484FF4EC08091CD0490910B
:1014B000CE04892B09F447C084E090E00E94C10962
:1014C0008091BE0485FF44C08091CD049091CE04EC
:1014D000892BF1F185E090E00E94C1098091BE0462
:1014E00086FF3BC08091CD049091CE04892BA9F159
:1014F00086E090E00E94C1098091BE0487FF32C05F
:101500008091CD049091CE04892B61F187E090E029
:101510000E94C1091092D4041092D304089560E08F
:101520008AE00E94930990CF60E089E00E949309CD
:101530009ACF60E08EE00E949309A4CF60E08FE034
:101540000E949309AECF60E080E10E949309B8CF7A
:1015500060E081E10E949309C1CF60E08CE00E94CD
:101560009309CACF60E08BE00E949309D3CF109219
:10157000C1041092C2041092C3041092C4041092C9
:10158000BD041092BC0460E089E00E94930960E011
:101590008FE00E94930960E081E10E94930960E07E
:1015A0008BE00E94930990E080E00E94C10982E0F4
:1015B00090E00E94C10984E090E00E94C10986E0A9
:1015C00090E00C94C10910927B0281E080937D022F
:1015D00010927C0261E082E10E94930961E083E164
:1015E0000E949309E9EBF0E080818E7F8083808107
:1015F0008D7F808388E48093B80085E48093BC006D
:101600000895CF93DF9391E0909332028823B9F04D
:10161000C091B800D091BA008091BC008A7B8093C1
:10162000BC0060E082E10E94930960E083E10E94D7
:1016300093090E94E30AD093BA00C093B800DF91E7
:10164000CF910895CF93DF9390E0FC01E85DFB4FCD
:1016500024918A5B9B4FFC0184918823C9F090E020
:10166000880F991FFC01E050FC4FA591B491FC013B
:10167000E65FFB4FC591D49161110DC09FB7F894FF
:101680008C91209582238C938881282328839FBF67
:10169000DF91CF910895623051F49FB7F8943C9157
:1016A000822F809583238C93E8812E2BEFCF8FB7E9
:1016B000F894EC912E2B2C938FBFEACF3FB7F89480
:1016C0008091E4019091E501A091E601B091E701DC
:1016D00026B5A89B05C02F3F19F00196A11DB11D8D
:1016E0003FBFBA2FA92F982F8827BC01CD01620FC9
:1016F000711D811D911D42E0660F771F881F991F84
:101700004A95D1F708952FB7F8946091E001709150
:10171000E1018091E2019091E3012FBF08950895C6
:10172000AF92BF92CF92DF92EF92FF920F931F93EF
:10173000CF93DF936C017B018B01040F151FEB012D
:101740005E01AE18BF08C017D10759F06991D601E4
:10175000ED91FC910190F081E02DC6010995892B56
:1017600079F7C501DF91CF911F910F91FF90EF9015
:10177000DF90CF90BF90AF900895FC01538D448DC2
:10178000252F30E0842F90E0821B930B541710F02C
:10179000CF96089501970895FC01918D828D981739
:1017A00061F0A28DAE0FBF2FB11D5D968C91928D11
:1017B0009F5F9F73928F90E008958FEF9FEF089542
:1017C000FC01918D828D981731F0828DE80FF11D0B
:1017D000858D90E008958FEF9FEF0895FC01918D26
:1017E000228D892F90E0805C9F4F821B91098F731F
:1017F0009927089581EB92E00E94EE0B21E0892B5E
:1018000009F420E0822F089580E090E0892B29F0F0
:101810000E94FA0B81110C9400000895FC01A48D24
:10182000A80FB92FB11DA35ABF4F2C91848D90E002
:1018300001968F739927848FA689B7892C93A089E5
:10184000B1898C91837080648C93938D848D98136F
:1018500006C00288F389E02D80818F7D8083089502
:10186000EF92FF920F931F93CF93DF93EC0181E0F0
:10187000888F9B8D8C8D98131AC0E889F989808197
:1018800085FF15C09FB7F894EE89FF896083E889CA
:10189000F98980818370806480839FBF81E090E0BC
:1018A000DF91CF911F910F91FF90EF900895F62E49
:1018B0000B8D10E00F5F1F4F0F731127E02E8C8DE3
:1018C0008E110CC00FB607FCFACFE889F989808128
:1018D00085FFF5CFCE010E940E0CF1CFEB8DEC0F02
:1018E000FD2FF11DE35AFF4FF0829FB7F8940B8F45
:1018F000EA89FB8980818062CFCFEF92FF920F93BC
:101900001F93CF93DF938C017B01D0E0C0E0F70100
:10191000EC0FFD1F6491662339F0C8010E94300C62
:10192000892B11F02196F3CF42E050E06BEA71E091
:10193000C8010E94900B8C0F9D1FDF91CF911F91CA
:101940000F91FF90EF900895CF93DF93EC01888D76
:101950008823B9F0AA89BB89E889F9898C9185FD2A
:1019600003C0808186FD0DC00FB607FCF7CF8C91B8
:1019700085FFF2CF808185FFEDCFCE010E940E0C56
:10198000E9CFDF91CF910895DC011A96ED91FC919A
:1019900030E020E00994DC011696ED91FC9130E0F6
:1019A00020E040E069E10994DC011696ED91FC919C
:1019B00030E020E040E068E109949A01DC011696ED
:1019C000ED91FC91462F67E10994EF92FF920F93FE
:1019D0001F93CF93DF931F92CDB7DEB77C018B01AE
:1019E000D8016C91673129F150F46531A0F40F9062
:1019F000DF91CF911F910F91FF90EF9008956A3181
:101A000018F16E3FA1F7F8014181498369E2C701EE
:101A10000E94C40C0BC0F80141814983D70116967E
:101A2000ED91FC9130E020E0C70109950E5F1F4F5A
:101A3000D7CFF80181818983AE014F5F5F4F61E0AD
:101A4000C7010E94DD0CF2CF0F5F1F4FD701169622
:101A5000ED91FC9130E020E040E0C7010995C0CF56
:101A6000462FDC011696ED91FC9130E020E066E116
:101A70000994462FDC011696ED91FC9130E020E0B0
:101A800065E10994EF92FF920F931F93CF93DF9339
:101A9000EC01042F79016D3009F446C050F46B302D
:101AA000C9F1693009F49FC06A3009F465C080E06B
:101AB00046C06E3009F452C06F3099F70E94D40CC2
:101AC000F7011381110F110F110F6C89160F60E4CC
:101AD000CE010E94390D612F62956F706061CE0159
:101AE0000E94390D612F6F70CE010E94300DF701F9
:101AF0006481606BCE010E94300DF70140815181FD
:101B00006281660F660F660FCE010E94DD0C0150E8
:101B1000A1F72EC067E171E0442311F062E171E0AA
:101B2000CE010E94E50C0AC0411110C06BE071E0CB
:101B30000E94E50CE881F98182898C8B81E0DF913C
:101B4000CF911F910F91FF90EF90089564E071E0A5
:101B50000E94E50CE881F9818389EFCF0E94D40CC3
:101B600061E8CE010E94390D602FCE010E94300D38
:101B7000CE010E94CB0CE2CFEA85FB8530E020E06D
:101B800040E068E2CE010995EE81FF8130E020E07F
:101B900040E064E1CE01099541E06BE4CE010E9492
:101BA000C40CE881F981448169E2CE010E94C40C31
:101BB00040E06BE4CE010E94C40CE881F9814481CD
:101BC00069E2CE010E94C40C41E06BE4CE010E94A8
:101BD000C40CE881F981458169E2CE010E94C40C00
:101BE0006CE171E09DCF81E591E0998388831C8A47
:101BF000A5CFDC011896ED91FC9130E020E040E0AB
:101C000069E10994DC011896ED91FC9130E020E047
:101C100040E068E10994CF93DF931F92CDB7DEB720
:101C20006983BE016F5F7F4F0E948A080F90DF912A
:101C3000CF910895EF92FF921F93CF93DF93EC0122
:101C4000162F7A010E94020E60E4CE010E940B0E54
:101C5000E885F9859701412F67E1CE010995CE010D
:101C6000DF91CF911F91FF90EF900C94F90DEF92BF
:101C7000FF921F93CF93DF93EC01142F790166310C
:101C800081F138F4643109F44BC0653179F080E0BA
:101C900022C06831C9F150F16931C9F78091D3018F
:101CA000882391F1CE010E94F90D2EC08091D301BD
:101CB000882319F0CE010E94F90DCE010E94020E78
:101CC00060E0CE010E940B0E612FCE010E940B0E30
:101CD00081E08093D301DF91CF911F91FF90EF902E
:101CE0000895642F0E940B0E81E0F5CF8091D301FF
:101CF000882319F0CE010E94F90DA701193138F49B
:101D0000612FCE010E941A0E1092D301EDCF68E12F
:101D1000CE010E941A0E185188E1E80EF11CEDCF99
:101D20008E898F3F11F488E78E8BE885F9859701BE
:101D3000412F64E1CE01DF91CF911F91FF90EF9091
:101D40000994FC016623D9F16A30C9F1808D8111B3
:101D500025C06C3F48F085E0808F617070E0738B28
:101D6000628B2EEF3FEF29C0683F20F084E0808F28
:101D70006370F4CF603F20F083E0808F6770EECF18
:101D8000603E20F082E0808F6F70E8CF262F30E039
:101D9000603C98F081E0808F6F71E0CF8150808F40
:101DA0002289338996E0220F331F9A95E1F76F73EA
:101DB000262B338B228B8111D4CFC90108952FEFAD
:101DC0003FEFFBCF0F93FC01E05CFF4F0190F081F0
:101DD000E02D4E1B5F0BDC01D496ED91FC91099533
:101DE0000F910895CF93DF93FC01A081B18182AD63
:101DF00090E09C0143E0220F331F4A95E1F737AF93
:101E000026AF50962C91509748E0249F90011124C2
:101E100035AF24AF23AD30E0B90153E0660F771F33
:101E20005A95E1F7EF01C05CDF4F798368835196E3
:101E30004C915197E901C80FD91F50E04C175D072D
:101E400018F4CA01821B930BEF01CE5BDF4F79833D
:101E50006883229623E0880F991F2A95E1F7860F61
:101E6000971F99838883229654968D919C915597BC
:101E700099838883E85BFF4F56968D919C9191835F
:101E80008083DF91CF9108950F931F93FC01E25B54
:101E9000FF4F0190F081E02DDC01A05BBF4F0D9062
:101EA000BC91A02D4A175B0740F4E017F10748F0FA
:101EB0000417150730F080E019C0E017F107C0F3F0
:101EC000FACFFC01E65BFF4F40815181845B9F4F5D
:101ED000FC01808191816817790758F481E04217ED
:101EE000530720F081E02617370728F71F910F913D
:101EF000089542175307B0F3DECF2F923F924F92CF
:101F00005F926F927F928F929F92AF92BF92CF9289
:101F1000DF92EF92FF920F931F93CF93DF93CDB792
:101F2000DEB72A970FB6F894DEBF0FBECDBF9A87F3
:101F30008987865B9F4F9A838983FC011182108277
:101F4000E985FA85EA5BFF4F4080518029853A8513
:101F5000245B3F4F3C832B83F90151824082E9850A
:101F6000FA85EE5BFF4F2080318029853A85225B20
:101F70003F4F3E832D83F90131822082E985FA8526
:101F8000EC5BFF4F6080718029853A85205B3F4F75
:101F900038872F83F90171826082E985FA85E85AD2
:101FA000FF4FE080F180E985FA85EC5AFF4FA08071
:101FB000B180E985FA85EA5AFF4FC080D180E98572
:101FC000FA85EE5AFF4F8080918087019501A60126
:101FD000B40189859A850E94440F29853A852C573A
:101FE0003F4F3A87298781111BC0F90110822A9639
:101FF0000FB6F894DEBF0FBECDBFDF91CF911F911A
:102000000F91FF90EF90DF90CF90BF90AF909F9097
:102010008F907F906F905F904F903F902F9008959A
:1020200081E0E985FA8580838114910421F0E981BA
:10203000FA8191828082A414B50420F4EB81FC81A2
:10204000B182A0822C143D0420F4ED81FE81D18266
:10205000C082E614F70458F6EF81F885F182E08239
:10206000C6CF0F93CF93DF93E02FDC01AC57BF4F68
:10207000FC91FF2309F460C02115310509F45CC00F
:102080002230310538F0023009F04AC06F5F7F4FCF
:10209000621B730B0E2F0170E0FD52C0FC01E25B6E
:1020A000FF4F0190F081E02D4E175F0708F444C008
:1020B000FC01E05BFF4F0190F081E02D4E175F07C0
:1020C000D8F5FC01E45BFF4F0190F081E02DDC01CD
:1020D000A65BBF4F0D90BC91A02D260F371F261772
:1020E000370738F56E177F0718F59F012150310922
:1020F000A217B30708F56A177B0708F4BD012E176E
:102100003F0708F4F901E61BF70BEC01AEA9BFA9E4
:1021100014960D90BC91A02D9F01FD0109950CC056
:10212000033009F0B7CF4F5F5F4F421B530BB2CF65
:10213000BD016E177F07E0F2DF91CF910F910895F7
:10214000FC01E65BFF4F0190F081E02D6E177F07E9
:1021500098F3FC01E45BFF4F0190F081E02D6E17D6
:102160007F0750F7FC01E05BFF4F0190F081E02D0D
:10217000DC01A25BBF4F0D90BC91A02D240F351F39
:1021800024173507A8F44E175F0788F49F012150E4
:102190003109A217B30780F64A175B0708F4AD01AF
:1021A0002E173F0708F4F901E41BF50BAECFAD0184
:1021B0004E175F0708F6EDCF5F926F927F928F9276
:1021C0009F92AF92BF92CF92DF92EF92FF920F93C6
:1021D0001F93CF93DF93EC016A017C01E60EF71E9B
:1021E00087012CE430E0AC0164E370E08BEF93E016
:1021F0000E94440F882309F43DC04E018FEF881AD6
:10220000980A84012CE430E0AE0164E370E08BEFC7
:1022100093E00E94440F882329F1509085045601D1
:1022200084E3682E712C11E0F5018491812391F1F2
:102230005092850400E021E030E0AE01B3018BEF65
:1022400093E00E943110FFEF6F1A7F0A110F21F403
:102250008FEFA81AB80A11E0ECE46E16710421F7AA
:1022600050928504F3E0CF0ED11CE401E814F90488
:1022700009F0C3CFDF91CF911F910F91FF90EF90A5
:10228000DF90CF90BF90AF909F908F907F906F9096
:102290005F900895809184048111D5CF81E0511021
:1022A00080E080938504C6CF213069F038F0223079
:1022B00079F0840F911D47FD9A950895860F911D21
:1022C00067FD9A950895841B910947FD939508959C
:1022D000861B910967FD93950895213069F038F0C8
:1022E000223079F0861B910967FD93950895840F3C
:1022F000911D47FD9A950895860F911D67FD9A954A
:102300000895841B910947FD939508953F924F923C
:102310005F926F927F928F929F92AF92BF92CF9275
:10232000DF92EF92FF920F931F93CF93DF937C0185
:10233000162F442EEC01C25ADF4F5E806F806C0175
:102340008AE8C80ED11C78847518312E711608F4ED
:10235000372C8C809D800E85202F462D652D8A81FF
:102360009B810E9454115C01202F462D652DC401D4
:102370000E946D11AC01442079F08C85F6018083B8
:10238000232D30E0B501C7010E943110171548F028
:1023900017196394512CD7CF8B858111F7CF8D8579
:1023A000EDCF150D1E836F82DF91CF911F910F919D
:1023B000FF90EF90DF90CF90BF90AF909F908F9065
:1023C0007F906F905F904F903F900895DC011A9638
:1023D0004C911A97ED91FC911197249130E0042EC5
:1023E00002C0359527950A94E2F7842F860F88302E
:1023F00068F031961196FC93EE93E49198E0941B6B
:1024000001C0EE0F9A95EAF72E2B88501A968C93FE
:102410008FEF9FEF01C0880F6A95EAF780958223BE
:1024200008950F931F93CF93DF938C01EC01C25A51
:10243000DF4F798368831A86FC01EF58FF4F608174
:10244000CE010E94E6118887F801EE58FF4F6081A7
:10245000CE010E94E6118987F801E657FF4F90816F
:102460009C8781E0911180E08D87DF91CF911F9152
:102470000F910895CF93C62F0E94E611C15021E01D
:1024800030E001C0220FCA95EAF7821BCF91089570
:10249000FC01E60FF11D849190E0982F882731967A
:1024A000E4918E0F911D0895CF93DF93EC01FC0111
:1024B0008491809368043196E491E0936904FE016D
:1024C0003296E491E0936A04FE013396E491E0933E
:1024D0006B04FE013496E491E0936C04FE013596A2
:1024E000E491E0936D04FE013696E491E0936E046E
:1024F000FE013796E491E0936F04FE013896E49173
:10250000E0937004FE013996E491E0937104FE01BA
:102510003A96E491E0937204FE013B96E491E093D5
:102520007304FE013C96E491E0937404FE013D9631
:10253000E491E0937504FE013E96E491E093760405
:10254000FE013F96E491E0937704FE017096E491DA
:10255000E093780461E1CE010E94481290937A04DE
:102560008093790463E1CE010E94481290937C0429
:1025700080937B0465E1CE010E94481290937E0413
:1025800080937D04DF91CF910895EF92FF920F9396
:102590001F93CF93DF93FC01E65AFF4F20813181D7
:1025A000295E3F4F6F3F710509F048F561367105AF
:1025B000D8F080589F4FFC0180819181280F391FEE
:1025C000C9010196FC014491442309F447C0F90173
:1025D00044914617170671F40196DF91CF911F9130
:1025E0000F91FF90EF9008956134710548F3825880
:1025F0009F4FE1CFFC018491280F311DE1CF8B016A
:10260000FC01EE57FF4FC081D181C20FD31F7E0165
:1026100060E0C7010E944812C80FD91F62E0C701DD
:102620000E944812F4E0EF0EF11C8017910780F32E
:10263000FE01849190E0982F88273196E4918E2BAB
:10264000009761F00817190719F4CE010396C5CF5A
:10265000FE013296E491CE0FD11DEACF90E080E0EA
:10266000BCCFCF92DF92FF920F931F93CF93DF9354
:1026700010926104109213046C0180ECF82E10E0AB
:1026800000E0D0E0C0E0F60161916F01E091FD0350
:10269000F091FE038BEF93E009958F3F980789F146
:1026A0008E3F2FEF920779F3BC018BEF93E00E94EE
:1026B000C512009721F1BC018BEF93E00E9411122B
:1026C00060916E0489E594E00E943A12809383043D
:1026D00060916F0489E594E00E943A126091700461
:1026E00089E594E00E943A12082F880F110B80ECC4
:1026F000F81202C0F0908304C00FD11FC4CF80E055
:10270000F3CF20916104222399F080918304022E5B
:10271000000C330B280F311D87FD3A95C20FD31FD4
:10272000C01BD10B1F1424F4CF0DD11DF7FCDA957B
:10273000CE01DF91CF911F910F91FF90DF90CF904D
:1027400008958F929F92AF92BF92CF92DF92EF92B5
:10275000FF920F931F93CF93DF93EC017B018A01CC
:102760006901FC01E459FF4F8081813009F46FC099
:1027700008F462C0823009F475C0833009F47DC06A
:10278000FE01E05AFF4FF182E0823296118300830E
:10279000B601CE010E94C512009709F4FFC07E0168
:1027A0002EE5E20EF11CBC01CE010E941112FE01C9
:1027B000E959FF4FB0803C966081C7010E943A12F0
:1027C000882EFE01EC58FF4F6081C7010E943A122B
:1027D000082FFE01EB58FF4F6081C7010E943A129B
:1027E000A82EF701908419140CF090C016850B0DDB
:1027F0000195212F402F682D828193810E945411D1
:102800006C01F70193838283212F402F682D8481EF
:1028100095810E946D11AC01F7019583848311307D
:1028200009F484C0A8F1123009F491C0133009F4FE
:10283000A4C08C01960136C0FE01E45AFF4F0190FE
:10284000F081E02DCE010995080F191F99CFFE01E7
:10285000E45AFF4F0190F081E02DCE010995E81A6E
:10286000F90A8ECFFE01E45AFF4F0190F081E02D6E
:10287000CE010995081B190B83CFFE01E45AFF4FC7
:102880000190F081E02DCE010995E80EF91E78CF78
:102890009601290D311D97FC3A958C010B0D111DE8
:1028A000B7FC1A95B601CE010E94440F882371F13E
:1028B000F701168217828E0101591F4F6E01F0E752
:1028C000CF0ED11CF8016081C7010E94E611882E4D
:1028D000F6016081C7010E94E611982E40E0682D44
:1028E000CE010E94861141E0692DCE010E94861121
:1028F00061E0C7010E94E6118111F0CFF7018781E5
:102900008B1504F3C657DF4F848588838A2DAA0C64
:10291000990BDF91CF911F910F91FF90EF90DF9076
:10292000CF90BF90AF909F908F90089581E090E0FE
:102930008B199109B7FC939596012F5F3F4F8A0140
:10294000090D111D97FC1A95C80ED91EABCF81E059
:1029500090E0BC016919710997FC739596012F5F8E
:102960003F4F8B199109B7FC93958A010F5F1F4F59
:10297000480F591FC60ED71E95CF96012B0D311D3E
:10298000B7FC3A9581E090E08919910997FC9395FD
:102990008A010F5F1F4F480F591F84CF90E080E0DE
:1029A000B8CFCF92DF92EF92FF920F931F93CF9306
:1029B000DF938C01109213047B01D12CC12CC1E157
:1029C000D0E0F70161917F01E091FD03F091FE03FA
:1029D0008BEF93E009958F3F980719F18E3F2FEF0A
:1029E000920779F39C01AE01B8018BEF93E00E944E
:1029F000A11320916704213059F038F0223059F0AA
:102A0000233061F0C80ED91EDCCF080F191FFACF92
:102A1000C80FD91FF7CF081B190BF4CFC81BD90B50
:102A2000F1CFC601DF91CF911F910F91FF90EF90F1
:102A3000DF90CF9008952F923F924F925F926F92C6
:102A40007F928F929F92AF92BF92CF92DF92EF923E
:102A5000FF920F931F93CF93DF93CDB7DEB72F97DE
:102A60000FB6F894DEBF0FBECDBF2C017B0181EA0B
:102A70009EE09093FE038093FD03CB010E943113EF
:102A80006C01019696958795481A590A22E1C2165B
:102A9000D10408F0EAC042E150E04C195D095695B6
:102AA00047955A83498372E1C72ED12C81E08093E8
:102AB000640481EA9EE09093FE038093FD03B701D6
:102AC000C2010E94D11489819A81481A590A8091C1
:102AD0008104909185049F83082E000C990B20910E
:102AE00082043C01621A710827FD739428E0620E8B
:102AF000711C33E0E32EF12C21E130E0A901481BE9
:102B0000590B59874887C60101969C01240D351D34
:102B10003B872A87A2014C0D5D1D5D874C875201C2
:102B2000AE18BF08C701880F991F9C012C0D3D1DD1
:102B30003A832983E0915704F09158048BEF93E096
:102B4000099528843984280E391EA701409550958F
:102B5000420D531D5F874E8751E0E51AF10809F4D5
:102B60008CC08E859F85860D971D9E838D832A85BB
:102B70003B852E0D3F1D3C832B838C014E855F854D
:102B8000B5018BEF93E00E94440F8823E9F100E048
:102B900029813A814E855F85B5018BEF93E00E94D4
:102BA000311032E06316710478F1430142E0841A77
:102BB00091088E859F8501969F878E878114910449
:102BC000C9F001E09401AC01B5018BEF93E00E94E4
:102BD000311094014E855F856C857D856E0D7F1D5E
:102BE0008BEF93E00E9431102E853F85280D391D13
:102BF0003F872E8700E029813A814E855F85B501A8
:102C00008BEF93E00E9431108F810E94010832E027
:102C1000E316F10431F541E050E05F874E8751E063
:102C2000251A31084D815E812E853F85420F531F45
:102C300000E029813A81B2018BEF93E00E943110CC
:102C40006B817C814E855F85640F751F01E0930168
:102C5000A1018BEF93E00E9431108E859F85029732
:102C600039F492E0691A71085ACF1A8219821ECF7C
:102C700082E090E09F878E87D5CF2F960FB6F8948D
:102C8000DEBF0FBECDBFDF91CF911F910F91FF909F
:102C9000EF90DF90CF90BF90AF909F908F907F90FC
:102CA0006F905F904F903F902F900895CF92DF925A
:102CB000EF92FF920F931F93CF93DF93EC01962F28
:102CC000683109F44BC0B901993130F49431C9F03D
:102CD000973189F080E006C0993109F461C09032E3
:102CE000C9F781E0DF91CF911F910F91FF90EF9095
:102CF000DF90CF90089550E085EA92E00E94E508C9
:102D0000F0CF8C859D85AE85BF85892B8A2B8B2B3B
:102D100071F4E881F981A585B0E020EA36E841E068
:102D200050E00E948D286C877D878E879F87109248
:102D30002A021092290210922C0210922B020E9459
:102D4000E30A89EB98E090935402809353028AEB54
:102D500098E09093580280935702C3CF2C853D850D
:102D60004E855F8560E074E284EF90E00E94A028C9
:102D700020513109410951095695479537952795B5
:102D80002093B8008E8990E09595879591E0909377
:102D900008028093D20110922C0210922B02A1CF34
:102DA000D0912B02D13208F093C0C091D2010E9481
:102DB0005E0B6B017C0180917B02811164C082E01B
:102DC00080937B0281E080937D028FEF80937A0273
:102DD00010929F02D0939E02A8EEB1E0EEE7F2E0DF
:102DE00080E0D8137CC01092A0028091A002CC0F8A
:102DF000C82BC093A00280917C02813009F073C07F
:102E000010927C020E945E0B6B017C018091A002FB
:102E10008093BB0080912E0290912F02A0913002EE
:102E2000B0913102892B8A2B8B2B99F00E945E0B7B
:102E300000912E0210912F02209130023091310228
:102E40006C197D098E099F0906171707280739078E
:102E5000D8F18091BC0083FDD9CF85EC8093BC0074
:102E60000E945E0B6B017C0180917B028230E9F154
:102E700080917A028F3F61F180917A02803241F134
:102E800080917A0225C080912E0290912F02A0910C
:102E90003002B0913102892B8A2B8B2B09F48BCF16
:102EA0000E945E0B00912E0210912F0220913002A1
:102EB000309131026C197D098E099F090617170799
:102EC0002807390708F077CF80912D020E94010B67
:102ED00010922C0210922B021092080202CF9D91A8
:102EE00091938F5F7ECF85EEB9CF80912E02909126
:102EF0002F02A0913002B0913102892B8A2B8B2BAB
:102F000009F4B2CF0E945E0B00912E0210912F02A5
:102F100020913002309131026C197D098E099F0990
:102F2000061717072807390708F09ECFCDCF8F92D5
:102F30009F92AF92BF92CF92DF92EF92FF92CF9388
:102F4000DF937C01C62F6C32B0F46A32E8F5683248
:102F500049F1693209F444C080E0C034B0F1CF7364
:102F6000F701EC0FF11D868D8F3F71F1C03108F034
:102F70006DC0642F14C06D3209F456C068F384EB41
:102F8000860F823048F7CF73CE0DDF2DD11D8E8D89
:102F9000411158C061E00E94220B60E08E8D0E94BA
:102FA000930912C02EE1E20EF11CD0E0F7018191ED
:102FB0007F018F3F31F061E0D03108F062E00E9484
:102FC000220BDF5FD63191F781E0DF91CF91FF9047
:102FD000EF90DF90CF90BF90AF909F908F9008952B
:102FE000C42ED12CF12CE12C0E945E0B4B015C0114
:102FF000C114D104E104F10439F30E945E0B681995
:1030000079098A099B09683E73408105910580F31F
:10301000F1E0CF1AD108E108F10828EE820E23E092
:10302000921EA11CB11CE4CF85E090E0433010F06B
:1030300082E090E0880F991F880F991F05970197EC
:10304000F1F7C2CF62E00E94220BBECF0E946A0954
:1030500021E0892B09F420E0F701218FB5CFFC0195
:10306000E55CFE4F2081318123303105E9F038F4F1
:103070002130310561F02230310589F00895253085
:103080003105F1F0D0F029303105E9F008951182D1
:103090001082835C9E4FFC0131832083089521E0E0
:1030A00030E031832083F5CF22E030E0318320838C
:1030B000835C9E4F21E030E0EECF23E030E0F6CF9E
:1030C00024E030E0F3CF25E030E0F0CFDC01A55C78
:1030D000BE4FED91FC911197EA30F105B8F4ED582F
:1030E000F74E0C94DD287D188718901893189618C1
:1030F00099188618861886187D1821E030E02D93DF
:103100003C93835C9E4FFC0131832083089522E031
:1031100030E02D933C93835C9E4F21E030E0F3CF71
:1031200023E030E0F6CF24E030E0F3CF25E030E0DC
:10313000F0CF29E030E0EDCFCF92DF92EF92FF9217
:103140000F931F93CF93DF936C01EB017B01E40E90
:10315000F51E10E000E0CE15DF0561F06991D601A3
:10316000ED91FC910190F081E02DC6010995080FC9
:10317000191FF1CFC801DF91CF911F910F91FF90DF
:10318000EF90DF90CF900895CF92DF92EF92FF9271
:103190000F931F93CF93DF93EC016C0124E0C20ED9
:1031A000D11CFC01E057FF4F0190F081E02DC601DA
:1031B00009958E3FEFEF9E07D8F48E010C561F4FF6
:1031C000F801408151817E01F2E9EF0EF11CF70117
:1031D000608171819C01C6010E94A113C059DF4F1B
:1031E00028812130C1F078F02230B9F02330E9F0A5
:1031F00081E090E0DF91CF911F910F91FF90EF90D0
:10320000DF90CF900895F70120813181820F931FC5
:1032100091838083EDCFF801F7CFF70120813181D1
:10322000281B390B31832083E3CFF801F7CFDC0172
:10323000ED91FD918081ED91FD919081ED91FD9158
:103240006C9163708E2309F064609F2309F06860BD
:10325000E4E3F9E1E60FF11D659565956D936D91D8
:103260007D918D919D91099423C01AC012C016C002
:1032700010C01EC009C014C013C006C019C009C0C8
:103280000DC007C00DC014C0625070408040904017
:103290000BC0615070408040904006C06E5F01C01E
:1032A0006F5F7F4F8F4F9F4F9E938E937E936E9352
:1032B000089580914E0390914F030C9417198091BB
:1032C0005003909151030C941719089590E080E0F9
:1032D0000895E7EFF3E0A481B58150962C9186AD77
:1032E00038E0839FC0011124289FA001299F500D21
:1032F000112470E060E084AD95AD0C94E328CF9389
:103300000E946107C091360480913504C80FE09196
:10331000FB03F091FC038189C81770F0E091FF0373
:10332000F091000430E020E040E060E18BEF93E0BA
:10333000099580E0CF9108958091860481110E94C3
:1033400069198C2F0E944A0781E0F4CF809186048E
:1033500081110E94691980E00C944A07EF92FF9254
:103360000F931F93CF93DF9300D01F92CDB7DEB79B
:103370007C018B0119821A821B82809155049091E5
:10338000560482589C4051F082E89CE09093560489
:10339000809355040E9454120E94C60782E0E816EA
:1033A000F104A9F123E0E216F10409F441C0EA9422
:1033B000EF28E1F00F3F100741F0802F0E9408082E
:1033C000BC01CE0101960E94EA28BE016F5F7F4FCB
:1033D00081E190E00E941B150F900F900F90DF91FC
:1033E000CF911F910F91FF90EF9008950F3F10071D
:1033F00041F0802F0E940808BC01CE0101960E9476
:10340000EA28BE016F5F7F4F81E390E0E3CF0F3F7B
:10341000100741F0802F0E940808BC01CE010196E0
:103420000E94EA28BE016F5F7F4F81E590E0D2CF16
:103430000F3F100741F0802F0E940808BC01CE0109
:1034400001960E94EA28BE016F5F7F4F81E790E0FE
:10345000C1CF85ED8093BC0080912E0290912F0208
:10346000A0913002B09131020796A11DB11D23E059
:10347000B695A795979587952A95D1F72091BC0089
:1034800024FD03C010927B02089540912E025091BA
:103490002F026091300270913102452B462B472B51
:1034A00069F30097A105B10541F02AE22A95F1F7E9
:1034B00000C00197A109B109E1CF80912D020C94C0
:1034C000010B1F920F920FB60F9211242F933F936F
:1034D0004F935F936F937F938F939F93AF93BF931C
:1034E000EF93FF938091B900887F803609F44AC03A
:1034F000F0F5883209F4A7C018F5803109F49BC0B3
:10350000B8F4882309F4F9C0883009F494C0FF9115
:10351000EF91BF91AF919F918F917F916F915F914B
:103520004F913F912F910F900FBE0F901F901895C4
:10353000883109F488C0803251F780937A0214C030
:10354000803409F49DC040F48033B9F38833F9F630
:1035500080937A0285ECB0C0803509F485C0883547
:1035600009F496C0883499F60E94291AD0CF883978
:1035700009F48CC038F5883729F050F4883611F0FA
:10358000803729F683E080937B021092790257C03E
:10359000883809F47BC0803919F0803809F0B7CF3A
:1035A00080917902803208F071C0E091790281E067
:1035B0008E0F809379028091BB00F0E0E75AFD4FB7
:1035C00080833DC0803B39F0E0F4803A09F479C053
:1035D000883A09F09CCF84E080937B0210925602D7
:1035E00010925502E0915302F09154020995809196
:1035F000550281110FC081E0809355021092330271
:1036000009C0803C09F4A6CF883C09F4A3CF883BCD
:1036100009F07DCFE091560281E08E0F8093560233
:10362000F0E0ED5CFD4F80818093BB0090915602ED
:103630008091550229C08091A0028093BB0085EC47
:103640008093BC0064CF90919F0280919E02981756
:1036500058F5E0919F0281E08E0F80939F02F0E089
:10366000E258FD4F8081E9CFE0919F0281E08E0F0B
:1036700080939F028091BB00F0E0E258FD4F808371
:1036800090919F0280919E029817C8F285E8D8CF4A
:10369000E0919F0281E08E0F80939F028091BB009A
:1036A000F0E0E258FD4F808380917D0281115CCF74
:1036B00081E080937C0284EA8093BC0010927B02BC
:1036C00026CF85EC8093BC0010927B02809179021A
:1036D000803230F4E0917902F0E0E75AFD4F108239
:1036E0006091790270E0E0915702F091580289E50B
:1036F00092E00995109279020ACF10927A0234CFA3
:103700001F920F920FB60F9211242F933F938F9316
:103710009F93AF93BF938091E0019091E101A091BD
:10372000E201B091E3013091DF0123E0230F2D3757
:1037300058F50196A11DB11D2093DF018093E00192
:103740009093E101A093E201B093E3018091E40141
:103750009091E501A091E601B091E7010196A11DCC
:10376000B11D8093E4019093E501A093E601B0932D
:10377000E701BF91AF919F918F913F912F910F9052
:103780000FBE0F901F90189526E8230F0296A11DDB
:10379000B11DD2CF1F920F920FB60F9211242F930B
:1037A0003F934F935F936F937F938F939F93AF93C9
:1037B000BF93EF93FF93E0910201F091030109950C
:1037C000FF91EF91BF91AF919F918F917F916F91F9
:1037D0005F914F913F912F910F900FBE0F901F90CF
:1037E00018951F920F920FB60F9211242F933F93AB
:1037F0004F935F936F937F938F939F93AF93BF93F9
:10380000EF93FF93E0910001F09101010995FF9181
:10381000EF91BF91AF919F918F917F916F915F9148
:103820004F913F912F910F900FBE0F901F901895C1
:103830001F920F920FB60F9211242F933F934F9325
:103840005F936F937F938F939F93AF93BF93EF9308
:10385000FF9381EB92E00E940E0CFF91EF91BF91DC
:10386000AF919F918F917F916F915F914F913F9118
:103870002F910F900FBE0F901F9018951F920F92CF
:103880000FB60F9211242F938F939F93EF93FF9373
:10389000E091C102F091C2028081E091C702F091F3
:1038A000C80282FD1BC090818091CA028F5F8F7316
:1038B0002091CB02821741F0E091CA02F0E0EF5470
:1038C000FD4F958F8093CA02FF91EF919F918F9149
:1038D0002F910F900FBE0F901F9018958081F4CFFD
:1038E0001F920F920FB60F9211242F933F934F9375
:1038F0005F936F937F938F939F93AF93BF93CF9378
:10390000DF93EF93FF938091D401C0917603D0E0D1
:1039100087FF24C010928500109284008091D4010A
:103920008F5F8093D4018091D401082E000C990BF5
:103930008C179D0724F48091D4018C30C4F18091C0
:10394000840090918500049680349C4908F47AC0E4
:103950008091840090918500049676C08091D40176
:10396000082E000C990B8C179D07C4F6E091D4012A
:103970008E2FEE0F990BFC01EE0FFF1FE80FF91FC2
:10398000EE5AFC4F808186FFC9CFE091D4018E2F83
:10399000EE0F990BFC01EE0FFF1FE80FF91FEE5A17
:1039A000FC4F808160E08F730E949309B7CF209114
:1039B000840030918500E091D4018E2FEE0F990B99
:1039C000FC01EE0FFF1FE80FF91FEE5AFC4F81813B
:1039D0009281820F931F9093890080938800E091D9
:1039E000D4018E2FEE0F990BFC01EE0FFF1FE80F95
:1039F000F91FEE5AFC4F808186FF11C0E091D4017F
:103A00008E2FEE0F990BFC01EE0FFF1FE80FF91F31
:103A1000EE5AFC4F808161E08F730E949309FF9101
:103A2000EF91DF91CF91BF91AF919F918F917F9156
:103A30006F915F914F913F912F910F900FBE0F901B
:103A40001F90189580E49CE99093890080938800EA
:103A50008FEF8093D401E3CFCF93DF931092A8022E
:103A60001092A70288EE93E0A0E0B0E08093A90254
:103A70009093AA02A093AB02B093AC0229E731E085
:103A80003093A6022093A5021092B4021092B302C2
:103A90008093B5029093B602A093B702B093B80298
:103AA0008BE891E09093B2028093B10285EC90E0B4
:103AB0009093BE028093BD0284EC90E09093C0028C
:103AC0008093BF0280EC90E09093C2028093C10289
:103AD00081EC90E09093C4028093C30282EC90E06A
:103AE0009093C6028093C50286EC90E09093C80242
:103AF0008093C7021092CA021092CB021092CC029D
:103B00001092CD021092FA031092F9038EEC96E017
:103B1000909388048093870410928A0410928904F9
:103B200010928C0410928B04109213048DE991E092
:103B30009093F8038093F7031092FC031092FB0319
:103B400010921004109207041092080410920904B5
:103B500010920A048FEF8093110480931504E9E119
:103B6000F4E08FE294E0CFEFC1938E179F07E1F767
:103B700082E49DE0909300048093FF0387E39EE03E
:103B8000909302048093010486E596E190930404E7
:103B90008093030487E997E19093060480930504DA
:103BA00030E020E040E069E08BEF93E00E94420DBE
:103BB000109256041092550488ED96E090933004CC
:103BC00080932F0487E793E0909334048093330429
:103BD00081E08093350410923604109264041092B0
:103BE000840410928004809385048093860485EA7F
:103BF00091E090933204809331048BEF93E00E9424
:103C0000F20E10924E0410924D0410925204109233
:103C100051048FEF9FEF9093500480934F04909343
:103C2000540480935304E0913104F09132040280F3
:103C3000F381E02D8BEF93E0099587E497E0909373
:103C400058048093570410926704C0932404C093CF
:103C50002504C093260410928E0410928D04EFE880
:103C6000F4E088E0DF011D928A95E9F7109298044C
:103C70001092970410929A041092990410929C0446
:103C800010929B0410929E0410929D041092A00426
:103C900010929F041092A1041092A2041092A30407
:103CA0001092A4041092A5041092A6041092A704E6
:103CB0001092A8041092AA041092A9041092AB04C6
:103CC0001092AC041092AD041092AE041092AF04A6
:103CD0001092B0041092B1041092B20488EC90E0FB
:103CE000A0E0B0E08093B3049093B404A093B50433
:103CF000B093B6041092B8041092B7048091760382
:103D00008C3008F088C191E0980F909376038093EF
:103D1000B90490E0FC01EE0FFF1FE80FF91FEE5A07
:103D2000FC4F88EB9BE0928381831092BD0410923C
:103D3000BC041092C1041092C2041092C3041092E9
:103D4000C4041092C5041092C6041092C7041092C5
:103D5000C8041092C9041092CA041092CB041092A5
:103D6000CC041092CE041092CD041092CF04109285
:103D7000D0041092D1041092D2041092D404109264
:103D8000D3041092D6041092D50462E082E00E941F
:103D9000220B62E083E00E94220BE8E4F4E0E4916D
:103DA000F0E0EE0FFF1FE45CFB4FA591B491B093E0
:103DB000D804A093D704EAE2F4E044914093DB04F2
:103DC000E9E4F4E0E491F0E0EE0FFF1FE45CFB4F68
:103DD000C591D491D093DA04C093D904EBE2F4E016
:103DE000E491E093DC041092DE041092DF04109260
:103DF000E0041092E1042BE33FE1C9010197F1F7E0
:103E00009C91842F892391E009F490E08881E82334
:103E100009F092609093DD0427ED34E030934F0376
:103E200020934E0389E599E190930101809300016D
:103E3000809169008C7F816080936900E89A81E0BD
:103E40008093E20430935103209350038FE599E16E
:103E5000909303018093020180916900837F8460C5
:103E600080936900E99A82E08093E20482E390E023
:103E70009093E6048093E50480E991E09093E80450
:103E80008093E70480E293E09093EA048093E9044E
:103E900088EE93E09093EC048093EB041092EE0490
:103EA0001092ED041092F0041092EF041092F204BC
:103EB0001092F1041092F4041092F3041092F6049C
:103EC0001092F5041092F8041092F7041092FA047C
:103ED0001092F9041092FC041092FB041092FE045C
:103EE0001092FD04109200051092FF04109202053A
:103EF0001092010510920405109203051092060518
:103F000010920505109208051092070510920A05F7
:103F10001092090510920C0510920B0510920E05D7
:103F200010920D051092100510920F0510921205B7
:103F30001092110510921405109213051092160597
:103F400010921505109217058FEF9FEF90931905AA
:103F50008093180590931B0580931A0510921C05F9
:103F600010921D0510921E0510921F05109220053B
:103F7000109221051092220510922305109224051B
:103F800010922505109226051092270510922905FA
:103F90001092280581E090E090932B0580932A05EC
:103FA00010922D0510922C0510922E0510922F05BF
:103FB000109230051092310584E090E09093E40473
:103FC0008093E30462E00E94220B10923505109268
:103FD0003405E6E3F5E088E0DF011D928A95E9F714
:103FE00010923F0510923E0589E19CEFAFEFBFEFC5
:103FF0008093400590934105A0934205B0934305FB
:1040000010924405109245051092460510924705FE
:10401000DF91CF910895C093B90487CE789484B589
:10402000826084BD84B5816084BD85B5826085BDB4
:1040300085B5816085BD80916E00816080936E0042
:104040001092810080918100826080938100809134
:1040500081008160809381008091800081608093E5
:1040600080008091B10084608093B1008091B000A5
:1040700081608093B00080917A00846080937A00A0
:1040800080917A00826080937A0080917A008160CA
:1040900080937A0080917A00806880937A001092F1
:1040A000C100E091C102F091C20282E08083E09100
:1040B000BD02F091BE021082E091BF02F091C002F9
:1040C00087E680831092C902E091C502F091C60292
:1040D00086E08083E091C302F091C4028081806118
:1040E0008083E091C302F091C40280818860808364
:1040F000E091C302F091C402808180688083E091E6
:10410000C302F091C40280818F7D808362EA73E0F4
:1041100081EB92E00E947D0C69E673E081EB92E016
:104120000E947D0C6CEF72E081EB92E00E947D0CAE
:1041300080E89AE1A6E0B0E0809307049093080439
:10414000A0930904B0930A04E091FF03F0910004E6
:1041500030E020E040E06AE08BEF93E009950E94B8
:10416000A6190E947F198111FCCF0E944A07E09195
:10417000FF03F091000430E020E040E06BE08BEFC3
:1041800093E009956EED72E081EB92E00E947D0C68
:1041900010928E0410928D040E94B9070E94B907F4
:1041A0008091B9048C3008F050C061E086E00E9434
:1041B000220BE091B9048E2F90E0DC01AA0FBB1F07
:1041C000A80FB91FAE5ABC4F8C91807C86608C932F
:1041D0001092BA041092BB042CE08E2F622F0E9422
:1041E000D128829FB001112430E020E0AB01420FC2
:1041F000531FDA01AA0FBB1FA40FB51FAE5ABC4F45
:104200009C9196FD16C02F5F3F4F2C30310571F702
:1042100081110FC01092800082E080938100109283
:10422000850010928400B19A80916F008260809323
:104230006F008E2F90E0FC01EE0FFF1FE80FF91FBB
:10424000EE5AFC4F80818064808389E090E00E9478
:10425000250868EC72E081EB92E00E947D0C61E041
:1042600089E00E94220B61E08AE00E94220B61E05B
:104270008FE00E94220B61E08EE00E94220B61E041
:1042800081E10E94220B61E080E10E94220B61E04B
:104290008BE00E94220B61E08CE00E94220B68EA16
:1042A00072E081EB92E00E947D0CC7EFD3E081E0E9
:1042B00090E09093D4048093D30463E573E081EBA2
:1042C00092E00E947D0C86E698E19093F204809340
:1042D000F104D093F404C093F3048FE298E1909337
:1042E000F8048093F704D093FA04C093F904809102
:1042F0002A0590912B058230910514F482E090E01C
:1043000090932B0580932A0563E373E081EB92E0A1
:104310000E947D0C60E173E081EB92E00E947D0CD5
:10432000109233051092320581E090E090933505AC
:104330008093340522E030E03093BD042093BC0428
:104340001092C0041092BF0440ED57E060E070E0AE
:104350004093C1045093C2046093C3047093C40497
:104360009093D6048093D50462E873E081EB92E0E9
:104370000E947D0C93E0292E312C2DE7822E912C6A
:10438000A12CB12CC1E0D0E002E010E08091E20469
:10439000823008F004C1F89487ED94E00E94171968
:1043A0008091DE049091DF04A091E004B091E104DB
:1043B00078948093440590934505A0934605B09367
:1043C00047058091400590914105A0914205B0912B
:1043D0004305409144055091450560914605709113
:1043E00047050396A11DB11D84179507A607B707BA
:1043F000CCF08091400590914105A0914205B0918B
:1044000043054091440550914505609146057091E2
:1044100047050397A109B109481759076A077B07A0
:104420000CF054C0409144055091450560914605FB
:10443000709147058091400590914105A0914205FA
:10444000B0914305481759076A077B076CF08091C4
:104450003205909133058330910509F4C4C008F00A
:10446000A0C0029709F4B0C04091440550914505A1
:1044700060914605709147058091400590914105F6
:10448000A0914205B0914305481759076A077B0779
:104490006CF480913205909133058330910509F4D5
:1044A000E0C008F0BAC0029709F4CBC0809144057F
:1044B00090914505A0914605B09147058093400530
:1044C00090934105A0934205B09343058091E30486
:1044D0009091E40497FD37C10E946A097C010E9413
:1044E000830B6093200570932105809322059093A0
:1044F000230520911A0530911B05E216F30609F0F9
:10450000CCC040901C0550901D0560901E05709019
:104510001F059B01AC0124193509460957092901DA
:104520003A012091E5043091E60450E040E0421663
:1045300053066406750620F0F0921905E0921805FE
:10454000E0901805F0901905C090ED04D090EE04AD
:104550004090240550902505609026057090270511
:104560009B01AC01241935094609570929013A0173
:1045700020911505309116052230310509F435C119
:104580000CF098C02115310509F4A9C0213031057E
:1045900009F4F6C01092160510921505D4C0F894CF
:1045A000FFCE8430910561F1059709F05DCF8091D0
:1045B000950490919604009709F456CF0197909333
:1045C0009604809395040CC080918F049091900480
:1045D000009709F449CF01979093900480938F043A
:1045E0000E94B90741CF8091910490919204009765
:1045F00009F43ACF01979093920480939104F0CFFD
:104600008091930490919404009709F42DCF019721
:104610009093940480939304E3CF8430910579F1CF
:10462000059709F043CF80919504909196048336C5
:10463000910509F43BCF01969093960480939504DD
:104640000DC080918F04909190048336910509F4F8
:104650002DCF01969093900480938F040E94B90708
:1046600025CF80919104909192048336910509F4AD
:104670001DCF01969093920480939104EFCF809187
:104680009304909194048336910509F40FCF019619
:104690009093940480939304E1CF60931C057093EE
:1046A0001D0580931E0590931F05F0921B05E09257
:1046B0001A0546CF2630310509F40CC127303105E3
:1046C00009F44FC12330310509F064CFCE14DF0463
:1046D00009F099C0D0931605C093150558C0809174
:1046E0001705811115C08091EB049091EC04B0E0A6
:1046F000A0E084159505A605B70550F4E0911305D3
:10470000F0911405309721F031E0309317050995A9
:10471000CE14DF04C1F4D0931605C0931505809123
:10472000200590912105A0912205B0912305809349
:10473000240590932505A0932605B0932705109294
:10474000290510922805809134059091350501972F
:1047500009F024C1E0913205F0913305EA30F1050A
:1047600008F018C1EA54FC4D0C94DD28C4240B2633
:104770001026152631264F26CA24CA24CA246D269F
:10478000CE14DF0469F010931605009315056093AD
:104790002405709325058093260590932705D3CF94
:1047A0008091E9049091EA04B0E0A0E084159505B9
:1047B000A605B70508F0C7CFE0910105F091020505
:1047C000309709F00995E0910305F09104053097C1
:1047D00029F08091050590910605099546E050E085
:1047E0005093160540931505AECF80912805909102
:1047F0002905019690932905809328053092160586
:1048000020921505A0CF809128059091290540910F
:10481000E7045091E80470E060E04416550666062F
:10482000770640F420912A0530912B0582179307D3
:1048300009F089CF8130910531F5E091EF04F091D5
:10484000F004309709F00995E091F104F091F20439
:104850008091F3049091F404309741F5109216057D
:104860001092150510922905109228050E94830BBD
:104870006093240570932505809326059093270562
:104880001092170560CF029799F4E091F504F0912A
:10489000F604309709F00995E091F704F091F804D7
:1048A0008091F9049091FA043097C1F20995D6CF1E
:1048B000E091FB04F091FC04309709F00995E09138
:1048C000FD04F091FE048091FF0490910005309763
:1048D00069F7C4CFCE14DF0439F087E090E09093FD
:1048E0001605809315052FCFC0902E05D0902F056B
:1048F000E0903005F0903105AB01BC014C195D0929
:104900006E097F0980912C0590912D05B0E0A0E003
:10491000481759076A077B0708F415CFE0910D0582
:10492000F0910E05309709F00995E0910F05F0918F
:104930001005309729F08091110590911205099585
:104940008091200590912105A0912205B091230529
:1049500080932E0590932F05A0933005B0933105D9
:10496000F2CEE0910705F0910805309709F009951E
:10497000E0910905F0910A05309709F46FCF809115
:104980000B0590910C0592CF10928E0410928D041D
:104990000E94B90710923505109234058091970452
:1049A000909198048130910541F5209199043091BE
:1049B0009A04232B11F590939A04809399040E94F2
:1049C000A61980918D0490918E048230910509F48E
:1049D00084C208F017C2009709F43FC2019709F496
:1049E0005BC20E947F198111ECCF10929804109243
:1049F000970410929A041092990480919B049091CC
:104A00009C048130910571F520919D0430919E04A4
:104A1000232B41F590939E0480939D040E94A61938
:104A200080918D0490918E04099781F4E091B704F0
:104A3000F091B804EE0FFF1FE959FE4F40815181FC
:104A400060E270E090E080E00E94DC100E947F193C
:104A50008111E6CF10929C0410929B0410929E0448
:104A600010929D040E94830B6093A1047093A20492
:104A70008093A3049093A404C090A504D090A604AE
:104A8000E090A704F090A8049B01AC012C193D090B
:104A90004E095F0969017A013BEFC316D104E104B5
:104AA000F104F0F020918D0430918E0422503109F0
:104AB00024303105A8F46093A5047093A604809374
:104AC000A7049093A8048091A9049091AA04019747
:104AD00009F452C2D093AA04C093A9040E94B90752
:104AE0000E94830B6093AB047093AC048093AD047D
:104AF0009093AE04C090AF04D090B004E090B104A5
:104B0000F090B2049B01AC012C193D094E095F09DC
:104B100069017A014090B3045090B4046090B504E8
:104B20007090B6044C145D046E047F0428F5209147
:104B30008D0430918E0429303105F1F46093AF0477
:104B40007093B0048093B1049093B20480919D045B
:104B500090919E04892B81F48091B7049091B804C0
:104B60008730910508F40DC248E650E060E270E03D
:104B700090E080E00E94DC108091BC049091BD0424
:104B80008130910509F4A2C2029709F404C20E947F
:104B9000830B6093C5047093C6048093C7049093FD
:104BA000C804C090C904D090CA04E090CB04F0902F
:104BB000CC049B01AC012C193D094E095F09690128
:104BC0007A013BEFC316D104E104F104B8F060931D
:104BD000C9047093CA048093CB049093CC04809151
:104BE000CD049091CE04019709F473C2D093CE0402
:104BF000C093CD04D093D404C093D30440E050E0DC
:104C0000452B09F4C3CB0E94FA0B882309F4BACBD5
:104C10000E940000B7CBD0938E04C0938D04B8CE11
:104C200010938E0400938D04B3CE80918F049091E5
:104C300090049093370580933605839769F481E05B
:104C400090E00E94C1091092BD041092BC04309201
:104C50008E0420928D049CCE60E089E00E9493092E
:104C6000F2CF8091910490919204909339058093B2
:104C700038058D9779F483E090E00E94C109109285
:104C8000BD041092BC04A4E0B0E0B0938E04A093E5
:104C90008D047ECE60E08FE00E949309F0CF80917A
:104CA00093049091940490933B0580933A05019767
:104CB00079F487E090E00E94C1091092BD0410923F
:104CC000BC0485E090E090938E0480938D0460CEC8
:104CD00060E08BE00E949309F0CF80919504909161
:104CE000960490933D0580933C05439769F585E0D4
:104CF00090E00E94C1091092BD041092BC04809102
:104D0000360590913705839721F58091380590916C
:104D100039058D97F1F480913A0590913B05019703
:104D2000C1F480913C0590913D05439791F489E051
:104D300090E090938E0480938D040E94B9078AE5D9
:104D400090E00E94250826CE60E081E10E94930950
:104D5000D2CFD0933305C0933205D0933505C0939D
:104D600034051092900410928F04109292041092C5
:104D7000910410929404109293041092960410924D
:104D80009504D0938E04C0938D040E94B9071093AC
:104D9000BD040093BC041093C0040093BF0420ED35
:104DA00037E040E050E02093C1043093C2044093C8
:104DB000C3045093C404D093D604C093D50460E0D8
:104DC00089E00E9493091092BD041092BC0460E037
:104DD0008FE00E9493091092BD041092BC0460E021
:104DE00081E10E9493091092BD041092BC0460E01E
:104DF0008BE00E9493091092BD041092BC0489E0DC
:104E000090E09FCF8430910509F495C008F47AC0F2
:104E1000059709F0E6CD60918F0470919004809120
:104E2000A9049091AA04019709F063C090E080E082
:104E30000E94AE19609191047091920481E090E01B
:104E40000E94AE19609193047091940482E090E006
:104E50000E94AE196FEF7FEF3BC0D093A004C093C8
:104E60009F0480915504909156048A55944059F0BE
:104E70004AE554E05093560440935504CA010E94F9
:104E800054120E94C60748EB53E068E170E084E0EA
:104E900090E00E94DC10A5CD60918F047091900489
:104EA00090E080E00E94AE1960918F0470919004B0
:104EB00081E090E00E94AE1960918F04709190049F
:104EC00082E090E00E94AE1960918F04709190048E
:104ED00083E090E00E94AE1984CD8091A904909166
:104EE000AA046FEF7FEF019721F060918F0470911A
:104EF000900490E080E00E94AE196091910470915E
:104F0000920410C060918F04709190048091A90464
:104F10009091AA04019769F790E080E00E94AE1991
:104F20006FEF7FEF81E090E00E94AE1960919304F3
:104F30007091940418C060918F04709190048091D6
:104F4000A9049091AA040197A1F690E080E00E9444
:104F5000AE19609191047091920481E090E00E94FA
:104F6000AE196FEF7FEF82E090E00E94AE19609182
:104F7000950470919604ACCF1092AA041092A904E3
:104F8000ADCD01969093B8048093B704D0939C0460
:104F9000C0939B04F1CD8091BF049091C004009711
:104FA00009F44FC0029709F0F2CD0E94830B6B0108
:104FB0007C018091D5049091D604019709F58091E8
:104FC000BE048093D9010E94830B6093D501709336
:104FD000D6018093D7019093D8011092D6041092F5
:104FE000D5048092CF049092D004A092D104B092C4
:104FF000D2041092CE041092CD0485E58093BE04B5
:105000008091D5019091D601A091D701B091D8019E
:10501000C81AD90AEA0AFB0A8091C1049091C20415
:10502000A091C304B091C404C816D906EA06FB06D1
:1050300008F44CC08091D9018093BE040E94B70A45
:10504000A6CD0E94830B6B017C018091D5049091C9
:10505000D604019729F58091BE048093DE010E9459
:10506000830B6093DA017093DB018093DC019093F2
:10507000DD011092D6041092D5048AEF90E0A0E0F2
:10508000B0E08093CF049093D004A093D104B09368
:10509000D2041092CE041092CD048FEF8093BE0400
:1050A0008091DA019091DB01A091DC01B091DD01EA
:1050B000C81AD90AEA0AFB0A8091DE0194ECC916E3
:1050C00099E0D906E104F10408F0B6CF0E940E0A77
:1050D0005ECD1092CE041092CD048CCD052E97FBA0
:1050E0001EF400940E94852857FD07D00E94A02836
:1050F00007FC03D04EF40C948528509540953095CC
:1051000021953F4F4F4F5F4F089590958095709533
:1051100061957F4F8F4F9F4F08950E94C228A59F92
:10512000900DB49F900DA49F800D911D11240895A2
:10513000B7FF0C948D280E948D28821B930B089535
:10514000A1E21A2EAA1BBB1BFD010DC0AA1FBB1F8B
:10515000EE1FFF1FA217B307E407F50720F0A21BFD
:10516000B30BE40BF50B661F771F881F991F1A946A
:1051700069F760957095809590959B01AC01BD0194
:10518000CF010895A29FB001B39FC001A39F700DEE
:10519000811D1124911DB29F700D811D1124911D3F
:1051A0000895991B79E004C0991F961708F0961B83
:1051B000881F7A95C9F780950895EE0FFF1F059017
:1051C000F491E02D0994DC0101C06D9341505040F1
:1051D000E0F70895FB01DC0101900D920020E1F75A
:0651E0000895F894FFCFD2
:1051E6008F0B8F0B1815A015C019FF1815A115C820
:1051F60019FF1815AE19FF1815AF19FF1815AE15BA
:10520600D5168015A8163F15D316001540158D1610
:10521600141520160015A115C815DA1602158116E3
:10522600CF15D916F115DB1640152E15A415A6199E
:10523600FF0001140A6464323200127A0000042866
:105246009610080000800040004802E80188012806
:1052560001C8006800000000001209E5086619BBD5
:1052660008DE08CB08BC0800000000300C900BBD1F
:105276000BA40CEE0BCC0BE00B00000000C4189C3A
:0E5286001866196519F20E7D0FE20E0D0A0072
:00000001FF
