:100000000C94BF070C94DF1B0C94B81B0C94E707EF
:100010000C94E7070C94E7070C94E7070C94E707A8
:100020000C94E7070C94E7070C94E7070C945E1C0C
:100030000C94E7070C94E7070C94E7070C94E70788
:100040000C946E1B0C94E7070C942C1C0C94061C4F
:100050000C94E7070C94E7070C94E7070C94E70768
:100060000C944F1A0C94E70748656C6C6F2066720D
:100070006F6D2073696E676C6520636C69636B00DC
:1000800048656C6C6F2066726F6D20646F75626C72
:100090006520636C69636B004C6967687473204901
:1000A0006E697469616C697A6174696F6E20636FDF
:1000B0006D706C65746564004C6967687473204981
:1000C0006E697469616C697A6174696F6E004F4C16
:1000D000454420496E697469616C697A6174696F1D
:1000E0006E20636F6D706C65746564004F4C4544A1
:1000F00020496E697469616C697A6174696F6E0018
:10010000536166656475696E6F20696E69746961B3
:100110006C697A6174696F6E20636F6D706C657461
:10012000656400427574746F6E20496E697469610C
:100130006C697A6174696F6E20636F6D706C657441
:10014000656400427574746F6E20496E69746961EC
:100150006C697A6174696F6E005361666564756974
:100160006E6F20696E697469616C697A6174696F18
:100170006E0050757A7A6C6520696E697469616C7D
:10018000697A6174696F6E20636F6D706C657465F8
:10019000640050757A7A6C6520696E697469616C67
:1001A000697A6174696F6E0000FF00E0FF07F0007C
:1001B0000F38001C1800181800181800181800181C
:1001C000180018FCFF3FFFFFFFFFFFFFFFEFFFFFDF
:1001D00083FFFF81FFFF81FFFFC3FFFFC7FFFFC753
:1001E000FFFFE7FFFFFFFFFFFFFFFFFFFFFCFF3FFA
:1001F00000000000240027002A0000000000250065
:1002000028002B0000000008000201000003040782
:1002100000000000000000000102040810204080DF
:100220000102040810200102040810200000000050
:100230002300260029000404040404040404020228
:10024000020202020303030303035F000303050525
:100250000405061614FDFC0EFC0EFE026D05BA0820
:100260000B200600602C01210FC4253423391C2CDF
:100270002265C92122012209A5644621E145002306
:100280001B8B616429114BC412D961729849C41245
:10029000D961729849C412B14408242149A65B1956
:1002A00087846B924829520A5582B643E810334638
:1002B0004AA14AA8129195E39020002529EEE17BFE
:1002C00035938A26415948280B456511A9287D2474
:1002D00087C6C6225134240B8A64C1982CA6148C7C
:1002E0004EE330002624D0258C4B078AE420991C4D
:1002F0002493832672581D3AABD984135270561D2D
:1003000052A7B4DA21741B012707A2642E711828A2
:100310001105A23327128D442399DE66B29950004D
:10032000291005A2332194CD64337D1A89466A00D1
:100330002A10E7E045354A9A44442349649434023C
:100340002B154A215C2987C8217288F07030CA2198
:1003500072881C22042C0BE4602B23394446D900FC
:100360002D0765E034F1102E0A84202C2339442413
:10037000002F0FC6213CA918540C2A0615838A00A9
:100380003013C9255C379C8C6492997F9BC8449339
:10039000E10C00310BC7295C271C15F79F0E3215A5
:1003A000C9255C47134D66B6896C3C1D4FA762D5C5
:1003B000C3A1003317C9255C47134D66B6896C2C61
:1003C0009C83E41399DB44342B013416C9255C1F4C
:1003D000174F1923B3D028368A4D829383743C2D4E
:1003E0003518C9255C73889CE29038240EB1C5E6A7
:1003F000E389CC6D229A95003616C9255C575A912F
:10040000D924E3C988B2E66D229B8C84330037116E
:10041000C9255CF1509E8AE562B97875BC11003837
:1004200015C9255C379449A4D4E2456434858E55BA
:100430006A4D46033917C9255C37144D669299B742
:10044000C98434194F6436C96854033A0D242534DD
:10045000233944C4924344023B0F84653323394417
:10046000C4924364940D003C114A215C0F1113396E
:10047000D32174081D4287083D0BC9A45CF1404795
:100480003C1C083E124A215C2187D02174081D4281
:1004900026729643003F12C921545712DD6C13D9BE
:1004A00058772431952C044027CF21847B1ECBE440
:1004B000A090AC241129916422924C449189246A21
:1004C0002289D244249A10E5A0D8587C0802412001
:1004D000CE1D741F07CB8173201D1499834272486F
:1004E0006C1E1B47A7076178181FC927D402421E3C
:1004F000CC21747198CD48C3D170341CCD6687E08F
:10050000D274329D4C27D3C970729001431DCC2107
:1005100074590AB18C25E33A840EA183E6A03968A8
:100520000E89CC23E3184D5A03441FCE21847198C1
:100530000E69E3D178349FCC27F3C97C329FCC2756
:10054000E3D17834241D8600451FCB216C71A00CAB
:100550002753C92C1499852223E171249C0567A196
:10056000C83832950C0F07461ECB216C71A00C27A2
:1005700053C92C1499852223E171249C0567C13944
:10058000640E995B014721CD217C598A914863D142
:1005900058328744E690C81C36874D0FE1D1743439
:1005A0009D91A8A50800481ECE218451AC8C47E33C
:1005B000D178341E8D4787D278341E8D47E3D178A9
:1005C000349E140B490AC5254C5119ED7F294A1355
:1005D000CA1D645B9EEF936C429A9026C291684854
:1005E000044B1ECE2184512B4D8543E94C3C924F48
:1005F000E4103BE43E218FA833E29036A5D40C4CA6
:1006000010CA2164519EEFAF91696428991D0C4D69
:100610002DD1219C612E9169555A64189985669156
:10062000596816998546A1596C129AC526A1598C0C
:10063000360BCE66C1D968189CD462054E21CE21F6
:100640008441AD5067D42035584CA10543A4608C3B
:10065000120C16A3C428313C1B8BCA21004F1DCE9F
:1006600021846926D1C6A3F1640EB143EC103BC4CA
:100670000EB1439647E319896C04501ECC21747166
:1006800010CE4843CA9032A40C2933D2213807CD6A
:100690004173D01C3487D40151284E22836926D15E
:1006A000C6A3F1640EB143EC103BC40EB1D026A337
:1006B0009168269951CA76A81C3A8983EAB011003C
:1006C000521FCD218471A00D49D3D174341D0D6703
:1006D00087E86C381BCE68C3D970369C1827005346
:1006E00016CA21644709AD0C25D308D97A355BCBEE
:1006F000D5D3245402541CCB216C7130ADCD64335E
:10070000D92C3887CC2173C81C3287CC2173C8BC44
:1007100006551ECE218451AC8C47F3D83C368FCD84
:1007200063F3D83C368FCD63F3D83C38941B015625
:1007300022CF1D7461AC9067F320353C0D4FE3B3BD
:10074000386416074DE2B0491C3887CEC171781C59
:10075000005730D41D9C61315568C4D9701AA4D19A
:10076000C2335A78460B5322943864129AC42193A8
:10077000D0240EA1D161C3396C380786E3D070183C
:1007800000581FCF218C63AA11A734F9480EB1C3BA
:10079000E8503AAC0EB3434464E174481B538A06F4
:1007A000591FCD217C61A35065D3204D3A0B53E2F4
:1007B000903A680E9BC3E6B0396C0E9B436E005AAC
:1007C00019CC216CF1102E4FC294289D0E9943E84C
:1007D000AC1172645C3E1C025B0A04A63361D2FF5A
:1007E00013015C12C8214C21968BE562B9582E96F4
:1007F0008BE562015D0A04A23341D2FF93015E0ED4
:1008000008A14D27961269222D42A2005F07496078
:100810004BF140600885A43E215B1461122A215CE3
:10082000739A4D8463DA646D329B8C9806621FCC98
:100830001D644107CD4173D01C34074D88B4D17479
:10084000329D4C27D3C974421B496A00630F29218A
:1008500054571A19CB5B2333190900641DCC216C42
:100860004F07CD4173D01C34A48C6694E9643A9947
:100870004EA693E96846A41065122A215C471C4DD8
:1008800086C6C3413E8E0C652500660EC8213C47D6
:1008900093EC3AB44DF7B106671EEB215B0F924320
:1008A00046C6D14C2813CA4643A31C74081E22D244
:1008B00089583294DD00681ECC216C4107CD41730C
:1008C000D01C34074D6A24D270341C0D47C3D1703C
:1008D000349C940A690CC52134335A0792F64B01B3
:1008E0006A0F471633B91D8DB83F5A2C2212006B80
:1008F0001DCC216C4107CD4173D01C34078D4A3388
:10090000E1283C115F27C4116D46A9186C0AC52166
:100910003441DAFFA5006D183321A441A9D8482538
:10092000D27069B8345C1A2E0D97862BA5066E1509
:100930002C216C41A99148C3D170341C0D47C3D1FF
:1009400070522A6F0F2B2164579C4DA6BE4E66C372
:100950001A00701CAC1D633122D246D3C974329D7B
:100960004C27D3096D3421CE4173D01C5207711C22
:10097000AC21634712CD28D3C974329D4C27D3D103
:100980008C489983E6A039680E29720F28214C41C2
:1009900011512423C974C71A00731229215445091F
:1009A000C924C388F16A2D4A2225007411A7214465
:1009B000178E0A67A6E19E22A310050075152C214B
:1009C0006C51220D47C3D170341C0D47C3115B8598
:1009D0000076142A1D4C519A0C43C3D828388A92A9
:1009E000E972881000771B301D7C51294D66C3D0F9
:1009F0006C181B91822352944426D185728850082A
:100A000078122B216461619351A4F5795542935179
:100A10002806791BAB2163519B4C43D3D82C388BD0
:100A20004EC293F81C32074565D1497C0E7A0E29D7
:100A3000215471A0D588DC8AC403017B0E05A23342
:100A40002712EDA4281BED26147C07C2315CF103AC
:100A50007D0F05A23321948DB60945A23DA9017EE3
:100A60000B6A2465B572888C460000000004FFFF05
:100A700000005F00030204040305050E0FFFFD0BD9
:100A8000FD0BFD019E037E04EC2005008C14210764
:100A9000B186140745220733C51589252315A78478
:100AA0007849988449344C499844C394844998645B
:100AB000002417E77478E1A0449114496192AE498B
:100AC0001849915419C438032519BB843C639445D3
:100AD00059299C722C877228C7A231CA4A59142EF0
:100AE000002613A8855A6A1446A95C89922C2946C7
:100AF00059126D01270631C51303280CE36D5549C2
:100B00009444FD166501290DE36D15599445FD12B8
:100B10002511002A0A55B55795CAD214012B0B7717
:100B20008D79716D18B2B8062C0742743315052DF6
:100B30000613A414032E06218513022F0CB484740B
:100B4000A5AC9495B21A00300CB685384312FAC79A
:100B50006448003108B3865843D43F320DB6853817
:100B600043128A69D86B3A0C3310B6853843128A1F
:100B700069694E45311912003412B785B8A99864D5
:100B8000512D099330198634AE00350FB68518877C
:100B9000B43AC8692A8AC99000360FB6853843121C
:100BA000AA9545131D932101370EB68518D7300D30
:100BB000D3300DD32200380FB6853843123A26437E
:100BC000123A2643023910B6853843123A26839AE0
:100BD0008A623224003A07818513A2003B0AA2747C
:100BE0003475284914003C0856959892D9003D0761
:100BF000369D19E7613E08569518B2C9083F0DB6F3
:100C00008558A6514CC37630CD00401DCB7D9D4309
:100C10002A4A395253122D8AA42C92B2488A949AA5
:100C2000A2E5989A0E1A004113B98499F99CC44917
:100C30009A8559351A86284D723D4211B785199704
:100C4000703526831426A971181400430FB8857ACD
:100C50009B25D5BB2369A26913004410B8851A836C
:100C6000162A6912FB9A84CAA001450DB785190797
:100C7000B97958E2E66108460CB7851807B9795882
:100C8000E2CE004713B9857B43262AB18EE448386B
:100C9000E87A1227DA29480BB8851AB1E7E1107B08
:100CA0000E4907B186140F024A0BB684B7FD2A8A93
:100CB000C990004B14B8851969124659294CD23590
:100CC0000AB362942671004C09B6861869FF3A0C83
:100CD0004D19BB841C39B40FF992264A9A485924FD
:100CE000659196645A9289A1584E14B8851AAA1231
:100CF0002AA1944999166991988889BA0A4F10B91E
:100D0000857BA326A549EE3D49234DDC00500DB758
:100D100085199770350E831277065112B9857BA31A
:100D200026A549EE968951124A9A3805520FB88580
:100D30001A87249DADC930A549EC1C530DB78559C0
:100D400093B6EACEEA264D005415B984198F39922C
:100D500023399223399223399223391202550CB840
:100D6000851AB17F4EC26C88005614B98419B99E99
:100D7000A4511A695A314B9338C97324045720BDC2
:100D8000841D69AAA6621226599245599245599224
:100D900055B2244CB2244CB2242DA719005814B9D2
:100DA0008419799266D524CF913C49B36A94267907
:100DB000005913B98419F9AAA459314B9378CF91EA
:100DC0001CC991105A0EB785198738ADAA55B53C84
:100DD0000C015B09E36D1443D4FF345C0BB4841441
:100DE000599815B362565D09E36C1453FFD3105E36
:100DF0000A55B557591225352D5F07186C1807018C
:100E0000600722CD155100611087853843648E0636
:100E1000454BC244921601620DB6851769CB228DEF
:100E20008ED3B200630D8685374322AD8D93322475
:100E300000640CB685B82DA7D171529600650F8657
:100E4000853843228DC3A0A692322400660BB48459
:100E5000544A164D599F00670EB66D38A7D171528E
:100E60009674528604680BB6851869CB228D3E06AF
:100E70006908B18513CA30086A0AE36B53D5A83FE5
:100E80002D006B10B68517695B12553231C9A25A15
:100E900012066C07B185130F026D1189851B89A499
:100EA00048B64CCBB44CCBB44C2B6E0A868518C9D3
:100EB000228D3E066F0D86853843228D8E93322417
:100EC00000700EB66D18C9228D8ED3B2A455007174
:100ED0000CB66D38A7D1715296B401720A8485158B
:100EE000C91065BD01730B8585374B368EB664011D
:100EF000740AA484345934653D0A750A868517A19D
:100F00008F93B2047610878417A99A645116659559
:100F100030493300771089841A59A6655A25EA4B5F
:100F20005B318B00780E8784179A9255D2384DB278
:100F30008A267911B76C17E998645156CA92548D74
:100F40005351047A09868417D7B0D7617B0BE56CBF
:100F50007552D8562D76157C07E16D131F047D0C54
:100F6000E56C156AD85A2B76D2007E09369D3892E8
:100F700062520000000004FFFF000000C21D1124A7
:100F80001FBECFEFD8E0DEBFCDBF11E0A0E0B1E0E3
:100F9000EAE5FBE402C005900D92A63AB107D9F745
:100FA00025E0A6EAB1E001C01D92AF33B207E1F738
:100FB00017E0CFEBD7E004C02197FE010E949725F0
:100FC000CE3BD107C9F70E9448200C94AB250C9466
:100FD0000000662329F06A3019F0862F90E008950A
:100FE0008FEF9FEF0895AF92BF92CF92DF92EF9273
:100FF000FF920F93CF93DF93EC01DA017901942FE5
:101000009770E1E0F0E09F01092E01C0220F0A94E1
:10101000EAF7522F6E018AE8C80ED11CF6018081D2
:1010200040E0823018F4422F813049F15D01F8EF41
:10103000AF22E8ADF9AD28813981D90150968C9164
:101040008A9D90018B9D300D1124620F731FDF016B
:10105000A60FB71F01111AC0EA0EFB1E8C91842B3C
:1010600085278D93AE15BF05C9F7DF91CF910F91FD
:10107000FF90EF90DF90CF90BF90AF90089550E039
:10108000D5CF440F550FE114F10479F33C91342B83
:1010900035273C939F5F9770E1E0EE1AF1089111BC
:1010A000F0CF2CAD3DADA20FB31FF6018081823091
:1010B00028F4813009F051E041E0E5CF51E0E3CF81
:1010C00080E0089590E080E00895CF93DF93C3E23D
:1010D000D4E08FAFEAADFBAD0190F081E02D87E267
:1010E00094E00995EAADFBAD0280F381E02D87E243
:1010F00094E0DF91CF910994CF92DF92EF92FF922B
:101100000F931F93CF93DF9300D000D01F92CDB7E2
:10111000DEB7C090610400916204E0912704F09171
:101120002804D188102FF12CE12CE0912704F091B4
:101130002804808920915F04309160041C821D8303
:101140008B8348E0849FC00111248E9DA0018F9D58
:10115000500D9E9D500D1124240F351F3A83298375
:10116000E0912B04F0912C049E012F5F3F4F41E052
:101170006FE087E294E009951F5F812F801B8C153B
:1011800028F48FEFE81AF80A1D1578F20F900F90E7
:101190000F900F900F90DF91CF911F910F91FF90C3
:1011A000EF90DF90CF900895809181049091820418
:1011B000892BA1F18091A1048093AD044091A204F8
:1011C0004093AE049091AC04992341F1913069F4BD
:1011D0009091A304891714F49093AD048091A40412
:1011E0008417E4F48093AE04089530919E04209116
:1011F000A004082E000C990B622F022E000C770B16
:10120000630F711D37FD7A95861797071CF4320F0F
:101210003093AD04241714F42093AE040895833062
:1012200018F48093B104089581E0FBCF90E38436F5
:1012300018F084569F5FFBCF9093910290E38A3021
:1012400018F08A509F5FFBCF9093920290E3811138
:1012500007C0909393021092940282E992E008955D
:1012600081509F5FF4CF9B01DC011896ED91FC91BA
:1012700041E067E1099420914502260F3327331F8F
:1012800021323105ECF420916B02FC0190E080E00A
:10129000243069F082E00895A09145022191AC01CB
:1012A0004D5D5D4FA40FB52FB11D2C930196861790
:1012B00098F380914502680F6093450280E008959D
:1012C00081E00895089508950895E0911A028091AB
:1012D0001902E81730F4F0E0E750FE4F808190E00B
:1012E00008958FEF9FEF089590911A02809119024F
:1012F0002FEF3FEF981748F4E92FF0E0E750FE4F4B
:10130000208130E09F5F90931A02C9010895809177
:10131000190290911A02891B990B0895CF92DF92BE
:10132000EF92FF920F931F93CF93DF937C01CB013A
:101330008A012091F801222389F0EB016B01C40E90
:10134000D51ECC15DD0569F06991D701ED91FC91B1
:101350000190F081E02DC7010995F3CF642F0E9421
:101360003B09C801DF91CF911F910F91FF90EF9042
:10137000DF90CF900895CF93DF931F92CDB7DEB764
:1013800069832091F8012223F9F020911B02203279
:1013900058F021E030E0FC013383228390E080E0CC
:1013A0000F90DF91CF91089580911C02E82FF0E01B
:1013B000E852FE4F998190838F5F80931C02809347
:1013C0001B0281E090E0ECCF61E0CE0101960E942B
:1013D0003B09F7CF833081F028F4813099F08230D7
:1013E000A9F008958730A9F08830C9F08430B1F4AD
:1013F000809180008F7D03C0809180008F778093E3
:101400008000089584B58F7784BD089584B58F7D5D
:10141000FBCF8091B0008F778093B00008958091CA
:10142000B0008F7DF9CFCF93DF93282F30E0F90103
:10143000EC5FFD4F8491F901E85EFD4FD491F90115
:10144000EA5CFD4FC491CC23A1F081110E94EA090E
:10145000EC2FF0E0EE0FFF1FE45DFD4FA591B4917E
:10146000EC91ED2381E090E009F480E0DF91CF91F1
:10147000089580E090E0FACF1F93CF93DF93282F59
:1014800030E0F901EC5FFD4F8491F901E85EFD4F1A
:10149000D491F901EA5CFD4FC491CC23A9F0162F39
:1014A00081110E94EA09EC2FF0E0EE0FFF1FE650D9
:1014B000FE4FA591B4918FB7F894EC91111108C02B
:1014C000D095DE23DC938FBFDF91CF911F910895DC
:1014D000DE2BF8CF10926B0281E080936D021092A8
:1014E0006C0261E082E10E943C0A61E083E10E94BB
:1014F0003C0AE9EBF0E080818E7F808380818D7FE4
:10150000808388E48093B80085E48093BC000895CC
:10151000CF93DF9391E0909322028823B9F0C0919A
:10152000B800D091BA008091BC008A7B8093BC0047
:1015300060E082E10E943C0A60E083E10E943C0A94
:101540000E946A0AD093BA00C093B800DF91CF918D
:101550000895CF93DF9390E0FC01E85EFD4F249166
:101560008A5C9D4FFC0184918823C9F090E0880F2C
:10157000991FFC01E051FE4FA591B491FC01E6508A
:10158000FE4FC591D49161110DC09FB7F8948C9115
:10159000209582238C938881282328839FBFDF9105
:1015A000CF910895623051F49FB7F8943C91822F07
:1015B000809583238C93E8812E2BEFCF8FB7F894FF
:1015C000EC912E2B2C938FBFEACF3FB7F8948091EC
:1015D000D4019091D501A091D601B091D70126B543
:1015E000A89B05C02F3F19F00196A11DB11D3FBF5B
:1015F000BA2FA92F982F8827BC01CD01620F711D2A
:10160000811D911D42E0660F771F881F991F4A9523
:10161000D1F708958F929F92AF92BF92CF92DF92AF
:10162000EF92FF926B017C010E94E50A4B015C0185
:10163000C114D104E104F104B9F00E94E50A68196B
:1016400079098A099B09683E73408105910580F3F9
:1016500021E0C21AD108E108F10888EE880E83E083
:10166000981EA11CB11CE4CFFF90EF90DF90CF90AB
:10167000BF90AF909F908F9008950F931F93CF933B
:10168000DF938C01C62F642FCC32E8F4CA3208F005
:1016900041C0C83271F1C93209F442C080E0C0349F
:1016A000D0F1CF73F801EC0FF11D868D8F3F91F1D2
:1016B000C031E0F00E94130A21E0892B09F420E0F8
:1016C000F801218F27C0CD3289F140F384EB8C0FD4
:1016D000823020F7CF73C00FD12FD11D8E8D4111D5
:1016E00033C061E00E94A90A60E08E8D0E943C0A2E
:1016F00011C0025E1F4FD0E0F80181918F018F3F32
:1017000031F061E0D03108F062E00E94A90ADF5FA9
:10171000D63191F781E0DF91CF911F910F9108951C
:1017200070E090E080E00E940A0BF4CF85E090E04A
:10173000433010F082E090E0880F991F880F991FC6
:1017400005970197F1F7E6CF62E00E94A90AE2CF80
:101750000895AF92BF92CF92DF92EF92FF920F93D4
:101760001F93CF93DF936C017B018B01040F151F37
:10177000EB015E01AE18BF08C017D10759F069919F
:10178000D601ED91FC910190F081E02DC601099503
:10179000892B79F7C501DF91CF911F910F91FF90B0
:1017A000EF90DF90CF90BF90AF900895FC01538DE4
:1017B000448D252F30E0842F90E0821B930B54172B
:1017C00010F0CF96089501970895FC01918D828DB8
:1017D000981761F0A28DAE0FBF2FB11D5D968C9151
:1017E000928D9F5F9F73928F90E008958FEF9FEF90
:1017F0000895FC01918D828D981731F0828DE80F4C
:10180000F11D858D90E008958FEF9FEF0895FC0105
:10181000918D228D892F90E0805C9F4F821B9109D2
:101820008F739927089581EA92E00E94070C21E0C6
:10183000892B09F420E0822F089580E090E0892B25
:1018400029F00E94130C81110C9400000895FC01F2
:10185000A48DA80FB92FB11DA35ABF4F2C91848D11
:1018600090E001968F739927848FA689B7892C936E
:10187000A089B1898C91837080648C93938D848DC1
:10188000981306C00288F389E02D80818F7D8083C4
:101890000895EF92FF920F931F93CF93DF93EC0184
:1018A00081E0888F9B8D8C8D98131AC0E889F98907
:1018B000808185FF15C09FB7F894EE89FF8960830A
:1018C000E889F98980818370806480839FBF81E08B
:1018D00090E0DF91CF911F910F91FF90EF900895CD
:1018E000F62E0B8D10E00F5F1F4F0F731127E02EA8
:1018F0008C8D8E110CC00FB607FCFACFE889F989E0
:10190000808185FFF5CFCE010E94270CF1CFEB8DB2
:10191000EC0FFD2FF11DE35AFF4FF0829FB7F894B3
:101920000B8FEA89FB8980818062CFCFEF92FF9293
:101930000F931F93CF93DF938C017B01D0E0C0E026
:10194000F701EC0FFD1F6491662339F0C8010E9476
:10195000490C892B11F02196F3CF42E050E063EA65
:1019600071E0C8010E94A90B8C0F9D1FDF91CF91E0
:101970001F910F91FF90EF900895CF93DF93EC01AB
:10198000888D8823B9F0AA89BB89E889F9898C9167
:1019900085FD03C0808186FD0DC00FB607FCF7CF23
:1019A0008C9185FFF2CF808185FFEDCFCE010E9423
:1019B000270CE9CFDF91CF9108954F925F926F92FC
:1019C0007F928F929F92AF92BF92CF92DF92EF92CF
:1019D000FF920F931F93CF93DF93EC018B0168E588
:1019E000E62E62E0F62E78E8C72ED12C8A814701D8
:1019F000881A910887FD9394880C991C880C991C6F
:101A0000092C000CAA08BB0889812601481A510834
:101A100087FD5394440C551C440C551C052C000C9C
:101A200066087708E88190E080E0EF3FB9F088E051
:101A3000E89FF0011124EE5BFC4F8181928123E04D
:101A4000880F991F2A95E1F7B0E0A0E034E0B59542
:101A5000A795979587953A95D1F702969C012F5FA8
:101A60003F4F032E000C440B550B24193509460932
:101A70005709A4EBB0E00E944F25A5019401241959
:101A80003509460957090E9430250217130739F016
:101A900065E070E080E090E00E940A0BA7CFDF9144
:101AA000CF911F910F91FF90EF90DF90CF90BF905B
:101AB000AF909F908F907F906F905F904F90089520
:101AC000DC011A96ED91FC9130E020E00994DC01F4
:101AD0001696ED91FC9130E020E040E069E1099438
:101AE000DC011696ED91FC9130E020E040E068E1E9
:101AF00009949A01DC011696ED91FC91462F67E15D
:101B00000994EF92FF920F931F93CF93DF931F924D
:101B1000CDB7DEB77C018B01D8016C91673129F11B
:101B200050F46531A0F40F90DF91CF911F910F9188
:101B3000FF90EF9008956A3118F16E3FA1F7F80118
:101B40004181498369E2C7010E94600D0BC0F80121
:101B500041814983D7011696ED91FC9130E020E058
:101B6000C70109950E5F1F4FD7CFF8018181898387
:101B7000AE014F5F5F4F61E0C7010E94790DF2CF68
:101B80000F5F1F4FD7011696ED91FC9130E020E0DA
:101B900040E0C7010995C0CF462FDC011696ED91B4
:101BA000FC9130E020E066E10994462FDC011696B6
:101BB000ED91FC9130E020E065E10994EF92FF9215
:101BC0000F931F93CF93DF93EC01042F79016D30B6
:101BD00009F446C050F46B30C9F1693009F49FC074
:101BE0006A3009F465C080E046C06E3009F452C026
:101BF0006F3099F70E94700DF7011381110F110FCB
:101C0000110F6C89160F60E4CE010E94D50D612F73
:101C100062956F706061CE010E94D50D612F6F706B
:101C2000CE010E94CC0DF7016481606BCE010E9451
:101C3000CC0DF701408151816281660F660F660FFE
:101C4000CE010E94790D0150A1F72EC06BE171E029
:101C5000442311F066E171E0CE010E94810D0AC0BB
:101C6000411110C06FE071E00E94810DE881F9819F
:101C700082898C8B81E0DF91CF911F910F91FF9032
:101C8000EF90089568E071E00E94810DE881F9818C
:101C90008389EFCF0E94700D61E8CE010E94D50DBF
:101CA000602FCE010E94CC0DCE010E94670DE2CFC5
:101CB000EA85FB8530E020E040E068E2CE0109954E
:101CC000EE81FF8130E020E040E064E1CE01099543
:101CD00041E06BE4CE010E94600DE881F98144810E
:101CE00069E2CE010E94600D40E06BE4CE010E94EB
:101CF000600DE881F981448169E2CE010E94600DA6
:101D000041E06BE4CE010E94600DE881F9814581DC
:101D100069E2CE010E94600D60E271E09DCF85E531
:101D200091E0998388831C8AA5CFDC011896ED91F8
:101D3000FC9130E020E040E069E10994DC01189674
:101D4000ED91FC9130E020E040E068E10994CF9310
:101D5000DF931F92CDB7DEB76983BE016F5F7F4F00
:101D60000E9433090F90DF91CF910895EF92FF9277
:101D70001F93CF93DF93EC01162F7A010E949E0EE2
:101D800060E4CE010E94A70EE885F9859701412FF6
:101D900067E1CE010995CE01DF91CF911F91FF90B0
:101DA000EF900C94950EEF92FF921F93CF93DF93D9
:101DB000EC01142F7901663181F138F4643109F4B2
:101DC0004BC0653179F080E022C06831C9F150F133
:101DD0006931C9F78091CD01882391F1CE010E942C
:101DE000950E2EC08091CD01882319F0CE010E945E
:101DF000950ECE010E949E0E60E0CE010E94A70EBD
:101E0000612FCE010E94A70E81E08093CD01DF916A
:101E1000CF911F91FF90EF900895642F0E94A70E1D
:101E200081E0F5CF8091CD01882319F0CE010E9489
:101E3000950EA701193138F4612FCE010E94B60E1C
:101E40001092CD01EDCF68E1CE010E94B60E18517F
:101E500088E1E80EF11CEDCF8E898F3F11F488E701
:101E60008E8BE885F9859701412F64E1CE01DF91E2
:101E7000CF911F91FF90EF900994FC016623D9F157
:101E80006A30C9F1808D811125C06C3F48F085E032
:101E9000808F617070E0738B628B2EEF3FEF29C0F3
:101EA000683F20F084E0808F6370F4CF603F20F0C3
:101EB00083E0808F6770EECF603E20F082E0808FFD
:101EC0006F70E8CF262F30E0603C98F081E0808F83
:101ED0006F71E0CF8150808F2289338996E0220F85
:101EE000331F9A95E1F76F73262B338B228B811169
:101EF000D4CFC90108952FEF3FEFFBCF0F93FC0123
:101F0000E05CFF4F0190F081E02D4E1B5F0BDC0188
:101F1000D496ED91FC9109950F910895CF93DF939D
:101F2000FC01A081B18182AD90E09C0143E0220FD1
:101F3000331F4A95E1F737AF26AF50962C91509753
:101F400048E0249F9001112435AF24AF23AD30E049
:101F5000B90153E0660F771F5A95E1F7EF01C05CB6
:101F6000DF4F7983688351964C915197E901C80FEF
:101F7000D91F50E04C175D0718F4CA01821B930B60
:101F8000EF01CE5BDF4F79836883229623E0880FD1
:101F9000991F2A95E1F7860F971F998388832296C8
:101FA00054968D919C91559799838883E85BFF4F58
:101FB00056968D919C9191838083DF91CF91089566
:101FC0000F931F93FC01E25BFF4F0190F081E02D26
:101FD000DC01A05BBF4F0D90BC91A02D4A175B07A1
:101FE00040F4E017F10748F00417150730F080E0DF
:101FF00019C0E017F107C0F3FACFFC01E65BFF4F11
:1020000040815181845B9F4FFC01808191816817E1
:10201000790758F481E04217530720F081E0261732
:10202000370728F71F910F91089542175307B0F310
:10203000DECF2F923F924F925F926F927F928F925C
:102040009F92AF92BF92CF92DF92EF92FF920F9347
:102050001F93CF93DF93CDB7DEB72A970FB6F894CF
:10206000DEBF0FBECDBF9A878987865B9F4F9A835D
:102070008983FC0111821082E985FA85EA5BFF4FB2
:102080004080518029853A85245B3F4F3C832B83D8
:10209000F90151824082E985FA85EE5BFF4F20808D
:1020A000318029853A85225B3F4F3E832D83F9019C
:1020B00031822082E985FA85EC5BFF4F6080718078
:1020C00029853A85205B3F4F38872F83F90171823C
:1020D0006082E985FA85E85AFF4FE080F180E98562
:1020E000FA85EC5AFF4FA080B180E985FA85EA5A5B
:1020F000FF4FC080D180E985FA85EE5AFF4F80807E
:10210000918087019501A601B40189859A850E9475
:10211000E00F29853A852C573F4F3A87298781114F
:102120001BC0F90110822A960FB6F894DEBF0FBECD
:10213000CDBFDF91CF911F910F91FF90EF90DF9076
:10214000CF90BF90AF909F908F907F906F905F9057
:102150004F903F902F90089581E0E985FA85808324
:102160008114910421F0E981FA8191828082A41482
:10217000B50420F4EB81FC81B182A0822C143D04D3
:1021800020F4ED81FE81D182C082E614F70458F676
:10219000EF81F885F182E082C6CF0F93CF93DF9372
:1021A000E02FDC01AC57BF4FFC91FF2309F460C066
:1021B0002115310509F45CC02230310538F00230B8
:1021C00009F04AC06F5F7F4F621B730B0E2F0170C7
:1021D000E0FD52C0FC01E25BFF4F0190F081E02D79
:1021E0004E175F0708F444C0FC01E05BFF4F01900D
:1021F000F081E02D4E175F07D8F5FC01E45BFF4F3F
:102200000190F081E02DDC01A65BBF4F0D90BC91E9
:10221000A02D260F371F2617370738F56E177F07B3
:1022200018F59F0121503109A217B30708F56A1765
:102230007B0708F4BD012E173F0708F4F901E61BE0
:10224000F70BEC01AEA9BFA914960D90BC91A02D7F
:102250009F01FD0109950CC0033009F0B7CF4F5F16
:102260005F4F421B530BB2CFBD016E177F07E0F2E9
:10227000DF91CF910F910895FC01E65BFF4F019034
:10228000F081E02D6E177F0798F3FC01E45BFF4FB0
:102290000190F081E02D6E177F0750F7FC01E05BA5
:1022A000FF4F0190F081E02DDC01A25BBF4F0D904C
:1022B000BC91A02D240F351F24173507A8F44E1705
:1022C0005F0788F49F0121503109A217B30780F6F8
:1022D0004A175B0708F4AD012E173F0708F4F90110
:1022E000E41BF50BAECFAD014E175F0708F6EDCF3F
:1022F000213069F038F0223079F0840F911D47FDCC
:102300009A950895860F911D67FD9A950895841BEF
:10231000910947FD93950895861B910967FD939553
:102320000895213069F038F0223079F0861B910948
:1023300067FD93950895840F911D47FD9A95089523
:10234000860F911D67FD9A950895841B910947FD9D
:10235000939508953F924F925F926F927F928F92E2
:102360009F92AF92BF92CF92DF92EF92FF920F9324
:102370001F93CF93DF937C01162F442EEC01C25A9A
:10238000DF4F5E806F806C018AE8C80ED11C7884B4
:102390007518312E711608F4372C8C809D800E85AF
:1023A000202F462D652D8A819B810E9478115C012A
:1023B000202F462D652DC4010E949111AC014420AF
:1023C00079F08C85F6018083232D30E0B501C701BB
:1023D0000E94CD10171548F017196394512CD7CFD0
:1023E0008B858111F7CF8D85EDCF150D1E836F8203
:1023F000DF91CF911F910F91FF90EF90DF90CF90E1
:10240000BF90AF909F908F907F906F905F904F9014
:102410003F900895DC011A964C911A97ED91FC912A
:102420001197249130E0042E02C0359527950A9427
:10243000E2F7842F860F883068F031961196FC936E
:10244000EE93E49198E0941B01C0EE0F9A95EAF7A1
:102450002E2B88501A968C938FEF9FEF01C0880F18
:102460006A95EAF78095822308950F931F93CF937F
:10247000DF938C01EC01C25ADF4F798368831A869F
:10248000FC01EF58FF4F6081CE010E940A1288873D
:10249000F801EE58FF4F6081CE010E940A12898731
:1024A000F801E657FF4F90819C8781E0911180E011
:1024B0008D87DF91CF911F910F910895CF93C62FF4
:1024C0000E940A12C15021E030E001C0220FCA95DB
:1024D000EAF7821BCF910895FC01E60FF11D84916C
:1024E00090E0982F88273196E4918E0F911D0895E2
:1024F000CF93DF93EC01FC01849180939404319697
:10250000E491E0939504FE013296E491E093960401
:10251000FE013396E491E0939704FE013496E49132
:10252000E0939804FE013596E491E0939904FE014E
:102530003696E491E0939A04FE013796E491E09395
:102540009B04FE013896E491E0939C04FE013996C9
:10255000E491E0939D04FE013A96E491E0939E0499
:10256000FE013B96E491E0939F04FE013C96E491CA
:10257000E093A004FE013D96E491E093A104FE01E6
:102580003E96E491E093A204FE013F96E491E0932D
:10259000A304FE017096E491E093A40461E1CE01EE
:1025A0000E946C129093A6048093A50463E1CE016F
:1025B0000E946C129093A8048093A70465E1CE0159
:1025C0000E946C129093AA048093A904DF91CF918A
:1025D0000895EF92FF920F931F93CF93DF93FC0127
:1025E000E65AFF4F20813181295E3F4F6F3F7105D1
:1025F00009F048F561367105D8F080589F4FFC010D
:1026000080819181280F391FC9010196FC014491F5
:10261000442309F447C0F90144914617170671F4A1
:102620000196DF91CF911F910F91FF90EF90089548
:102630006134710548F382589F4FE1CFFC018491CA
:10264000280F311DE1CF8B01FC01EE57FF4FC081F8
:10265000D181C20FD31F7E0160E0C7010E946C12BE
:10266000C80FD91F62E0C7010E946C12F4E0EF0EA0
:10267000F11C8017910780F3FE01849190E0982F60
:1026800088273196E4918E2B009761F0081719077F
:1026900019F4CE010396C5CFFE013296E491CE0F18
:1026A000D11DEACF90E080E0BCCFCF92DF92FF92C5
:1026B0000F931F93CF93DF9310928D0410923F04DA
:1026C0006C0180ECF82E10E000E0D0E0C0E0F601F4
:1026D00061916F01E0912904F0912A0487E294E06E
:1026E00009958F3F980789F18E3F2FEF920779F375
:1026F000BC0187E294E00E94E912009721F1BC013D
:1027000087E294E00E94351260919A0485E894E093
:102710000E945E128093AF0460919B0485E894E070
:102720000E945E1260919C0485E894E00E945E1213
:10273000082F880F110B80ECF81202C0F090AF0444
:10274000C00FD11FC4CF80E0F3CF20918D0422238E
:1027500099F08091AF04022E000C330B280F311D2D
:1027600087FD3A95C20FD31FC01BD10B1F1424F451
:10277000CF0DD11DF7FCDA95CE01DF91CF911F91DE
:102780000F91FF90DF90CF9008958F929F92AF921C
:10279000BF92CF92DF92EF92FF920F931F93CF934E
:1027A000DF93EC017B018A016901FC01E459FF4FD1
:1027B0008081813009F46FC008F462C0823009F46E
:1027C00075C0833009F47DC0FE01E05AFF4FF182ED
:1027D000E082329611830083B601CE010E94E91295
:1027E000009709F4FFC07E012EE5E20EF11CBC014A
:1027F000CE010E943512FE01E959FF4FB0803C9690
:102800006081C7010E945E12882EFE01EC58FF4FC6
:102810006081C7010E945E12082FFE01EB58FF4F36
:102820006081C7010E945E12A82EF70190841914DE
:102830000CF090C016850B0D0195212F402F682DAF
:10284000828193810E9478116C01F70193838283C6
:10285000212F402F682D848195810E949111AC0118
:10286000F70195838483113009F484C0A8F11230F4
:1028700009F491C0133009F4A4C08C01960136C04C
:10288000FE01E45AFF4F0190F081E02DCE01099541
:10289000080F191F99CFFE01E45AFF4F0190F081F4
:1028A000E02DCE010995E81AF90A8ECFFE01E45A0F
:1028B000FF4F0190F081E02DCE010995081B190B07
:1028C00083CFFE01E45AFF4F0190F081E02DCE014D
:1028D0000995E80EF91E78CF9601290D311D97FC58
:1028E0003A958C010B0D111DB7FC1A95B601CE015E
:1028F0000E94E00F882371F1F701168217828E0182
:1029000001591F4F6E01F0E7CF0ED11CF801608115
:10291000C7010E940A12882EF6016081C7010E9439
:102920000A12982E40E0682DCE010E94AA1141E0C3
:10293000692DCE010E94AA1161E0C7010E940A120E
:102940008111F0CFF70187818B1504F3C657DF4F54
:10295000848588838A2DAA0C990BDF91CF911F91D2
:102960000F91FF90EF90DF90CF90BF90AF909F902E
:102970008F90089581E090E08B199109B7FC9395B1
:1029800096012F5F3F4F8A01090D111D97FC1A9583
:10299000C80ED91EABCF81E090E0BC016919710966
:1029A00097FC739596012F5F3F4F8B199109B7FCE8
:1029B00093958A010F5F1F4F480F591FC60ED71EF0
:1029C00095CF96012B0D311DB7FC3A9581E090E033
:1029D0008919910997FC93958A010F5F1F4F480F42
:1029E000591F84CF90E080E0B8CFCF92DF92EF9272
:1029F000FF920F931F93CF93DF938C0110923F04AC
:102A00007B01D12CC12CC4E1D0E0F70161917F01A1
:102A1000E0912904F0912A0487E294E009958F3F20
:102A2000980719F18E3F2FEF920779F39C01AE01C1
:102A3000B80187E294E00E94C513209193042130ED
:102A400059F038F0223059F0233061F0C80ED91E09
:102A5000DCCF080F191FFACFC80FD91FF7CF081BFB
:102A6000190BF4CFC81BD90BF1CFC601DF91CF9161
:102A70001F910F91FF90EF90DF90CF9008952F92CC
:102A80003F924F925F926F927F928F929F92AF92FE
:102A9000BF92CF92DF92EF92FF920F931F93CF934B
:102AA000DF93CDB7DEB72F970FB6F894DEBF0FBE1A
:102AB000CDBF2C017B018DE39FE090932A0480938E
:102AC0002904CB010E9455136C01019696958795B8
:102AD000481A590A2CE1C216D10408F0EAC04CE1A8
:102AE00050E04C195D09569547955A8349837CE11E
:102AF000C72ED12C81E0809390048DE39FE09093CA
:102B00002A0480932904B701C2010E94F514898127
:102B10009A81481A590A8091AD049091B1049F831B
:102B2000082E000C990B2091AE043C01621A71082A
:102B300027FD739428E0620E711C33E0E32EF12C24
:102B400024E130E0A901481B590B59874887C60189
:102B500001969C01240D351D3B872A87A2014C0D4F
:102B60005D1D5D874C875201AE18BF08C701880FF5
:102B7000991F9C012C0D3D1D3A832983E09183040C
:102B8000F091840487E294E0099528843984280E22
:102B9000391EA70140955095420D531D5F874E8702
:102BA00051E0E51AF10809F48CC08E859F85860DE9
:102BB000971D9E838D832A853B852E0D3F1D3C836B
:102BC0002B838C014E855F85B50187E294E00E94DE
:102BD000E00F8823E9F100E029813A814E855F8585
:102BE000B50187E294E00E94CD1032E063167104D3
:102BF00078F1430142E0841A91088E859F85019601
:102C00009F878E8781149104C9F001E09401AC0183
:102C1000B50187E294E00E94CD1094014E855F8556
:102C20006C857D856E0D7F1D87E294E00E94CD103E
:102C30002E853F85280D391D3F872E8700E029818D
:102C40003A814E855F85B50187E294E00E94CD1000
:102C50008F810E940F0932E0E316F10431F541E063
:102C600050E05F874E8751E0251A31084D815E8123
:102C70002E853F85420F531F00E029813A81B20122
:102C800087E294E00E94CD106B817C814E855F8548
:102C9000640F751F01E09301A10187E294E00E9497
:102CA000CD108E859F85029739F492E0691A7108DC
:102CB0005ACF1A8219821ECF82E090E09F878E87BA
:102CC000D5CF2F960FB6F894DEBF0FBECDBFDF91E4
:102CD000CF911F910F91FF90EF90DF90CF90BF9019
:102CE000AF909F908F907F906F905F904F903F90AC
:102CF0002F900895CF92DF92EF92FF920F931F9340
:102D0000CF93DF93EC01962F683109F44BC0B901E2
:102D1000993130F49431C9F0973189F080E006C0E0
:102D2000993109F461C09032C9F781E0DF91CF9108
:102D30001F910F91FF90EF90DF90CF90089550E09A
:102D400085E992E00E948E09F0CF8C859D85AE8545
:102D5000BF85892B8A2B8B2B71F4E881F981A5859E
:102D6000B0E020EA36E841E050E00E944F256C8751
:102D70007D878E879F8710921A02109219021092F7
:102D80001C0210921B020E946A0A82E699E090934C
:102D900044028093430283E699E090934802809333
:102DA0004702C3CF2C853D854E855F8560E074E288
:102DB00084EF90E00E945A252051310941095109C0
:102DC00056954795379527952093B8008E8990E0C2
:102DD0009595879591E09093F8018093CC0110929E
:102DE0001C0210921B02A1CFD0911B02D13208F01D
:102DF00093C0C091CC010E94E50A6B017C018091D7
:102E00006B02811164C082E080936B0281E0809349
:102E10006D028FEF80936A0210928F02D0938E0220
:102E2000A8EDB1E0EEE6F2E080E0D8137CC01092AD
:102E3000900280919002CC0FC82BC0939002809199
:102E40006C02813009F073C010926C020E94E50A96
:102E50006B017C01809190028093BB0080911E02E7
:102E600090911F02A0912002B0912102892B8A2B00
:102E70008B2B99F00E94E50A00911E0210911F020F
:102E800020912002309121026C197D098E099F0941
:102E90000617170728073907D8F18091BC0083FD72
:102EA000D9CF85EC8093BC000E94E50A6B017C01C0
:102EB00080916B028230E9F180916A028F3F61F16B
:102EC00080916A02803241F180916A0225C080912E
:102ED0001E0290911F02A0912002B0912102892B25
:102EE0008A2B8B2B09F48BCF0E94E50A00911E02DE
:102EF00010911F0220912002309121026C197D094E
:102F00008E099F09061717072807390708F077CF9A
:102F100080911D020E94880A10921C0210921B02CE
:102F20001092F80102CF9D9191938F5F7ECF85EE35
:102F3000B9CF80911E0290911F02A0912002B09102
:102F40002102892B8A2B8B2B09F4B2CF0E94E50A30
:102F500000911E0210911F02209120023091210247
:102F60006C197D098E099F0906171707280739076D
:102F700008F09ECFCDCFCF93DF93EC0168E670E0F1
:102F800081EA92E00E94960CFE01E05FFE4F808194
:102F90009181009729F0019761F0DF91CF91089519
:102FA00081E090E091838083CA56DF4F99838883C4
:102FB000F4CF82E090E0F6CFCF92DF92EF92FF92D3
:102FC0000F931F93CF93DF936C01EB017B01E40E12
:102FD000F51E10E000E0CE15DF0561F06991D60125
:102FE000ED91FC910190F081E02DC6010995080F4B
:102FF000191FF1CFC801DF91CF911F910F91FF9061
:10300000EF90DF90CF900895CF92DF92EF92FF92F2
:103010000F931F93CF93DF93EC016C0124E0C20E5A
:10302000D11CFC01E057FF4F0190F081E02DC6015B
:1030300009958E3FEFEF9E07D8F48E010C561F4F77
:10304000F801408151817E01F2E9EF0EF11CF70198
:10305000608171819C01C6010E94C513C059DF4F78
:1030600028812130C1F078F02230B9F02330E9F026
:1030700081E090E0DF91CF911F910F91FF90EF9051
:10308000DF90CF900895F70120813181820F931F47
:1030900091838083EDCFF801F7CFF7012081318153
:1030A000281B390B31832083E3CFF801F7CFDC01F4
:1030B000ED91FD918081ED91FD919081ED91FD91DA
:1030C0006C9163708E2309F064609F2309F068603F
:1030D000E4E7F8E1E60FF11D659565956D936D9157
:1030E0007D918D919D91099423C01AC012C016C084
:1030F00010C01EC009C014C013C006C019C009C04A
:103100000DC007C00DC014C0625070408040904098
:103110000BC0615070408040904006C06E5F01C09F
:103120006F5F7F4F8F4F9F4F9E938E937E936E93D3
:10313000089580913E0390913F030C94571880911D
:103140004003909141030C945718089590E080E05B
:1031500008958F929F92AF92BF92CF92DF92EF929B
:10316000FF920F931F93CF93DF9382559F4F7C0164
:10317000FC017081828168E5C62E62E0D62EC81AF5
:10318000D10887FDD394CC0CDD1CCC0CDD1C8181D7
:10319000C8E8D0E0C81BD10987FDD395CC0FDD1F4F
:1031A000CC0FDD1F4E010D2E000CAA08BB089601A6
:1031B0000D2C000C440B550B281939094A095B09E1
:1031C0008091CA019091CB01F8E07F9F800111248A
:1031D000892B09F045C081E090E09093CB0180936A
:1031E000CA0188E090E0F801EE5BFC4F9483838392
:1031F0007C3028F5CA01B90153E0660F771F881F9C
:10320000991F5A95D1F724EB30E040E050E00E943E
:103210003025280D391D4A1D5B1D2C173D070CF468
:103220009E018FB7F894F801EE5BFC4F22503109F4
:10323000220F331F3683258394E697838FBF68E080
:1032400070E0C701DF91CF911F910F91FF90EF9038
:10325000DF90CF90BF90AF909F908F900C94DD0C3B
:103260008AE590E0F801EE5BFC4F948383837C3029
:1032700018F5AAE5B0E00E944F2524EB30E040E0CD
:1032800050E00E943025820E931EA41EB51E8C169F
:103290009D062CF0E6018C149D040CF4E4018FB71C
:1032A000F894F801EE5BFC4F2297CC0FDD1FD6831C
:1032B000C58394E197838FBF1092CB011092CA010E
:1032C00060E870E081EA92E0DF91CF911F910F9169
:1032D000FF90EF90DF90CF90BF90AF909F908F9036
:1032E0000C94960CE3E2F4E0A481B58150962C9105
:1032F00086AD38E0839FC0011124289FA001299F3B
:10330000500D112470E060E084AD95AD0C949D25C6
:10331000CF930E947C08C091620480916104C80F21
:10332000E0912704F09128048189C81770F0E0919A
:103330002B04F0912C0430E020E040E060E187E2D3
:1033400094E0099580E0CF9108958091B2048111B5
:103350000E9472198C2F0E94650881E0F4CF809141
:10336000B20481110E94721980E00C946508EF92FA
:10337000FF920F931F93CF93DF9300D01F92CDB78F
:10338000DEB77C018B0119821A821B828091810435
:103390009091820482579A4051F082E79AE090938C
:1033A0008204809381040E9478120E94D40881E0F4
:1033B000E816F10401F122E0E216F10451F10F3FA9
:1033C000100741F0802F0E941609BC01CE01019622
:1033D0000E94A425BE016F5F7F4F84E190E00E94B0
:1033E0003F150F900F900F90DF91CF911F910F918C
:1033F000FF90EF900895802F0E941609BC01CE0126
:1034000001960E94A425BE016F5F7F4F80E490E08B
:10341000E6CF802F0E941609BC01CE0101960E94C2
:10342000A425BE016F5F7F4F8CE690E0D8CF85ED7D
:103430008093BC0080911E0290911F02A0912002F7
:10344000B09121020796A11DB11D23E0B695A79565
:10345000979587952A95D1F72091BC0024FD03C04C
:1034600010926B02089540911E0250911F026091CC
:10347000200270912102452B462B472B69F30097C0
:10348000A105B10541F025E32A95F1F70000019768
:10349000A109B109E1CF80911D020C94880A1F9205
:1034A0000F920FB60F9211242F933F934F935F9378
:1034B0006F937F938F939F93AF93BF93EF93FF93FC
:1034C0008091B900887F803609F44AC0F0F58832CF
:1034D00009F4A7C018F5803109F49BC0B8F488231B
:1034E00009F4F9C0883009F494C0FF91EF91BF91BD
:1034F000AF919F918F917F916F915F914F913F918C
:103500002F910F900FBE0F901F901895883109F4DE
:1035100088C0803251F780936A0214C0803409F465
:103520009DC040F48033B9F38833F9F680936A0282
:1035300085ECB0C0803509F485C0883509F496C0A3
:10354000883499F60E94171AD0CF883909F48CC0B4
:1035500038F5883729F050F4883611F0803729F68D
:1035600083E080936B021092690257C0883809F497
:103570007BC0803919F0803809F0B7CF809169029B
:10358000803208F071C0E091690281E08E0F809373
:1035900069028091BB00F0E0E75BFD4F80833DC096
:1035A000803B39F0E0F4803A09F479C0883A09F0B8
:1035B0009CCF84E080936B021092460210924502E9
:1035C000E0914302F09144020995809145028111F6
:1035D0000FC081E0809345021092230209C0803C15
:1035E00009F4A6CF883C09F4A3CF883B09F07DCF2E
:1035F000E091460281E08E0F80934602F0E0ED5D9F
:10360000FD4F80818093BB009091460280914502DE
:1036100029C0809190028093BB0085EC8093BC0010
:1036200064CF90918F0280918E02981758F5E091A7
:103630008F0281E08E0F80938F02F0E0E259FD4F00
:103640008081E9CFE0918F0281E08E0F80938F021D
:103650008091BB00F0E0E259FD4F808390918F0292
:1036600080918E029817C8F285E8D8CFE0918F023A
:1036700081E08E0F80938F028091BB00F0E0E259D1
:10368000FD4F808380916D0281115CCF81E080933A
:103690006C0284EA8093BC0010926B0226CF85EC0A
:1036A0008093BC0010926B0280916902803230F4EA
:1036B000E0916902F0E0E75BFD4F108260916902E2
:1036C00070E0E0914702F091480289E492E00995A8
:1036D000109269020ACF10926A0234CF1F920F92A1
:1036E0000FB60F9211242F933F938F939F93AF9315
:1036F000BF938091D0019091D101A091D201B0915E
:10370000D3013091CF0123E0230F2D3758F50196D7
:10371000A11DB11D2093CF018093D0019093D101C1
:10372000A093D201B093D3018091D4019091D5019F
:10373000A091D601B091D7010196A11DB11D809332
:10374000D4019093D501A093D601B093D701BF9136
:10375000AF919F918F913F912F910F900FBE0F903E
:103760001F90189526E8230F0296A11DB11DD2CFF8
:103770001F920F920FB60F9211242F933F934F93E6
:103780005F936F937F938F939F93AF93BF93EF93C9
:10379000FF93E0910201F09103010995FF91EF91F0
:1037A000BF91AF919F918F917F916F915F914F9159
:1037B0003F912F910F900FBE0F901F9018951F9261
:1037C0000F920FB60F9211242F933F934F935F9355
:1037D0006F937F938F939F93AF93BF93EF93FF93D9
:1037E000E0910001F09101010995FF91EF91BF91E6
:1037F000AF919F918F917F916F915F914F913F9189
:103800002F910F900FBE0F901F9018951F920F923F
:103810000FB60F9211242F933F934F935F936F93A3
:103820007F938F939F93AF93BF93EF93FF9381EA1F
:1038300092E00E94270CFF91EF91BF91AF919F9171
:103840008F917F916F915F914F913F912F910F9049
:103850000FBE0F901F9018951F920F920FB60F92E8
:1038600011242F938F939F93EF93FF93E091B102D5
:10387000F091B2028081E091B702F091B80282FD2E
:103880001BC090818091BA028F5F8F732091BB0221
:10389000821741F0E091BA02F0E0EF55FD4F958FAD
:1038A0008093BA02FF91EF919F918F912F910F908A
:1038B0000FBE0F901F9018958081F4CF1F920F922A
:1038C0000FB60F9211242F933F934F935F936F93F3
:1038D0007F938F939F93AF93BF93CF93DF93EF9398
:1038E000FF938091CE01C091A203D0E087FF23C057
:1038F00010928500109284008091CE018F5F80939A
:10390000CE018091CE01082E000C990B8C179D07DB
:1039100024F48091CE018C307CF1809184009091D0
:10392000850084349C4908F423C1809184009091DF
:10393000850004961FC18091CE01082E000C990BC2
:103940008C179D07CCF6E091CE0128E0E202F00151
:103950001124EE5BFC4F808186FFCECFE091CE013B
:1039600088E0E802F0011124EE5BFC4F808160E00A
:103970008F730E943C0AC0CFE091CE0188E0E8023C
:10398000F0011124EE5BFC4F8781882309F468C0A5
:10399000A091CE01E091CE0128E0A202D001112435
:1039A000AE5BBC4F88E0E802F0011124EE5BFC4FF7
:1039B00015962D913C9181819281A091CE01E0914B
:1039C000CE018217930708F08AC028E0E202F001D6
:1039D0001124EE5BFC4F88E0A802D0011124AE5BFD
:1039E000BC4F17968C9121813281820F932F911DAC
:1039F00092838183A091CE01E091CE0128E0A202C2
:103A0000D0011124AE5BBC4F88E0E802F001112424
:103A1000EE5BFC4F15962D913C918181928182172E
:103A20009307F0F0A091CE01E091CE0128E0E202F0
:103A3000F0011124EE5BFC4F88E0A802D0011124B4
:103A4000AE5BBC4F15968D919C9192838183E091E2
:103A5000CE0128E0E202F0011124EE5BFC4F178258
:103A60008091840090918500E091CE0128E0E202EF
:103A7000F0011124EE5BFC4F21813281820F931FF4
:103A80009093890080938800E091CE0188E0E8025D
:103A9000F0011124EE5BFC4F808186FF0DC0E091A8
:103AA000CE0128E0E202F0011124EE5BFC4F8081A0
:103AB00061E08F730E943C0AFF91EF91DF91CF91FB
:103AC000BF91AF919F918F917F916F915F914F9136
:103AD0003F912F910F900FBE0F901F90189588E087
:103AE000E802F0011124EE5BFC4F28E0A202D001B5
:103AF0001124AE5BBC4F17962C9181819281821B61
:103B0000910992838183A091CE01E091CE0188E05A
:103B1000A802D0011124AE5BBC4F28E0E202F00104
:103B20001124EE5BFC4F15962D913C918181928181
:103B30002817390708F494CFA091CE01E091CE0167
:103B400088E0E802F0011124EE5BFC4F28E0A202BD
:103B5000D0011124AE5BBC4F15968D919C91928340
:103B60008183E091CE0188E0E802F001112475CF55
:103B700080E49CE990938900809388008FEF809384
:103B8000CE019ACFCF93DF931092980210929702B2
:103B900088EE93E0A0E0B0E08093990290939A02BF
:103BA000A0939B02B0939C0221E731E030939602F0
:103BB000209395021092A4021092A3028093A50272
:103BC0009093A602A093A702B093A80283E891E085
:103BD0009093A2028093A10285EC90E09093AE02B4
:103BE0008093AD0284EC90E09093B0028093AF029A
:103BF00080EC90E09093B2028093B10281EC90E06F
:103C00009093B4028093B30282EC90E09093B6025A
:103C10008093B50286EC90E09093B8028093B7024F
:103C20001092BA021092BB021092BC021092BD0216
:103C3000109226041092250489EE97E09093B40424
:103C40008093B3041092B6041092B5041092B80495
:103C50001092B70410923F0485E991E090932404F8
:103C600080932304109228041092270410923C049D
:103C700010923304109234041092350410923604DA
:103C80008FEF80933D0480934104E5E4F4E08BE5FD
:103C900094E0CFEFC1938E179F07E1F78EED9DE083
:103CA00090932C0480932B0483ED9EE090932E043C
:103CB00080932D048AE796E19093300480932F043B
:103CC0008DE39BE0909332048093310430E020E058
:103CD00040E069E087E294E00E94DE0D10928204E9
:103CE0001092810483EF97E090935C0480935B04CF
:103CF00083EA93E09093600480935F0481E0809373
:103D0000610410926204109290041092B004109218
:103D1000AC048093B1048093B2048DE991E0909358
:103D20005E0480935D0487E294E00E948E0F1092FF
:103D30007A041092790410927E0410927D048FEF21
:103D40009FEF90937C0480937B04909380048093F6
:103D50007F04E0915D04F0915E040280F381E02D28
:103D600087E294E0099582E698E09093840480933A
:103D7000830410929304C0935004C0935104C093E1
:103D800052041092BA041092B9041092BC0410921A
:103D9000BB041092BE041092BD041092C004109295
:103DA000BF041092C4041092C3041092C504109270
:103DB000C6041092C7041092C8041092C90410924D
:103DC000CA041092CB041092CC041092CE0410922C
:103DD000CD041092D0041092CF04E091A203EC30F5
:103DE00008F053C181E08E0F8093A203E093D104C9
:103DF00088E0E89FF0011124EE5BFC4F88EB9BE02C
:103E0000928381831092D60484E091E09093D5044C
:103E10008093D40462E082E00E94A90A62E083E019
:103E20000E94A90AE8E3F2E0E491F0E0EE0FFF1F40
:103E3000E45DFD4FA591B491B093D904A093D8044B
:103E4000EAE1F2E044914093DC04E9E3F2E0E4913A
:103E5000F0E0EE0FFF1FE45DFD4FC591D491D093CC
:103E6000DB04C093DA04EBE1F2E0E491E093DD04DB
:103E70001092DF041092E0041092E1041092E20428
:103E80002BE33FE1C9010197F1F79C91842F89232E
:103E900091E009F490E08881E82309F09260909322
:103EA000DE0428ED34E030933F0320933E0389E99C
:103EB00098E19093010180930001809169008C7FCB
:103EC000816080936900E89A81E08093E3043093F5
:103ED0004103209340038FE998E19093030180937D
:103EE000020180916900837F846080936900E99A70
:103EF00082E08093E30482E390E09093E704809370
:103F0000E60480E991E09093E9048093E80480E27C
:103F100093E09093EB048093EA0488EE93E090930F
:103F2000ED048093EC041092EF041092EE041092D2
:103F3000F1041092F0041092F3041092F204109223
:103F4000F5041092F4041092F7041092F604109203
:103F5000F9041092F8041092FB041092FA041092E3
:103F6000FD041092FC041092FF041092FE041092C3
:103F7000010510920005109203051092020510929F
:103F8000050510920405109207051092060510927F
:103F900009051092080510920B0510920A0510925F
:103FA0000D0510920C0510920F0510920E0510923F
:103FB000110510921005109213051092120510921F
:103FC00015051092140510921705109216051092FF
:103FD00018058FEF9FEF90931A0580931905909322
:103FE0001C0580931B0510921D0510921E05109252
:103FF0001F051092200510922105109222051092A3
:104000002305109224051092250510922605109282
:1040100027051092280510922A051092290581E0A3
:1040200090E090932C0580932B0510922E05109212
:104030002D0510922F051092300510923105109227
:10404000320584E090E09093E5048093E40462E01C
:104050000E94A90A109236051092350589E19CEF5D
:10406000AFEFBFEF8093370590933805A0933905E4
:10407000B0933A0510923B0510923C0510923D0515
:1040800010923E05DF91CF910895C093D104C2CE26
:10409000789484B5826084BD84B5816084BD85B523
:1040A000826085BD85B5816085BD80916E0081602F
:1040B00080936E00109281008091810082608093D5
:1040C00081008091810081608093810080918000D7
:1040D0008160809380008091B10084608093B10002
:1040E0008091B00081608093B00080917A008460FC
:1040F00080937A0080917A00826080937A00809128
:104100007A00816080937A0080917A008068809341
:104110007A001092C100E091B102F091B20282E007
:104120008083E091AD02F091AE021082E091AF0287
:10413000F091B00287E680831092B902E091B50257
:10414000F091B60286E08083E091B302F091B40270
:10415000808180618083E091B302F091B40280811C
:1041600088608083E091B302F091B402808180681E
:104170008083E091B302F091B40280818F7D8083CF
:1041800062E971E081EA92E00E94960C69E571E0D3
:1041900081EA92E00E94960C6CEE70E081EA92E077
:1041A0000E94960C80E89AE1A6E0B0E08093330488
:1041B00090933404A0933504B0933604E0912B041B
:1041C000F0912C0430E020E040E06AE087E294E0E7
:1041D00009950E94AF190E9488198111FCCF0E9495
:1041E0006508E0912B04F0912C0430E020E040E0E1
:1041F0006BE087E294E009956EEC70E081EA92E072
:104200000E94960C1092BA041092B9048091C304D3
:104210009091C404892B31F481E090E09093C20422
:104220008093C1048091D1048C3008F04AC061E0D1
:1042300086E00E94A90AE091D10408E0E09FD00145
:104240001124AE5BBC4F8C91807C86608C93109265
:10425000D2041092D3042CE08E2F622F0E948B2563
:10426000829FB001112430E020E0DB01A20FB31FD8
:10427000C3E0AA0FBB1FCA95E1F7AE5BBC4F9C9190
:1042800096FD16C02F5F3F4F2C30310571F781111D
:104290000FC01092800082E0809381001092850010
:1042A00010928400B19A80916F00826080936F00B9
:1042B00018E0E19FF0011124EE5BFC4F80818064E7
:1042C0008083B090D10428E0B29E80011124F801CF
:1042D000EE5BFC4F88E090E0948383838091D2046E
:1042E000C8E8D0E0C81BD10987FDD395CC0FDD1FEE
:1042F000CC0FDD1F6E010D2E000CEE08FF08809123
:10430000D30468E572E0681B710987FD7395660F39
:10431000771F660F771F072E000C880B990B6C19FF
:104320007D098E099F09F3E0660F771F881F991F8B
:10433000FA95D1F724EB30E040E050E00E943025C0
:10434000C20ED31EE41EF51E3BE03B1588F0CC15D3
:10435000DD050CF4E6018FB7F894F801EE5BFC4F35
:104360002297CC0FDD1FD683C58394E697838FBF3A
:1043700068E070E081ED94E00E94DD0C68EB70E095
:1043800081EA92E00E94960C61E08BE00E94A90A0B
:1043900061E08CE00E94A90A61E089E00E94A90A1C
:1043A00061E08AE00E94A90A61E08FE00E94A90A08
:1043B00061E08EE00E94A90A61E081E10E94A90A01
:1043C00061E080E10E94A90A68E970E081EA92E078
:1043D0000E94960C63E471E081EA92E00E94960CE0
:1043E00083E294E02BEB37E13093F3042093F20463
:1043F0009093F5048093F40429EA38E13093F904AA
:104400002093F8049093FB048093FA0480912B0589
:1044100090912C058230910514F482E090E0909305
:104420002C0580932B0563E271E081EA92E00E9403
:10443000960C60E071E081EA92E00E94960C109286
:1044400034051092330562E771E081EA92E00E9440
:10445000960C33243394EE24E394F12C22E0422E84
:10446000512C8091E304823008F081C0F89488EDEB
:1044700094E00E9457188091DF049091E004A0918D
:10448000E104B091E204789480933B0590933C055D
:10449000A0933D05B0933E058091E4049091E5041E
:1044A00097FDBAC00E94130A2FB7F8948090D001EC
:1044B0009090D101A090D201B090D3012FBF8092F3
:1044C000210590922205A0922305B0922405209107
:1044D0001B0530911C058217930709F04AC04091D3
:1044E0001D0550911E0560911F05709120059501D5
:1044F0008401041B150B260B370BB901A801009191
:10450000E6041091E70430E020E04017510762070D
:10451000730720F090931A0580931905C09119052F
:10452000D0911A05C090EE04D090EF04809125053B
:1045300090912605A0912705B0912805B501A40109
:10454000481B590B6A0B7B0B809116059091170540
:104550008230910509F413C1CCF4009751F1019711
:1045600009F4D8C0109217051092160555C0F8949A
:1045700082CF80921D0590921E05A0921F05B092D9
:10458000200590931C0580931B05C8CF86309105AC
:1045900009F475C18730910509F4B6C1039711F785
:1045A000CC16DD0609F0FBC0F0921705E092160567
:1045B000B8C080911805811114C08091EC049091CD
:1045C000ED04B0E0A0E084179507A607B70748F40C
:1045D000E0911405F0911505309719F03092180507
:1045E0000995CC16DD06C1F4F0921705E092160588
:1045F0008091210590912205A0912305B091240579
:104600008093250590932605A0932705B093280550
:1046100010922A05109229058091C1049091C2043C
:104620008130910529F52091C3043091C404232BD6
:10463000F9F49093C4048093C3040E94AF1980914D
:10464000B9049091BA048130910509F4EBC108F4E2
:104650006EC1029709F4DEC10E9488198111EFCF63
:104660001092C2041092C1041092C4041092C304A8
:104670002FB7F8948091D0019091D101A091D201EF
:10468000B091D3012FBF8093C5049093C604A0932B
:10469000C704B093C8044091C9045091CA04609102
:1046A000CB047091CC048C019D01041B150B260BCF
:1046B000370BB901A8014B3F510561057105E8F0C1
:1046C0008093C9049093CA04A093CB04B093CC0404
:1046D0008091CD049091CE04019709F4BCC1F09271
:1046E000CE04E092CD048091C3049091C404892B40
:1046F00021F4F092C204E092C10420E030E0232BC8
:1047000009F4AFCE0E94130C882309F4A7CE0E94AF
:104710000000A4CECC16DD0669F050921705409239
:1047200016058092250590922605A0922705B09245
:10473000280572CF8091EA049091EB04B0E0A0E0EC
:1047400084179507A607B70708F066CFE091020522
:10475000F0910305309709F00995E0910405F09177
:104760000505309729F08091060590910705099578
:1047700026E030E030931705209316054DCF809149
:10478000290590912A05019690932A058093290581
:1047900083E090E090931705809316053DCF8091BC
:1047A000290590912A050091E8041091E90430E070
:1047B00020E0401751076207730740F420912B0552
:1047C00030912C058217930709F026CF813091058F
:1047D00079F5E091F004F091F104309709F0099532
:1047E000E091F204F091F3048091F4049091F504C7
:1047F000309789F5109217051092160510922A0528
:10480000109229052FB7F8948091D0019091D10191
:10481000A091D201B091D3012FBF80932505909331
:104820002605A0932705B093280510921805F4CE0D
:10483000029799F4E091F604F091F704309709F0AB
:104840000995E091F804F091F9048091FA049091AF
:10485000FB04309779F20995CDCFE091FC04F091FB
:10486000FD04309709F00995E091FE04F091FF04F2
:104870008091000590910105309769F7BBCFCC1668
:10488000DD0639F0E7E0F0E0F0931705E093160558
:10489000C3CE80912F0590913005A0913105B09144
:1048A0003205881A990AAA0ABB0A80912D059091AF
:1048B0002E05B0E0A0E088169906AA06BB0608F40B
:1048C000ABCEE0910E05F0910F05309709F00995F8
:1048D000E0911005F0911105309729F080911205B3
:1048E0009091130509958091210590912205A09141
:1048F0002305B091240580932F0590933005A09354
:104900003105B093320588CEE0910805F091090594
:10491000309709F00995E0910A05F0910B05309761
:1049200009F468CF80910C0590910D0594CFF09219
:10493000D004E092CF0480918104909182048A5443
:10494000924059F00AE412E010938204009381042B
:10495000C8010E9478120E94D4080CE110E02CE4F7
:1049600030E044E050E064E370E087E294E00E94CD
:10497000E00F882309F470CE98EAC92E91E0D92E71
:10498000C4E0D0E04E011FEF811A910A84012CE4AB
:1049900030E0AE0164E370E087E294E00E94E00F53
:1049A000882329F12090B104560184E3682E712CEC
:1049B00011E0F5018491812319F12092B10400E006
:1049C00021E030E0AE01B30187E294E00E94CD1017
:1049D000FFEF6F1A7F0A110F21F40FEFA01AB00A30
:1049E00011E02CE46216710421F72092B10433E047
:1049F000C30ED11CE401CC31D10509F0C3CF2CCEBC
:104A00008091B0048111E4CF81E0211080E0809397
:104A1000B104D5CF8091CD049091CE046FEF7FEF9C
:104A2000019721F06091BB047091BC0490E080E09C
:104A30000E94B7196091BB047091BC0481E090E0C2
:104A40000E94B7196091BB047091BC0482E090E0B1
:104A50000E94B71901CE1092CE041092CD0443CE1D
:104A6000052E97FB1EF400940E94472557FD07D0A2
:104A70000E945A2507FC03D04EF40C94472550950C
:104A80004095309521953F4F4F4F5F4F089590953A
:104A90008095709561957F4F8F4F9F4F08950E942D
:104AA0007C25A59F900DB49F900DA49F800D911D16
:104AB00011240895A1E21A2EAA1BBB1BFD010DC0F3
:104AC000AA1FBB1FEE1FFF1FA217B307E407F507BE
:104AD00020F0A21BB30BE40BF50B661F771F881F9A
:104AE000991F1A9469F760957095809590959B0130
:104AF000AC01BD01CF010895A29FB001B39FC001D9
:104B0000A39F700D811D1124911DB29F700D811DF9
:104B10001124911D0895991B79E004C0991F9617DF
:104B200008F0961B881F7A95C9F780950895EE0FB7
:104B3000FF1F0590F491E02D0994DC0101C06D93F5
:104B400041505040E0F70895FB01DC0101900D92C7
:0A4B50000020E1F70895F894FFCF6C
:104B5A00A80BA80B00642D641815A015C019FF181E
:104B6A0015A115C819FF1815AE19FF1815AF19FFA9
:104B7A001815AE15D5168015A8163F15D3160015AB
:104B8A0040158D16141520160015A115C815DA162C
:104B9A0002158116CF15D916F115DB1640152E15FB
:104BAA00A415A619FF0001140A6464323200127AAD
:104BBA000000042896100800008000400000000051
:104BCA0000BB098E09A618640987097409650900DA
:104BDA00000000490CA90BD60BBD0C070CE50BF91C
:104BEA000B000000000418DC17A618A5188E0F1970
:064BFA00107E0F0D0A0001
:00000001FF
