:100000000C94F3000C9433100C940C100C941B0102
:100010000C941B010C941B010C941B010C941B01F0
:100020000C941B010C941B010C941B010C94B2103A
:100030000C941B010C941B010C941B010C941B01D0
:100040000C94C20F0C941B010C9480100C945A1049
:100050000C941B010C941B010C941B010C941B01B0
:100060000C94A30E0C941B01427574746F6E20499E
:100070006E697469616C697A6174696F6E20636F0F
:100080006D706C6574656400427574746F6E2049A0
:100090006E697469616C697A6174696F6E0000FFE2
:1000A00000E0FF07F0000F38001C180018180018B7
:1000B000180018180018180018FCFF3FFFFFFFFF7A
:1000C000FFFFFFEFFFFF83FFFF81FFFF81FFFFC304
:1000D000FFFFC7FFFFC7FFFFE7FFFFFFFFFFFFFFB8
:1000E000FFFFFFFCFF3F4F4C454420496E69746998
:1000F000616C697A6174696F6E20636F6D706C6595
:10010000746564004F4C454420496E697469616CA4
:10011000697A6174696F6E00536166656475696EB2
:100120006F20696E697469616C697A6174696F6E58
:1001300020636F6D706C65746564005361666564FF
:1001400075696E6F20696E697469616C697A617432
:10015000696F6E0050757A7A6C6520696E69746992
:10016000616C697A6174696F6E20636F6D706C6524
:100170007465640050757A7A6C6520696E6974697B
:10018000616C697A6174696F6E0000000000240080
:1001900027002A0000000000250028002B00000096
:1001A0000008000201000003040700000000000036
:1001B0000000010204081020408001020408102001
:1001C000010204081020000000002300260029007E
:1001D00004040404040404040202020202020303ED
:1001E00003030303161211241FBECFEFD8E0DEBFB6
:1001F000CDBF11E0A0E0B1E0ECEFFCE202C0059061
:100200000D92A63AB107D9F728E0A6EAB1E001C0FD
:100210001D92AE39B207E1F710E0C3EFD0E004C0A1
:100220002197FE010E946F16C23FD107C9F70E94B5
:1002300071140C947C160C940000662329F06A302B
:1002400019F0862F90E008958FEF9FEF0895AF92F9
:10025000BF92CF92DF92EF92FF920F93CF93DF93F3
:10026000EC01DA017901942F9770E1E0F0E09F0151
:10027000092E01C0220F0A94EAF7522F6E018AE874
:10028000C80ED11CF601808140E0823018F4422F64
:10029000813049F15D01F8EFAF22E8ADF9AD288179
:1002A0003981D90150968C918A9D90018B9D300D9A
:1002B0001124620F731FDF01A60FB71F01111AC0AF
:1002C000EA0EFB1E8C91842B85278D93AE15BF05FE
:1002D000C9F7DF91CF910F91FF90EF90DF90CF9012
:1002E000BF90AF90089550E0D5CF440F550FE11463
:1002F000F10479F33C91342B35273C939F5F977041
:10030000E1E0EE1AF1089111F0CF2CAD3DADA20F56
:10031000B31FF6018081823028F4813009F051E06A
:1003200041E0E5CF51E0E3CF80E0089590E080E048
:100330000895CF93DF93CCE3D7E08FAFEAADFBAD69
:100340000190F081E02D80E497E00995EAADFBADE6
:100350000280F381E02D80E497E0DF91CF91099452
:10036000E0914407F091450730E020E040E060E193
:1003700080E497E00994CF92DF92EF92FF920F937F
:100380001F93CF93DF9300D000D01F92CDB7DEB77D
:10039000C0907A0700917B07E0914007F0914107F8
:1003A000D188102FF12CE12CE0914007F09141070A
:1003B000808920917807309179071C821D838B8377
:1003C00048E0849FC00111248E9DA0018F9D500D97
:1003D0009E9D500D1124240F351F3A832983E091EF
:1003E0004407F09145079E012F5F3F4F41E06FE0CA
:1003F00080E497E009951F5F812F801B8C1528F4FE
:100400008FEFE81AF80A1D1578F20F900F900F90F1
:100410000F900F90DF91CF911F910F91FF90EF9070
:10042000DF90CF9008959B01DC011896ED91FC912F
:1004300041E067E1099420914302260F3327331FDF
:1004400021323105ECF420916902FC0190E080E05A
:10045000243069F082E00895A09143022191AC011B
:100460004F5D5D4FA40FB52FB11D2C9301968617DC
:1004700098F380914302680F6093430280E00895EF
:1004800081E00895089508950895E09118028091FB
:100490001702E81730F4F0E0E950FE4F808190E059
:1004A00008958FEF9FEF08959091180280911702A1
:1004B0002FEF3FEF981748F4E92FF0E0E950FE4F97
:1004C000208130E09F5F90931802C90108958091C8
:1004D000170290911802891B990B0895CF92DF9211
:1004E000EF92FF920F931F93CF93DF937C01CB0189
:1004F0008A012091F601222389F0EB016B01C40EE1
:10050000D51ECC15DD0569F06991D701ED91FC91FF
:100510000190F081E02DC7010995F3CF642F0E946F
:100520001B02C801DF91CF911F910F91FF90EF90B7
:10053000DF90CF900895CF93DF931F92CDB7DEB7B2
:1005400069832091F6012223F9F0209119022032CB
:1005500058F021E030E0FC013383228390E080E01A
:100560000F90DF91CF91089580911A02E82FF0E06B
:10057000EA52FE4F998190838F5F80931A02809395
:10058000190281E090E0ECCF61E0CE0101960E947B
:100590001B02F7CF833081F028F4813099F082304C
:1005A000A9F008958730A9F08830C9F08430B1F4FB
:1005B000809180008F7D03C0809180008F77809331
:1005C0008000089584B58F7784BD089584B58F7DAC
:1005D000FBCF8091B0008F778093B0000895809119
:1005E000B0008F7DF9CF1F93CF93DF93282F30E09A
:1005F000F901E256FE4F8491F901EE54FE4FD49179
:10060000F901E053FE4FC491CC23A9F0162F8111BC
:100610000E94CA02EC2FF0E0EE0FFF1FEC56FE4FD7
:10062000A591B4918FB7F894EC91111108C0D095B1
:10063000DE23DC938FBFDF91CF911F910895DE2BD6
:10064000F8CF1092690281E080936B0210926A02E7
:1006500061E082E10E94F30261E083E10E94F30223
:10066000E9EBF0E080818E7F808380818D7F8083C5
:1006700088E48093B80085E48093BC000895CF930C
:10068000DF9391E0909320028823B9F0C091B800E5
:10069000D091BA008091BC008A7B8093BC0060E05E
:1006A00082E10E94F30260E083E10E94F3020E9473
:1006B0002103D093BA00C093B800DF91CF91089581
:1006C000CF93DF9390E0FC01EE54FE4F24918053D2
:1006D0009E4FFC0184918823C9F090E0880F991FF8
:1006E000FC01E657FE4FA591B491FC01EC56FE4F7C
:1006F000C591D49161110DC09FB7F8948C9120954C
:1007000082238C938881282328839FBFDF91CF91F8
:100710000895623051F49FB7F8943C91822F8095F0
:1007200083238C93E8812E2BEFCF8FB7F894EC9135
:100730002E2B2C938FBFEACF3FB7F8948091D20134
:100740009091D301A091D401B091D50126B5A89B79
:1007500005C02F3F19F00196A11DB11D3FBFBA2F53
:10076000A92F982F8827BC01CD01620F711D811D13
:10077000911D42E0660F771F881F991F4A95D1F798
:1007800008950895AF92BF92CF92DF92EF92FF92B9
:100790000F931F93CF93DF936C017B018B01040FA9
:1007A000151FEB015E01AE18BF08C017D10759F045
:1007B0006991D601ED91FC910190F081E02DC60187
:1007C0000995892B79F7C501DF91CF911F910F9181
:1007D000FF90EF90DF90CF90BF90AF900895FC0115
:1007E000538D448D252F30E0842F90E0821B930B96
:1007F000541710F0CF96089501970895FC01918D3C
:10080000828D981761F0A28DAE0FBF2FB11D5D963E
:100810008C91928D9F5F9F73928F90E008958FEFE0
:100820009FEF0895FC01918D828D981731F0828D94
:10083000E80FF11D858D90E008958FEF9FEF0895EB
:10084000FC01918D228D892F90E0805C9F4F821B4F
:1008500091098F73992708958BE992E00E942004F3
:1008600021E0892B09F420E0822F089580E090E0B8
:10087000892B29F00E942C0481110C94000008950A
:10088000FC01A48DA80FB92FB11DA35ABF4F2C9105
:10089000848D90E001968F739927848FA689B789FC
:1008A0002C93A089B1898C91837080648C93938DF3
:1008B000848D981306C00288F389E02D80818F7D96
:1008C00080830895EF92FF920F931F93CF93DF934E
:1008D000EC0181E0888F9B8D8C8D98131AC0E8897C
:1008E000F989808185FF15C09FB7F894EE89FF894B
:1008F0006083E889F98980818370806480839FBFE9
:1009000081E090E0DF91CF911F910F91FF90EF90E8
:100910000895F62E0B8D10E00F5F1F4F0F731127F8
:10092000E02E8C8D8E110CC00FB607FCFACFE88933
:10093000F989808185FFF5CFCE010E944004F1CF77
:10094000EB8DEC0FFD2FF11DE35AFF4FF0829FB7A7
:10095000F8940B8FEA89FB8980818062CFCFEF9278
:10096000FF920F931F93CF93DF938C017B01D0E015
:10097000C0E0F701EC0FFD1F6491662339F0C80158
:100980000E946204892B11F02196F3CF42E050E0DF
:1009900063EA71E0C8010E94C2038C0F9D1FDF91C2
:1009A000CF911F910F91FF90EF900895CF93DF9318
:1009B000EC01888D8823B9F0AA89BB89E889F98977
:1009C0008C9185FD03C0808186FD0DC00FB607FCAC
:1009D000F7CF8C9185FFF2CF808185FFEDCFCE01DF
:1009E0000E944004E9CFDF91CF910895DC011A966F
:1009F000ED91FC9130E020E00994DC011696ED9138
:100A0000FC9130E020E040E069E10994DC011696B9
:100A1000ED91FC9130E020E040E068E109949A011A
:100A2000DC011696ED91FC91462F67E10994EF9257
:100A3000FF920F931F93CF93DF931F92CDB7DEB733
:100A40007C018B01D8016C91673129F150F465313B
:100A5000A0F40F90DF91CF911F910F91FF90EF9035
:100A600008956A3118F16E3FA1F7F8014181498379
:100A700069E2C7010E94F6040BC0F8014181498375
:100A8000D7011696ED91FC9130E020E0C701099561
:100A90000E5F1F4FD7CFF80181818983AE014F5F71
:100AA0005F4F61E0C7010E940F05F2CF0F5F1F4F3C
:100AB000D7011696ED91FC9130E020E040E0C701AF
:100AC0000995C0CF462FDC011696ED91FC9130E0E0
:100AD00020E066E10994462FDC011696ED91FC9129
:100AE00030E020E065E10994EF92FF920F931F93AD
:100AF000CF93DF93EC01042F79016D3009F446C0E8
:100B000050F46B30C9F1693009F49FC06A3009F4C0
:100B100065C080E046C06E3009F452C06F3099F76E
:100B20000E940605F7011381110F110F110F6C8937
:100B3000160F60E4CE010E946B05612F62956F7005
:100B40006061CE010E946B05612F6F70CE010E9423
:100B50006205F7016481606BCE010E946205F701B6
:100B6000408151816281660F660F660FCE010E943F
:100B70000F050150A1F72EC06BE171E0442311F085
:100B800066E171E0CE010E9417050AC0411110C054
:100B90006FE071E00E941705E881F98182898C8BF2
:100BA00081E0DF91CF911F910F91FF90EF90089519
:100BB00068E071E00E941705E881F9818389EFCF31
:100BC0000E94060561E8CE010E946B05602FCE01F0
:100BD0000E946205CE010E94FD04E2CFEA85FB85FA
:100BE00030E020E040E068E2CE010995EE81FF812F
:100BF00030E020E040E064E1CE01099541E06BE4A3
:100C0000CE010E94F604E881F981448169E2CE01B7
:100C10000E94F60440E06BE4CE010E94F604E881F5
:100C2000F981448169E2CE010E94F60441E06BE45F
:100C3000CE010E94F604E881F981458169E2CE0186
:100C40000E94F60460E271E09DCF85E591E0998312
:100C500088831C8AA5CFDC011896ED91FC9130E0C9
:100C600020E040E069E10994DC011896ED91FC91E7
:100C700030E020E040E068E10994CF93DF931F92D9
:100C8000CDB7DEB76983BE016F5F7F4F0E9413024D
:100C90000F90DF91CF910895EF92FF921F93CF9322
:100CA000DF93EC01162F7A010E94340660E4CE0136
:100CB0000E943D06E885F9859701412F67E1CE0145
:100CC0000995CE01DF91CF911F91FF90EF900C9489
:100CD0002B06EF92FF921F93CF93DF93EC01142F1B
:100CE0007901663181F138F4643109F44BC0653122
:100CF00079F080E022C06831C9F150F16931C9F75B
:100D00008091CB01882391F1CE010E942B062EC049
:100D10008091CB01882319F0CE010E942B06CE01D1
:100D20000E94340660E0CE010E943D06612FCE0194
:100D30000E943D0681E08093CB01DF91CF911F910E
:100D4000FF90EF900895642F0E943D0681E0F5CF5B
:100D50008091CB01882319F0CE010E942B06A701B8
:100D6000193138F4612FCE010E944C061092CB014C
:100D7000EDCF68E1CE010E944C06185188E1E80EE3
:100D8000F11CEDCF8E898F3F11F488E78E8BE885BB
:100D9000F9859701412F64E1CE01DF91CF911F9139
:100DA000FF90EF9009940F93FC01E05CFF4F0190DE
:100DB000F081E02D4E1B5F0BDC01D496ED91FC9190
:100DC00009950F910895CF93DF93FC01A081B18124
:100DD00082AD90E09C0143E0220F331F4A95E1F77A
:100DE00037AF26AF50962C91509748E0249F900142
:100DF000112435AF24AF23AD30E0B90153E0660FC5
:100E0000771F5A95E1F7EF01C05CDF4F7983688364
:100E100051964C915197E901C80FD91F50E04C17DA
:100E20005D0718F4CA01821B930BEF01CE5BDF4F05
:100E300079836883229623E0880F991F2A95E1F72A
:100E4000860F971F99838883229654968D919C9143
:100E5000559799838883E85BFF4F56968D919C91B7
:100E600091838083DF91CF9108950F931F93FC01AD
:100E7000E25BFF4F0190F081E02DDC01A05BBF4FF2
:100E80000D90BC91A02D4A175B0740F4E017F107C5
:100E900048F00417150730F080E019C0E017F1079B
:100EA000C0F3FACFFC01E65BFF4F40815181845BC8
:100EB0009F4FFC01808191816817790758F481E088
:100EC0004217530720F081E02617370728F71F91B4
:100ED0000F91089542175307B0F3DECF2F923F9240
:100EE0004F925F926F927F928F929F92AF92BF923A
:100EF000CF92DF92EF92FF920F931F93CF93DF93E6
:100F0000CDB7DEB72A970FB6F894DEBF0FBECDBFC0
:100F10009A878987865B9F4F9A838983FC01118218
:100F20001082E985FA85EA5BFF4F40805180298570
:100F30003A85245B3F4F3C832B83F90151824082E9
:100F4000E985FA85EE5BFF4F2080318029853A855F
:100F5000225B3F4F3E832D83F90131822082E98558
:100F6000FA85EC5BFF4F6080718029853A85205BB4
:100F70003F4F38872F83F90171826082E985FA85B6
:100F8000E85AFF4FE080F180E985FA85EC5AFF4F7F
:100F9000A080B180E985FA85EA5AFF4FC080D180F0
:100FA000E985FA85EE5AFF4F80809180870195018F
:100FB000A601B40189859A850E94350729853A855D
:100FC0002C573F4F3A87298781111BC0F9011082A6
:100FD0002A960FB6F894DEBF0FBECDBFDF91CF913A
:100FE0001F910F91FF90EF90DF90CF90BF90AF9047
:100FF0009F908F907F906F905F904F903F902F9039
:10100000089581E0E985FA8580838114910421F0B7
:10101000E981FA8191828082A414B50420F4EB81E5
:10102000FC81B182A0822C143D0420F4ED81FE816C
:10103000D182C082E614F70458F6EF81F885F18278
:10104000E082C6CF0F93CF93DF93E02FDC01AC5744
:10105000BF4FFC91FF2309F460C02115310509F44D
:101060005CC02230310538F0023009F04AC06F5FB1
:101070007F4F621B730B0E2F0170E0FD52C0FC010D
:10108000E25BFF4F0190F081E02D4E175F0708F4FF
:1010900044C0FC01E05BFF4F0190F081E02D4E1752
:1010A0005F07D8F5FC01E45BFF4F0190F081E02D74
:1010B000DC01A65BBF4F0D90BC91A02D260F371F02
:1010C0002617370738F56E177F0718F59F0121504F
:1010D0003109A217B30708F56A177B0708F4BD01A9
:1010E0002E173F0708F4F901E61BF70BEC01AEA938
:1010F000BFA914960D90BC91A02D9F01FD010995EB
:101100000CC0033009F0B7CF4F5F5F4F421B530B4A
:10111000B2CFBD016E177F07E0F2DF91CF910F9143
:101120000895FC01E65BFF4F0190F081E02D6E1702
:101130007F0798F3FC01E45BFF4F0190F081E02D05
:101140006E177F0750F7FC01E05BFF4F0190F081C5
:10115000E02DDC01A25BBF4F0D90BC91A02D240FB0
:10116000351F24173507A8F44E175F0788F49F0131
:1011700021503109A217B30780F64A175B0708F41C
:10118000AD012E173F0708F4F901E41BF50BAECFB4
:10119000AD014E175F0708F6EDCF213069F038F04A
:1011A000223079F0840F911D47FD9A950895860F9E
:1011B000911D67FD9A950895841B910947FD9395AC
:1011C0000895861B910967FD93950895213069F074
:1011D00038F0223079F0861B910967FD93950895C8
:1011E000840F911D47FD9A950895860F911D67FD07
:1011F0009A950895841B910947FD939508953F9210
:101200004F925F926F927F928F929F92AF92BF9216
:10121000CF92DF92EF92FF920F931F93CF93DF93C2
:101220007C01162F442EEC01C25ADF4F5E806F8086
:101230006C018AE8C80ED11C78847518312E71169D
:1012400008F4372C8C809D800E85202F462D652D2F
:101250008A819B810E94CD085C01202F462D652D3F
:10126000C4010E94E608AC01442079F08C85F601A7
:101270008083232D30E0B501C7010E942208171595
:1012800048F017196394512CD7CF8B858111F7CF74
:101290008D85EDCF150D1E836F82DF91CF911F914C
:1012A0000F91FF90EF90DF90CF90BF90AF909F9005
:1012B0008F907F906F905F904F903F900895DC01EA
:1012C0001A964C911A97ED91FC911197249130E068
:1012D000042E02C0359527950A94E2F7842F860FD5
:1012E000883068F031961196FC93EE93E49198E083
:1012F000941B01C0EE0F9A95EAF72E2B88501A9690
:101300008C938FEF9FEF01C0880F6A95EAF7809565
:1013100082230895FC01E60FF11D849190E0982F3F
:1013200088273196E4918E0F911D0895CF92DF9218
:10133000EF92FF920F931F93CF93DF93EC01962FC1
:10134000683109F44BC0B901993130F49431C9F0D6
:10135000973189F080E006C0993109F461C090327C
:10136000C9F781E0DF91CF911F910F91FF90EF902E
:10137000DF90CF90089550E08FE892E00E946E02D7
:10138000F0CF8C859D85AE85BF85892B8A2B8B2BD5
:1013900071F4E881F981A585B0E020EA36E841E002
:1013A00050E00E9427166C877D878E879F8710925A
:1013B00018021092170210921A02109219020E943B
:1013C000210382E492E0909342028093410283E4FD
:1013D00092E09093460280934502C3CF2C853D85D1
:1013E0004E855F8560E074E284EF90E00E943216E3
:1013F000205131094109510956954795379527954F
:101400002093B8008E8990E09595879591E0909310
:10141000F6018093CA0110921A0210921902A1CF0C
:10142000D0911902D13208F093C0C091CA010E9434
:101430009C036B017C0180916902811164C082E090
:101440008093690281E080936B028FEF8093680242
:1014500010928D02D0938C02A6EDB1E0ECE6F2E0A2
:1014600080E0D8137CC010928E0280918E02CC0F47
:10147000C82BC0938E0280916A02813009F073C03C
:1014800010926A020E949C036B017C0180918E0283
:101490008093BB0080911C0290911D02A0911E02BE
:1014A000B0911F02892B8A2B8B2B99F00E949C03F1
:1014B00000911C0210911D0220911E0230911F020A
:1014C0006C197D098E099F09061717072807390728
:1014D000D8F18091BC0083FDD9CF85EC8093BC000E
:1014E0000E949C036B017C01809169028230E9F1CA
:1014F000809168028F3F61F180916802803241F1F2
:101500008091680225C080911C0290911D02A091DB
:101510001E02B0911F02892B8A2B8B2B09F48BCFD3
:101520000E949C0300911C0210911D0220911E023A
:1015300030911F026C197D098E099F090617170744
:101540002807390708F077CF80911B020E943F03DC
:1015500010921A02109219021092F60102CF9D9178
:1015600091938F5F7ECF85EEB9CF80911C029091D1
:101570001D02A0911E02B0911F02892B8A2B8B2B7A
:1015800009F4B2CF0E949C0300911C0210911D022D
:1015900020911E0230911F026C197D098E099F094E
:1015A000061717072807390708F09ECFCDCF8F926F
:1015B0009F92AF92BF92CF92DF92EF92FF921F93D2
:1015C000CF93DF93EC016C32B0F46A32E8F5683205
:1015D00041F1693209F445C080E06034B0F16F73C5
:1015E000FE01E60FF11D868D8F3F71F1603108F02D
:1015F0006EC0642F13C06D3209F457C068F384EBDA
:10160000860F823048F76F73C60FD11D8E8D411142
:101610005AC061E00E94600360E08E8D0E94F30278
:1016200013C07C012EE1E20EF11CD0E0F7018191A4
:101630007F018F3F31F061E0D03108F062E00E941D
:101640006003DF5FD63191F781E0DF91CF911F9189
:10165000FF90EF90DF90CF90BF90AF909F908F90D2
:101660000895C42ED12CF12CE12C0E949C034B0137
:101670005C01C114D104E104F10431F30E949C0324
:10168000681979098A099B09683E734081059105AB
:1016900080F3F1E0CF1AD108E108F10828EE820EBC
:1016A00023E0921EA11CB11CE4CF85E090E0433002
:1016B00010F082E090E0880F991F880F991F05971E
:1016C0000197F1F7C1CF62E00E946003BDCF282FE0
:1016D00030E0F901E256FE4F8491F901EE54FE4FDD
:1016E000F490F901E053FE4F1491112379F0811128
:1016F0000E94CA02E12FF0E0EE0FFF1FEA53FE4FF7
:10170000A591B491EC91FE2281E009F480E0898FEB
:101710009BCFCF92DF92EF92FF920F931F93CF93C5
:10172000DF936C01EB017B01E40EF51E10E000E09D
:10173000CE15DF0561F06991D601ED91FC91019024
:10174000F081E02DC6010995080F191FF1CFC801DE
:10175000DF91CF911F910F91FF90EF90DF90CF908D
:1017600008952F923F924F925F926F927F928F9245
:101770009F92AF92BF92CF92DF92EF92FF920F9320
:101780001F93CF93DF93CDB7DEB728970FB6F894AA
:10179000DEBF0FBECDBF7C016C0124E0C20ED11CA8
:1017A000FC01E057FF4F0190F081E02DC601099543
:1017B0008C018E3F9F4F08F061C0370184E9680EAD
:1017C000711CF3010190F081E02DFD83EC83570142
:1017D000F2E9AF0EB11CF50180809180970120598C
:1017E0003F4F3B832A83F9018081813009F470C027
:1017F00008F45FC0823009F476C0833009F482C0F7
:10180000F701EC59FF4F9182808232962C813D8105
:101810003183208338978081918147969D838C8383
:101820000F3F110511F008F020C1B69601361105E1
:1018300030F40134110558F0F701EE57FF4F808165
:1018400091812C813D81280F391F3D832C838C8110
:101850009D810196FC01249121115FC090E080E000
:10186000EA81FB812081213009F4C1C108F4B7C1AC
:10187000223009F4BEC1233009F4C3C181E090E0F5
:1018800028960FB6F894DEBF0FBECDBFDF91CF9183
:101890001F910F91FF90EF90DF90CF90BF90AF908E
:1018A0009F908F907F906F905F904F903F902F9080
:1018B0000895F701E05AFF4F0190F081E02DC60135
:1018C00009952C813D81280F391F3D832C8398CFAA
:1018D000F701E05AFF4F0190F081E02DC601099514
:1018E000881A990A8DCFF701E05AFF4F0190F081D5
:1018F000E02DC6010995EC81FD81E81BF90BFD8304
:10190000EC837ECFF701E05AFF4F0190F081E02D8C
:10191000C6010995880E991E73CFEC81FD81249133
:101920002017110609F09AC0CF010296009709F41A
:1019300095CFF701EE59FF4FF887EF8391838083AE
:101940001286739660818F8198850E945F09EF816E
:10195000F8858087F701EA58FF4F60818F8198856D
:101960000E945F09582EEF81F885818797012257E1
:101970003F4F3D832C83F9019081EF81F885948757
:1019800081E0911180E0EF81F8858587F701E958C2
:10199000FF4F8080682D8F8198850E945F09382EC7
:1019A000F701E858FF4F2080622D8F8198850E94B3
:1019B0005F09982EF701E758FF4F1081612F8F8143
:1019C00098850E945F099FEF910F01E010E0980158
:1019D00001C0220F9A95EAF7821B8E83EF81F8856A
:1019E000408414140CF0C4C08A94C80101C0880F4C
:1019F0008A94EAF7381AF685F983950C2A94C80177
:101A000001C0880F2A94EAF7282E29182F2F422D7B
:101A1000632DEF81F885828193810E94CD084C016E
:101A2000EF81F885938382832981422D632D848100
:101A300095810E94E608EF81F88595838483F9817A
:101A4000F13009F49AC008F44EC0F23009F4A4C091
:101A5000F33009F4B5C0BC0194014FC0FC0184917E
:101A60002C813D81280F311DF0CEF701EA57FF4F41
:101A700080819181EC81FD81E80FF91FFD83EC836A
:101A80004F0160E0C4010E948A092C813D81280F2A
:101A9000391F3D832C8362E0C4010E948A0934E02F
:101AA000830E911C8017910760F3EC81FD81849176
:101AB00090E0982F88273196E4918E2B009709F4B7
:101AC000CDCE0817190721F48C819D8103962ECF66
:101AD000EC81FD813296E4912C813D812E0F311DE8
:101AE0003D832C83E2CF9401240D311D47FC3A95B0
:101AF000BC01650D711D57FC7A958B01AC01B401D9
:101B0000C6010E943507882399F1EF81F885168276
:101B100017824701F3E78F0E911C24E7E20EF11CB8
:101B2000F40160818F8198850E945F09082FF70179
:101B300060818F8198850E945F09182F40E0602F97
:101B4000C6010E94FF0841E0612FC6010E94FF0804
:101B500061E08F8198850E945F098111EFCFEF814D
:101B6000F88587818515E4F28485EC81FD81808389
:101B7000FE818F2FFF0F990B73CE0519110957FCAA
:101B8000139594012F5F3F4FBC01640D711D47FCFD
:101B90007A95800E911EB1CFA8014419510947FCD6
:101BA000539594012F5F3F4F0519110957FC139569
:101BB000BC016F5F7F4F800F911F840E951E9DCFDC
:101BC0009401250D311D57FC3A950419110947FC64
:101BD0001395BC016F5F7F4F800F911F8ECFF50172
:101BE00020813181820F931F9183808347CEF3013F
:101BF000F7CFF50120813181281B390B31832083F8
:101C00003DCEF301F7CF089590E080E00895DC0128
:101C1000ED91FD918081ED91FD919081ED91FD918E
:101C20006C9163708E2309F064609F2309F06860F3
:101C3000E4E2FEE0E60FF11D659565956D936D910B
:101C40007D918D919D91099423C01AC012C016C038
:101C500010C01EC009C014C013C006C019C009C0FE
:101C60000DC007C00DC014C062507040804090404D
:101C70000BC0615070408040904006C06E5F01C054
:101C80006F5F7F4F8F4F9F4F9E938E937E936E9388
:101C9000089580913803909139030C94070E809138
:101CA0003A0390913B030C94070EECE3F7E0A48118
:101CB000B58150962C9186AD38E0839FC0011124E8
:101CC000289FA001299F500D112470E060E084AD91
:101CD00095AD0C94751685ED8093BC0080911C0227
:101CE00090911D02A0911E02B0911F020796A11DA6
:101CF000B11D23E0B695A795979587952A95D1F7BD
:101D00002091BC0024FD03C0109269020895409107
:101D10001C0250911D0260911E0270911F02452B02
:101D2000462B472B69F30097A105B10541F025E348
:101D30002A95F1F700000197A109B109E1CF80913F
:101D40001B020C943F031F920F920FB60F921124A7
:101D50002F933F934F935F936F937F938F939F93B3
:101D6000AF93BF93EF93FF938091B900887F803644
:101D700009F44AC0F0F5883209F4A7C018F580319B
:101D800009F49BC0B8F4882309F4F9C0883009F439
:101D900094C0FF91EF91BF91AF919F918F917F91EF
:101DA0006F915F914F913F912F910F900FBE0F90C8
:101DB0001F901895883109F488C0803251F78093BC
:101DC000680214C0803409F49DC040F48033B9F334
:101DD0008833F9F68093680285ECB0C0803509F449
:101DE00085C0883509F496C0883499F60E946B0E38
:101DF000D0CF883909F48CC038F5883729F050F4F1
:101E0000883611F0803729F683E0809369021092BA
:101E1000670257C0883809F47BC0803919F08038D0
:101E200009F0B7CF80916702803208F071C0E0916D
:101E3000670281E08E0F809367028091BB00F0E023
:101E4000E95BFD4F80833DC0803B39F0E0F4803A90
:101E500009F479C0883A09F09CCF84E08093690244
:101E60001092440210924302E0914102F09142022A
:101E700009958091430281110FC081E08093430254
:101E80001092210209C0803C09F4A6CF883C09F4D5
:101E9000A3CF883B09F07DCFE091440281E08E0F13
:101EA00080934402F0E0EF5DFD4F80818093BB00A2
:101EB000909144028091430229C080918E028093C8
:101EC000BB0085EC8093BC0064CF90918D02809123
:101ED0008C02981758F5E0918D0281E08E0F809367
:101EE0008D02F0E0E459FD4F8081E9CFE0918D0251
:101EF00081E08E0F80938D028091BB00F0E0E45969
:101F0000FD4F808390918D0280918C029817C8F2CA
:101F100085E8D8CFE0918D0281E08E0F80938D020D
:101F20008091BB00F0E0E459FD4F808380916B020B
:101F300081115CCF81E080936A0284EA8093BC00C7
:101F40001092690226CF85EC8093BC001092690242
:101F500080916702803230F4E0916702F0E0E95B43
:101F6000FD4F10826091670270E0E0914502F091B0
:101F7000460287E492E00995109267020ACF109218
:101F8000680234CF1F920F920FB60F9211242F9335
:101F90003F938F939F93AF93BF938091CE01909186
:101FA000CF01A091D001B091D1013091CD0123E0BA
:101FB000230F2D3758F50196A11DB11D2093CD019A
:101FC0008093CE019093CF01A093D001B093D10123
:101FD0008091D2019091D301A091D401B091D5010B
:101FE0000196A11DB11D8093D2019093D301A093BE
:101FF000D401B093D501BF91AF919F918F913F9143
:102000002F910F900FBE0F901F90189526E8230F69
:102010000296A11DB11DD2CF1F920F920FB60F9243
:1020200011242F933F934F935F936F937F938F93DD
:102030009F93AF93BF93EF93FF93E0910201F091D1
:1020400003010995FF91EF91BF91AF919F918F91FE
:102050007F916F915F914F913F912F910F900FBEA4
:102060000F901F9018951F920F920FB60F92112488
:102070002F933F934F935F936F937F938F939F9390
:10208000AF93BF93EF93FF93E0910001F0910101B3
:102090000995FF91EF91BF91AF919F918F917F91A2
:1020A0006F915F914F913F912F910F900FBE0F90C5
:1020B0001F9018951F920F920FB60F9211242F9315
:1020C0003F934F935F936F937F938F939F93AF93C0
:1020D000BF93EF93FF938BE992E00E944004FF913E
:1020E000EF91BF91AF919F918F917F916F915F9190
:1020F0004F913F912F910F900FBE0F901F90189509
:102100001F920F920FB60F9211242F938F939F93CC
:10211000EF93FF93E091AB02F091AC028081E091EC
:10212000B102F091B20282FD1BC090818091B40295
:102130008F5F8F732091B502821741F0E091B40256
:10214000F0E0E556FD4F958F8093B402FF91EF913B
:102150009F918F912F910F900FBE0F901F90189508
:102160008081F4CF1F920F920FB60F9211242F93FC
:102170003F934F935F936F937F938F939F93AF930F
:10218000BF93CF93DF93EF93FF938091CC01C091E6
:102190009508D0E087FF23C010928500109284003C
:1021A0008091CC018F5F8093CC018091CC01082E6F
:1021B000000C990B8C179D0724F48091CC018C3076
:1021C0007CF1809184009091850084349C4908F4CE
:1021D00023C1809184009091850004961FC1809155
:1021E000CC01082E000C990B8C179D07CCF6E091C2
:1021F000CC0128E0E202F0011124EB5CF74F808172
:1022000086FFCECFE091CC0188E0E802F0011124F6
:10221000EB5CF74F808160E08F730E94F302C0CFC8
:10222000E091CC0188E0E802F0011124EB5CF74F6B
:102230008781882309F468C0A091CC01E091CC018A
:1022400028E0A202D0011124AB5CB74F88E0E8027D
:10225000F0011124EB5CF74F15962D913C91818193
:102260009281A091CC01E091CC018217930708F0F4
:102270008AC028E0E202F0011124EB5CF74F88E00D
:10228000A802D0011124AB5CB74F17968C91218125
:102290003281820F932F911D92838183A091CC0173
:1022A000E091CC0128E0A202D0011124AB5CB74F31
:1022B00088E0E802F0011124EB5CF74F15962D91B0
:1022C0003C918181928182179307F0F0A091CC011B
:1022D000E091CC0128E0E202F0011124EB5CF74F21
:1022E00088E0A802D0011124AB5CB74F15968D9100
:1022F0009C9192838183E091CC0128E0E202F0017D
:102300001124EB5CF74F1782809184009091850037
:10231000E091CC0128E0E202F0011124EB5CF74FE0
:1023200021813281820F931F9093890080938800CE
:10233000E091CC0188E0E802F0011124EB5CF74F5A
:10234000808186FF0DC0E091CC0128E0E202F0011F
:102350001124EB5CF74F808161E08F730E94F302E0
:10236000FF91EF91DF91CF91BF91AF919F918F91AD
:102370007F916F915F914F913F912F910F900FBE81
:102380000F901F90189588E0E802F0011124EB5C93
:10239000F74F28E0A202D0011124AB5CB74F17968B
:1023A0002C9181819281821B910992838183A091DA
:1023B000CC01E091CC0188E0A802D0011124AB5CF3
:1023C000B74F28E0E202F0011124EB5CF74F1596BD
:1023D0002D913C91818192812817390708F494CF7F
:1023E000A091CC01E091CC0188E0E802F001112439
:1023F000EB5CF74F28E0A202D0011124AB5CB74F91
:1024000015968D919C9192838183E091CC0188E017
:10241000E802F001112475CF80E49CE990938900D3
:10242000809388008FEF8093CC019ACFCF93DF9376
:10243000109292021092910288EE93E0A0E0B0E038
:102440008093930290939402A0939502B093960286
:1024500021E731E03093900220938F0210929E0288
:1024600010929D0280939F029093A002A093A102DC
:10247000B093A20283E891E090939C0280939B0228
:1024800085EC90E09093A8028093A70284EC90E002
:102490009093AA028093A90280EC90E09093AC0202
:1024A0008093AB0281EC90E09093AE028093AD02FA
:1024B00082EC90E09093B0028093AF0286EC90E0C3
:1024C0009093B2028093B1021092B4021092B502BE
:1024D0001092B6021092B70210923F0710923E0778
:1024E0008DE191E09093CD078093CC071092CF07B8
:1024F0001092CE071092D1071092D0071092580771
:1025000085E991E090933D0780933C071092410745
:10251000109240071092550710924C0710924D07E9
:1025200010924E0710924F078FEF809356078093BB
:102530005A07EEE5F7E084E797E0CFEFC1938E17F7
:102540009F07E1F784E795E0909345078093440760
:1025500089E696E0909347078093460786E999E0DD
:10256000909349078093480787ED9AE090934B0733
:1025700080934A0730E020E040E069E080E497E0A3
:102580000E94740510929B0710929A0787E291E0CF
:1025900090937507809374078CE393E09093790789
:1025A0008093780788E080937A0710927B071092D7
:1025B000A9071092C9071092C50781E08093CA0746
:1025C0008093CB078DE991E090937707809376070E
:1025D00080E497E00E94E30610929307109292071E
:1025E00010929707109296078FEF9FEF90939507A1
:1025F000809394079093990780939807E0917607CA
:10260000F09177070280F381E02D80E497E009954F
:1026100086E991E090939D0780939C071092AC0708
:10262000C0936907C0936A07C0936B0762E082E0BA
:102630000E94600362E083E00E946003E2EDF1E04B
:10264000E491F0E0EE0FFF1FEA53FE4FA591B49125
:10265000B093D307A093D207E4EBF1E04491409309
:10266000D607E3EDF1E0E491F0E0EE0FFF1FEA534F
:10267000FE4FC591D491D093D507C093D407E5EB15
:10268000F1E0E491E093D7071092D9071092DA07AE
:102690001092DB071092DC072BE33FE1C9010197A1
:1026A000F1F79C91842F892391E009F490E08881CF
:1026B000E82309F092609093D80722ED37E0309339
:1026C00039032093380389E49EE0909301018093BD
:1026D0000001809169008C7F816080936900E89A95
:1026E00081E08093DD0730933B0320933A038FE42E
:1026F0009EE0909303018093020180916900837FA3
:10270000846080936900E99A82E08093DD0782E328
:1027100090E09093E1078093E00780E991E0909347
:10272000E3078093E20780E293E09093E5078093CC
:10273000E40788EE93E09093E7078093E607109212
:10274000E9071092E8071092EB071092EA0710923F
:10275000ED071092EC071092EF071092EE0710921F
:10276000F1071092F0071092F3071092F2071092FF
:10277000F5071092F4071092F7071092F6071092DF
:10278000F9071092F8071092FB071092FA071092BF
:10279000FD071092FC071092FF071092FE0710929F
:1027A000010810920008109203081092020810927B
:1027B000050810920408109207081092060810925B
:1027C00009081092080810920B0810920A0810923B
:1027D0000D0810920C0810920F0810920E0810921B
:1027E000110810921008109212088FEF9FEF90932B
:1027F000140880931308909316088093150810927C
:102800001708109218081092190810921A081092BE
:102810001B0810921C0810921D0810921E0810929E
:102820001F0810922008109221081092220810927E
:1028300024081092230881E090E09093260880936A
:102840002508109228081092270810922908109243
:102850002A0810922B0810922C0884E090E09093A4
:10286000DF078093DE0762E00E94600389E19CEF4E
:10287000AFEFBFEF80932D0890932E08A0932F0801
:10288000B093300810923108109232081092330839
:1028900010923408E0919508EC30F8F481E08E0F46
:1028A00080939508E093960898E0E99FF001112441
:1028B000EB5CF74F88EB9BE09283818310929B083F
:1028C00084E091E090939A088093990810929D0873
:1028D00010929C08DF91CF9108958FEF8093960816
:1028E000F5CF789484B5826084BD84B5816084BD61
:1028F00085B5826085BD85B5816085BD80916E009E
:10290000816080936E0010928100809181008260CE
:10291000809381008091810081608093810080910B
:1029200080008160809380008091B10084608093FA
:10293000B1008091B00081608093B00080917A00F6
:10294000846080937A0080917A00826080937A001C
:1029500080917A00816080937A0080917A0080680B
:1029600080937A001092C100E091AB02F091AC022A
:1029700082E08083E091A702F091A8021082E091AA
:10298000A902F091AA0287E680831092B302E09137
:10299000AF02F091B00286E08083E091AD02F09149
:1029A000AE02808180618083E091AD02F091AE0241
:1029B000808188608083E091AD02F091AE028081D9
:1029C00080688083E091AD02F091AE0280818F7DBE
:1029D000808364E771E08BE992E00E94AF046BE3CF
:1029E00071E08BE992E00E94AF0464E071E08BE952
:1029F00092E00E94AF0480E89AE1A6E0B0E0809304
:102A00004C0790934D07A0934E07B0934F0784E077
:102A100080936E078FEF80936F078093700780938A
:102A200072078093730780937107E0914407F091D8
:102A3000450730E020E040E06AE080E497E0099557
:102A40008091CB0781110E94550E80E00E94990170
:102A50000E94BB01C0917B0780917A07C80FE0916B
:102A60004007F09141078189C81708F4A1C00E946E
:102A7000B00180E00E949901E0914407F091450780
:102A800030E020E040E06BE080E497E0099566EEFE
:102A900070E08BE992E00E94AF040CE110E02CE4BE
:102AA00030E044E050E064E370E080E497E00E94AE
:102AB00035073EE9C32E30E0D32EC4E0D0E08111CB
:102AC0007EC00E94BB010E94B00168E870E08BE903
:102AD00092E00E94AF0468E670E08BE992E00E9409
:102AE000AF04809196088C3008F04BC061E086E01E
:102AF0000E9460038091960898E0899FF00111245C
:102B0000EB5CF74F9081907C9660908310929708D1
:102B1000109298082CE0622F0E946316829FB001E9
:102B2000112430E020E0FB01E20FF31F93E0EE0FF1
:102B3000FF1F9A95E1F7EB5CF74F908196FD16C069
:102B40002F5F3F4F2C30310571F781110FC010926C
:102B5000800082E0809381001092850010928400B2
:102B6000B19A80916F00826080936F00E091960827
:102B700088E0E89FF0011124EB5CF74F80818064CE
:102B8000808368E171E08BE992E00E94AF0464E524
:102B900071E08BE992E00E94AF04C0E0D0E02097A2
:102BA000F1F30E942C048823D1F30E940000F7CF98
:102BB0008091CB0781110E94550E8C2F47CF4E017B
:102BC0008FEF881A980A84012CE430E0AE0164E3A8
:102BD00070E080E497E00E943507882329F1709027
:102BE000CA07560124E3E22EF12C11E0F50184918D
:102BF000812319F17092CA0700E021E030E0AE01B4
:102C0000B70180E497E00E942208FFEFEF1AFF0A65
:102C1000110F21F48FEFA81AB80A11E09CE4E9160D
:102C2000F10421F77092CA07E3E0CE0ED11CE40153
:102C3000CC31D10509F0C3CF44CF8091C9078111B0
:102C4000E4CF81E0711080E08093CA07D5CF0E9465
:102C50005416A59F900DB49F900DA49F800D911DBB
:102C600011240895A1E21A2EAA1BBB1BFD010DC061
:102C7000AA1FBB1FEE1FFF1FA217B307E407F5072C
:102C800020F0A21BB30BE40BF50B661F771F881F08
:102C9000991F1A9469F760957095809590959B019E
:102CA000AC01BD01CF010895A29FB001B39FC00147
:102CB000A39F700D811D1124911DB29F700D811D68
:102CC0001124911D0895991B79E004C0991F96174E
:102CD00008F0961B881F7A95C9F780950895EE0F26
:102CE000FF1F0590F491E02D0994DC0101C06D9364
:0C2CF00041505040E0F70895F894FFCFE9
:102CFC00C103C10300642D641815A015C019FF1879
:102D0C0015A115C819FF1815AE19FF1815AF19FF25
:102D1C001815AE15D5168015A8163F15D316001527
:102D2C0040158D16141520160015A115C815DA16A8
:102D3C0002158116CF15D916F115DB1640152E1577
:102D4C00A415A619FF0001140A6464323200127A29
:102D5C0000000428961008000080004000000000CD
:102D6C00009B026E02040E440267025402450200EC
:102D7C000000006204C203EF03D6042004FE031219
:102D8C000400000000B10B890B040E030EE3066E69
:062D9C0007D3060D0A003A
:00000001FF
