:100000000C94A4060C94931B0C946C1B0C94CC06BF
:100010000C94CC060C94CC060C94CC060C94CC0618
:100020000C94CC060C94CC060C94CC060C94121CAC
:100030000C94CC060C94CC060C94CC060C94CC06F8
:100040000C94221B0C94CC060C94E01B0C94BA1B51
:100050000C94CC060C94CC060C94CC060C94CC06D8
:100060000C94031A0C94CC06007E00E0FF01F0C350
:10007000033800071C00060C000E0C000C0C000CD2
:100080000C000C0C000C1C00001C00001C000018D4
:100090000000FCFF3FFEFF7FFFFFFFFFFFFFFFC7EA
:1000A000FFFF83FFFF81FFFF81FFFF83FFFFC7FF8C
:1000B000FFC7FFFFC7FFFFE7FFFFFFFFFFFFFFFFD8
:1000C000FFFFFEFFFFFCFF3F000000007E00C0FFBF
:1000D00001E0DF0770000F38000E18001C1C001C28
:1000E0001C00181C00181C00181C00181800001810
:1000F0000000FCFF3FFEFF7FFFFFFFFFFFFFFFC78A
:10010000FFFF83FFFF81FFFF81FFFF83FFFFC7FF2B
:10011000FFC7FFFFC7FFFFE7FFFFFFFFFFFFFFFF77
:10012000FFFFFEFFFFFCFF3F00000000000080FF1C
:1001300001E0FF07F0000F70000E38001C180018D7
:1001400018001818001818001818001818001818A7
:100150000000FCFF3FFEFF7FFFFFFFFFFFFFFFC729
:10016000FFFF83FFFF81FFFF81FFFF83FFFFC7FFCB
:10017000FFC7FFFFC7FFFFE7FFFFFFFFFFFFFFFF17
:10018000FFFFFEFFFFFCFF3F00000000000000FF3C
:1001900000C0FF03E0C30770000E38001C180018F1
:1001A0001800181800181800181800181800181847
:1001B0000000FCFF3FFEFF7FFFFFFFFFFFFFFFC7C9
:1001C000FFFF83FFFF81FFFF81FFFF83FFFFC7FF6B
:1001D000FFC7FFFFC7FFFFE7FFFFFFFFFFFFFFFFB7
:1001E000FFFFFEFFFFFCFF3F0000000000000000DB
:1001F0000080FF01E0FF07F0000F38001C38001CF2
:1002000018001818001818001818001818001818E6
:100210000000FCFF3FFEFF7FFFFFFFFFFFFFFFC768
:10022000FFFF83FFFF81FFFF81FFFF83FFFFC7FF0A
:10023000FFC7FFFFC7FFFFE7FFFFFFFFFFFFFFFF56
:10024000FFFFFEFFFFFCFF3F00000000000000007A
:100250000000FF00C0FF03E0810770000E38001CA3
:100260001800181800181800181800181800181886
:100270000018FCFF3FFEFF7FFFFFFFFFFFFFFFC7F0
:10028000FFFF83FFFF81FFFF81FFFF83FFFFC7FFAA
:10029000FFC7FFFFC7FFFFE7FFFFFFFFFFFFFFFFF6
:1002A000FFFFFEFFFFFCFF3F4C6967687473204946
:1002B0006E697469616C697A6174696F6E20636FCD
:1002C0006D706C65746564004C696768747320496F
:1002D0006E697469616C697A6174696F6E004F4C04
:1002E000454420496E697469616C697A6174696F0B
:1002F0006E20636F6D706C65746564004F4C45448F
:1003000020496E697469616C697A6174696F6E0005
:10031000536166656475696E6F20696E69746961A1
:100320006C697A6174696F6E20636F6D706C65744F
:10033000656400427574746F6E20496E69746961FA
:100340006C697A6174696F6E20636F6D706C65742F
:10035000656400427574746F6E20496E69746961DA
:100360006C697A6174696F6E005361666564756962
:100370006E6F20696E697469616C697A6174696F06
:100380006E0050757A7A6C6520696E697469616C6B
:10039000697A6174696F6E20636F6D706C657465E6
:1003A000640050757A7A6C6520696E697469616C55
:1003B000697A6174696F6E0000FF00E0FF07F0006A
:1003C0000F38001C1800181800181800181800180A
:1003D000180018FCFF3FFFFFFFFFFFFFFFEFFFFFCD
:1003E00083FFFF81FFFF81FFFFC3FFFFC7FFFFC741
:1003F000FFFFE7FFFFFFFFFFFFFFFFFFFFFCFF3FE8
:1004000000000000240027002A0000000000250052
:1004100028002B0000000008000201000003040770
:1004200000000000000000000102040810204080CD
:10043000010204081020010204081020000000003E
:100440002300260029000404040404040404020216
:10045000020202020303030303035F000303050513
:100460000405061614FDFC0EFC0EFE026D05BA080E
:100470000B200600602C01210FC4253423391C2CCD
:100480002265C92122012209A5644621E1450023F4
:100490001B8B616429114BC412D961729849C41233
:1004A000D961729849C412B14408242149A65B1944
:1004B00087846B924829520A5582B643E810334626
:1004C0004AA14AA8129195E39020002529EEE17BEC
:1004D00035938A26415948280B456511A9287D2462
:1004E00087C6C6225134240B8A64C1982CA6148C6A
:1004F0004EE330002624D0258C4B078AE420991C3B
:100500002493832672581D3AABD984135270561D1A
:1005100052A7B4DA21741B012707A2642E71182890
:100520001105A23327128D442399DE66B29950003B
:10053000291005A2332194CD64337D1A89466A00BF
:100540002A10E7E045354A9A44442349649434022A
:100550002B154A215C2987C8217288F07030CA2186
:1005600072881C22042C0BE4602B23394446D900EA
:100570002D0765E034F1102E0A84202C2339442401
:10058000002F0FC6213CA918540C2A0615838A0097
:100590003013C9255C379C8C6492997F9BC8449327
:1005A000E10C00310BC7295C271C15F79F0E321593
:1005B000C9255C47134D66B6896C3C1D4FA762D5B3
:1005C000C3A1003317C9255C47134D66B6896C2C4F
:1005D0009C83E41399DB44342B013416C9255C1F3A
:1005E000174F1923B3D028368A4D829383743C2D3C
:1005F0003518C9255C73889CE29038240EB1C5E695
:10060000E389CC6D229A95003616C9255C575A911C
:10061000D924E3C988B2E66D229B8C84330037115C
:10062000C9255CF1509E8AE562B97875BC11003825
:1006300015C9255C379449A4D4E2456434858E55A8
:100640006A4D46033917C9255C37144D669299B730
:10065000C98434194F6436C96854033A0D242534CB
:10066000233944C4924344023B0F84653323394405
:10067000C4924364940D003C114A215C0F1113395C
:10068000D32174081D4287083D0BC9A45CF1404783
:100690003C1C083E124A215C2187D02174081D426F
:1006A00026729643003F12C921545712DD6C13D9AC
:1006B00058772431952C044027CF21847B1ECBE42E
:1006C000A090AC241129916422924C449189246A0F
:1006D0002289D244249A10E5A0D8587C08024120EF
:1006E000CE1D741F07CB8173201D1499834272485D
:1006F0006C1E1B47A7076178181FC927D402421E2A
:10070000CC21747198CD48C3D170341CCD6687E07C
:10071000D274329D4C27D3C970729001431DCC21F5
:1007200074590AB18C25E33A840EA183E6A0396896
:100730000E89CC23E3184D5A03441FCE21847198AF
:100740000E69E3D178349FCC27F3C97C329FCC2744
:10075000E3D17834241D8600451FCB216C71A00C99
:100760002753C92C1499852223E171249C0567A184
:10077000C83832950C0F07461ECB216C71A00C2790
:1007800053C92C1499852223E171249C0567C13932
:10079000640E995B014721CD217C598A914863D130
:1007A00058328744E690C81C36874D0FE1D1743427
:1007B0009D91A8A50800481ECE218451AC8C47E32A
:1007C000D178341E8D4787D278341E8D47E3D17897
:1007D000349E140B490AC5254C5119ED7F294A1343
:1007E000CA1D645B9EEF936C429A9026C291684842
:1007F000044B1ECE2184512B4D8543E94C3C924F36
:10080000E4103BE43E218FA833E29036A5D40C4C93
:1008100010CA2164519EEFAF91696428991D0C4D57
:100820002DD1219C612E9169555A64189985669144
:10083000596816998546A1596C129AC526A1598CFA
:10084000360BCE66C1D968189CD462054E21CE21E4
:100850008441AD5067D42035584CA10543A4608C29
:10086000120C16A3C428313C1B8BCA21004F1DCE8D
:1008700021846926D1C6A3F1640EB143EC103BC4B8
:100880000EB1439647E319896C04501ECC21747154
:1008900010CE4843CA9032A40C2933D2213807CD58
:1008A0004173D01C3487D40151284E22836926D14C
:1008B000C6A3F1640EB143EC103BC40EB1D026A325
:1008C0009168269951CA76A81C3A8983EAB011002A
:1008D000521FCD218471A00D49D3D174341D0D67F1
:1008E00087E86C381BCE68C3D970369C1827005334
:1008F00016CA21644709AD0C25D308D97A355BCBDC
:10090000D5D3245402541CCB216C7130ADCD64334B
:10091000D92C3887CC2173C81C3287CC2173C8BC32
:1009200006551ECE218451AC8C47F3D83C368FCD72
:1009300063F3D83C368FCD63F3D83C38941B015613
:1009400022CF1D7461AC9067F320353C0D4FE3B3AB
:10095000386416074DE2B0491C3887CEC171781C47
:10096000005730D41D9C61315568C4D9701AA4D188
:10097000C2335A78460B5322943864129AC4219396
:10098000D0240EA1D161C3396C380786E3D070182A
:1009900000581FCF218C63AA11A734F9480EB1C3A8
:1009A000E8503AAC0EB3434464E174481B538A06E2
:1009B000591FCD217C61A35065D3204D3A0B53E2E2
:1009C000903A680E9BC3E6B0396C0E9B436E005A9A
:1009D00019CC216CF1102E4FC294289D0E9943E83A
:1009E000AC1172645C3E1C025B0A04A63361D2FF48
:1009F00013015C12C8214C21968BE562B9582E96E2
:100A00008BE562015D0A04A23341D2FF93015E0EC1
:100A100008A14D27961269222D42A2005F07496066
:100A20004BF140600885A43E215B1461122A215CD1
:100A3000739A4D8463DA646D329B8C9806621FCC86
:100A40001D644107CD4173D01C34074D88B4D17467
:100A5000329D4C27D3C974421B496A00630F292178
:100A600054571A19CB5B2333190900641DCC216C30
:100A70004F07CD4173D01C34A48C6694E9643A9935
:100A80004EA693E96846A41065122A215C471C4DC6
:100A900086C6C3413E8E0C652500660EC8213C47C4
:100AA00093EC3AB44DF7B106671EEB215B0F92430E
:100AB00046C6D14C2813CA4643A31C74081E22D232
:100AC00089583294DD00681ECC216C4107CD4173FA
:100AD000D01C34074D6A24D270341C0D47C3D1702A
:100AE000349C940A690CC52134335A0792F64B01A1
:100AF0006A0F471633B91D8DB83F5A2C2212006B6E
:100B00001DCC216C4107CD4173D01C34078D4A3375
:100B1000E1283C115F27C4116D46A9186C0AC52154
:100B20003441DAFFA5006D183321A441A9D8482526
:100B3000D27069B8345C1A2E0D97862BA5066E15F7
:100B40002C216C41A99148C3D170341C0D47C3D1ED
:100B500070522A6F0F2B2164579C4DA6BE4E66C360
:100B60001A00701CAC1D633122D246D3C974329D69
:100B70004C27D3096D3421CE4173D01C5207711C10
:100B8000AC21634712CD28D3C974329D4C27D3D1F1
:100B90008C489983E6A039680E29720F28214C41B0
:100BA00011512423C974C71A00731229215445090D
:100BB000C924C388F16A2D4A2225007411A7214453
:100BC000178E0A67A6E19E22A310050075152C2139
:100BD0006C51220D47C3D170341C0D47C3115B8586
:100BE0000076142A1D4C519A0C43C3D828388A9297
:100BF000E972881000771B301D7C51294D66C3D0E7
:100C00006C181B91822352944426D1857288500817
:100C100078122B216461619351A4F5795542935167
:100C20002806791BAB2163519B4C43D3D82C388BBE
:100C30004EC293F81C32074565D1497C0E7A0E29C5
:100C4000215471A0D588DC8AC403017B0E05A23330
:100C50002712EDA4281BED26147C07C2315CF1039A
:100C60007D0F05A23321948DB60945A23DA9017ED1
:100C70000B6A2465B572888C460000000004FFFFF3
:100C80000000120002030304020304050A00FE0828
:100C9000FE08FE0000000000A7200500BB002A0996
:100CA0002DEFA6525366082B0A2DEBC65058C6509E
:100CB000082C0722B55012002D050BCF0C2E051263
:100CC000B9102F0B44D927E3300EE3180030094543
:100CD000E94D125FD2043108C4E949A35E04320B26
:100CE00045E94D12258B627C0C330C45E94D1225EC
:100CF000CA104B9A00340B45E9AE22291A6F7100D5
:100D0000350C45E91C520CD1104B9A00360B45E9C5
:100D10004D124D492C6902370A44E91C7118875A53
:100D200000380C45E94D12254D124B9A00390B4500
:100D3000E94D124BA22969023A062AB99004000033
:100D40000004FFFF0000761D11241FBECFEFD8E086
:100D5000DEBFCDBF11E0A0E0B1E0E2E7F2E502C006
:100D600005900D92A23BB107D9F725E0A2EBB1E0C7
:100D700001C01D92AB38B207E1F716E0C4EAD6E035
:100D800004C02197FE010E942329C33AD107C9F765
:100D90000E945E200C9437290C940000662329F0F1
:100DA0006A3019F0862F90E008958FEF9FEF089535
:100DB000AF92BF92CF92DF92EF92FF920F93CF93B9
:100DC000DF93EC01DA017901942F9770E1E0F0E014
:100DD0009F01092E01C0220F0A94EAF7522F6E01DB
:100DE0008AE8C80ED11CF601808140E0823018F4F8
:100DF000422F813049F15D01F8EFAF22E8ADF9AD46
:100E000028813981D90150968C918A9D90018B9DC2
:100E1000300D1124620F731FDF01A60FB71F0111E0
:100E20001AC0EA0EFB1E8C91842B85278D93AE157C
:100E3000BF05C9F7DF91CF910F91FF90EF90DF9041
:100E4000CF90BF90AF90089550E0D5CF440F550F8D
:100E5000E114F10479F33C91342B35273C939F5FE7
:100E60009770E1E0EE1AF1089111F0CF2CAD3DAD95
:100E7000A20FB31FF6018081823028F4813009F07F
:100E800051E041E0E5CF51E0E3CF80E0089590E00C
:100E900080E00895CF93DF93C7E3D4E08FAFEAAD4E
:100EA000FBAD0190F081E02D8BE394E00995EAAD74
:100EB000FBAD0280F381E02D8BE394E0DF91CF91D5
:100EC0000994CF92DF92EF92FF920F931F93CF93EB
:100ED000DF9300D000D01F92CDB7DEB7C09075046D
:100EE00000917604E0913B04F0913C04D188102FEE
:100EF000F12CE12CE0913B04F0913C04808920919D
:100F00007304309174041C821D838B8348E0849F9A
:100F1000C00111248E9DA0018F9D500D9E9D500DEE
:100F20001124240F351F3A832983E0913F04F09167
:100F300040049E012F5F3F4F41E06FE08BE394E060
:100F400009951F5F812F801B8C1528F48FEFE81AFD
:100F5000F80A1D1578F20F900F900F900F900F90D8
:100F6000DF91CF911F910F91FF90EF90DF90CF9085
:100F700008958091D9049091DA04892B31F481E0AD
:100F800090E09093D8048093D704089580919504BD
:100F900090919604892BA1F18091B5048093C104AE
:100FA0004091B6044093C2049091C004992341F14A
:100FB000913069F49091B704891714F49093C104A7
:100FC0008091B8048417E4F48093C20408953091AA
:100FD000B2042091B404082E000C990B622F022E4B
:100FE000000C770B630F711D37FD7A9586179707F5
:100FF0001CF4320F3093C104241714F42093C2045C
:101000000895833018F48093C504089581E0FBCFE0
:1010100090E3843618F084569F5FFBCF9093A5022F
:1010200090E38A3018F08A509F5FFBCF9093A6021E
:1010300090E3811107C09093A7021092A80286EA5C
:1010400092E0089581509F5FF4CF9B01DC011896D8
:10105000ED91FC9141E067E1099420915902260F3E
:101060003327331F21323105ECF420917F02FC013C
:1010700090E080E0243069F082E00895A091590268
:101080002191AC01495C5D4FA40FB52FB11D2C938C
:101090000196861798F380915902680F6093590260
:1010A00080E0089581E00895089508950895E091FD
:1010B0002E0280912D02E81730F4F0E0E35FFD4F3F
:1010C000808190E008958FEF9FEF089590912E0218
:1010D00080912D022FEF3FEF981748F4E92FF0E0B1
:1010E000E35FFD4F208130E09F5F90932E02C901A6
:1010F000089580912D0290912E02891B990B0895DD
:10110000CF92DF92EF92FF920F931F93CF93DF93D3
:101110007C01CB018A0120910C02222389F0EB0192
:101120006B01C40ED51ECC15DD0569F06991D701A0
:10113000ED91FC910190F081E02DC7010995F3CF6D
:10114000642F0E942D08C801DF91CF911F910F914C
:10115000FF90EF90DF90CF900895CF93DF931F9291
:10116000CDB7DEB7698320910C022223F9F02091DC
:101170002F02203258F021E030E0FC01338322833B
:1011800090E080E00F90DF91CF9108958091300240
:10119000E82FF0E0E451FE4F998190838F5F8093B8
:1011A000300280932F0281E090E0ECCF61E0CE012D
:1011B00001960E942D08F7CF833081F028F481300A
:1011C00099F08230A9F008958730A9F08830C9F0ED
:1011D0008430B1F4809180008F7D03C080918000C5
:1011E0008F7780938000089584B58F7784BD0895AC
:1011F00084B58F7DFBCF8091B0008F778093B00056
:1012000008958091B0008F7DF9CFCF93DF93282F81
:1012100030E0F901EC5EFB4F8491F901E85DFB4F92
:10122000D491F901EA5BFB4FC491CC23A1F0811169
:101230000E94DC08EC2FF0E0EE0FFF1FE45CFB4F98
:10124000A591B491EC91ED2381E090E009F480E068
:10125000DF91CF91089580E090E0FACF1F93CF9374
:10126000DF93282F30E0F901EC5EFB4F8491F90108
:10127000E85DFB4FD491F901EA5BFB4FC491CC23AD
:10128000A9F0162F81110E94DC08EC2FF0E0EE0F80
:10129000FF1FE65FFB4FA591B4918FB7F894EC91D7
:1012A000111108C0D095DE23DC938FBFDF91CF9161
:1012B0001F910895DE2BF8CFCF93DF93EC0180913F
:1012C000FF0490910005019701F560E08AE00E941B
:1012D0002E0960E089E00E942E0960E08EE00E9405
:1012E0002E0960E08FE00E942E0960E080E10E94FC
:1012F0002E0960E081E10E942E0960E08CE00E94EE
:101300002E0960E08BE00E942E09FE01319761E01A
:101310008AE0E730F10568F4EF56F64F61E00C948F
:10132000232998099D099F09A109A309A509A709CE
:1013300089E0DF91CF910C942E098EE0FACF8FE0F7
:10134000F8CF80E1F6CF81E1F4CF8CE0F2CF8BE0F3
:10135000F0CF8091160590911705019709F079C09B
:101360008091010580FF76C0809110059091110554
:10137000892B09F46FC090E080E00E945C098091A5
:10138000010581FF6CC08091100590911105892B9A
:1013900009F465C081E090E00E945C09809101053C
:1013A00082FF62C08091100590911105892B09F48C
:1013B0005BC082E090E00E945C098091010583FFA0
:1013C00058C08091100590911105892B09F451C0E6
:1013D00083E090E00E945C098091010584FF4EC08B
:1013E0008091100590911105892B09F447C084E084
:1013F00090E00E945C098091010585FF44C08091C6
:10140000100590911105892BF1F185E090E00E9483
:101410005C098091010586FF3BC080911005909189
:101420001105892BA9F186E090E00E945C0980916A
:10143000010587FF32C08091100590911105892B1D
:1014400061F187E090E00E945C091092170510920C
:101450001605089560E08AE00E942E0990CF60E0B2
:1014600089E00E942E099ACF60E08EE00E942E094A
:10147000A4CF60E08FE00E942E09AECF60E080E153
:101480000E942E09B8CF60E081E10E942E09C1CFF1
:1014900060E08CE00E942E09CACF60E08BE00E94E1
:1014A0002E09D3CF1092040510920505109206055F
:1014B0001092070560E08AE00E942E0960E089E052
:1014C0000E942E0960E08EE00E942E0960E08FE00D
:1014D0000E942E0960E080E10E942E0960E081E117
:1014E0000E942E0960E08CE00E942E0960E08BE0F3
:1014F0000E942E09109200051092FF040895109288
:101500007F0281E0809381021092800261E082E19B
:101510000E942E0961E083E10E942E09E9EBF0E0D0
:1015200080818E7F808380818D7F808388E480931B
:10153000B80085E48093BC000895CF93DF9391E0D9
:10154000909336028823B9F0C091B800D091BA00C8
:101550008091BC008A7B8093BC0060E082E10E94A5
:101560002E0960E083E10E942E090E947F0AD09339
:10157000BA00C093B800DF91CF910895CF93DF9365
:1015800090E0FC01E85DFB4F24918A5B9B4FFC01DE
:1015900084918823C9F090E0880F991FFC01E050E6
:1015A000FC4FA591B491FC01E65FFB4FC591D4912E
:1015B00061110DC09FB7F8948C91209582238C9374
:1015C0008881282328839FBFDF91CF9108956230BF
:1015D00051F49FB7F8943C91822F809583238C938C
:1015E000E8812E2BEFCF8FB7F894EC912E2B2C9314
:1015F0008FBFEACF3FB7F8948091E8019091E9015D
:10160000A091EA01B091EB0126B5A89B05C02F3F40
:1016100019F00196A11DB11D3FBFBA2FA92F982F18
:101620008827BC01CD01620F711D811D911D42E013
:10163000660F771F881F991F4A95D1F708958F92DB
:101640009F92AF92BF92CF92DF92EF92FF926B0187
:101650007C010E94FA0A4B015C01C114D104E1042F
:10166000F104B9F00E94FA0A681979098A099B09FC
:10167000683E73408105910580F321E0C21AD108CC
:10168000E108F10888EE880E83E0981EA11CB11CC9
:10169000E4CFFF90EF90DF90CF90BF90AF909F90FE
:1016A0008F9008950F931F93CF93DF938C01C62FD4
:1016B000642FCC32E8F4CA3208F041C0C83271F16C
:1016C000C93209F442C080E0C034D0F1CF73F801D0
:1016D000EC0FF11D868D8F3F91F1C031E0F00E943B
:1016E000050921E0892B09F420E0F801218F27C0AA
:1016F000CD3289F140F384EB8C0F823020F7CF7329
:10170000C00FD12FD11D8E8D411133C061E00E94D9
:10171000BE0A60E08E8D0E942E0911C0025E1F4F2E
:10172000D0E0F80181918F018F3F31F061E0D0313D
:1017300008F062E00E94BE0ADF5FD63191F781E0D7
:10174000DF91CF911F910F91089570E090E080E0BC
:101750000E941F0BF4CF85E090E0433010F082E050
:1017600090E0880F991F880F991F05970197F1F74F
:10177000E6CF62E00E94BE0AE2CF2FB7F8946091F4
:10178000E4017091E5018091E6019091E7012FBF9E
:1017900008950895AF92BF92CF92DF92EF92FF9299
:1017A0000F931F93CF93DF936C017B018B01040F89
:1017B000151FEB015E01AE18BF08C017D10759F025
:1017C0006991D601ED91FC910190F081E02DC60167
:1017D0000995892B79F7C501DF91CF911F910F9161
:1017E000FF90EF90DF90CF90BF90AF900895FC01F5
:1017F000538D448D252F30E0842F90E0821B930B76
:10180000541710F0CF96089501970895FC01918D1B
:10181000828D981761F0A28DAE0FBF2FB11D5D961E
:101820008C91928D9F5F9F73928F90E008958FEFC0
:101830009FEF0895FC01918D828D981731F0828D74
:10184000E80FF11D858D90E008958FEF9FEF0895CB
:10185000FC01918D228D892F90E0805C9F4F821B2F
:1018600091098F739927089585EB92E00E94280CC7
:1018700021E0892B09F420E0822F089580E090E098
:10188000892B29F00E94340C81110C9400000895DA
:10189000FC01A48DA80FB92FB11DA35ABF4F2C91E5
:1018A000848D90E001968F739927848FA689B789DC
:1018B0002C93A089B1898C91837080648C93938DD3
:1018C000848D981306C00288F389E02D80818F7D76
:1018D00080830895EF92FF920F931F93CF93DF932E
:1018E000EC0181E0888F9B8D8C8D98131AC0E8895C
:1018F000F989808185FF15C09FB7F894EE89FF892B
:101900006083E889F98980818370806480839FBFC8
:1019100081E090E0DF91CF911F910F91FF90EF90C8
:101920000895F62E0B8D10E00F5F1F4F0F731127D8
:10193000E02E8C8D8E110CC00FB607FCFACFE88913
:10194000F989808185FFF5CFCE010E94480CF1CF47
:10195000EB8DEC0FFD2FF11DE35AFF4FF0829FB787
:10196000F8940B8FEA89FB8980818062CFCFEF9258
:10197000FF920F931F93CF93DF938C017B01D0E0F5
:10198000C0E0F701EC0FFD1F6491662339F0C80138
:101990000E946A0C892B11F02196F3CF42E050E0AF
:1019A0006FEA71E0C8010E94CA0B8C0F9D1FDF9186
:1019B000CF911F910F91FF90EF900895CF93DF93F8
:1019C000EC01888D8823B9F0AA89BB89E889F98957
:1019D0008C9185FD03C0808186FD0DC00FB607FC8C
:1019E000F7CF8C9185FFF2CF808185FFEDCFCE01BF
:1019F0000E94480CE9CFDF91CF910895DC011A963F
:101A0000ED91FC9130E020E00994DC011696ED9117
:101A1000FC9130E020E040E069E10994DC01169699
:101A2000ED91FC9130E020E040E068E109949A01FA
:101A3000DC011696ED91FC91462F67E10994EF9237
:101A4000FF920F931F93CF93DF931F92CDB7DEB713
:101A50007C018B01D8016C91673129F150F465311B
:101A6000A0F40F90DF91CF911F910F91FF90EF9015
:101A700008956A3118F16E3FA1F7F8014181498359
:101A800069E2C7010E94FE0C0BC0F8014181498345
:101A9000D7011696ED91FC9130E020E0C701099541
:101AA0000E5F1F4FD7CFF80181818983AE014F5F51
:101AB0005F4F61E0C7010E94170DF2CF0F5F1F4F0C
:101AC000D7011696ED91FC9130E020E040E0C7018F
:101AD0000995C0CF462FDC011696ED91FC9130E0C0
:101AE00020E066E10994462FDC011696ED91FC9109
:101AF00030E020E065E10994EF92FF920F931F938D
:101B0000CF93DF93EC01042F79016D3009F446C0C7
:101B100050F46B30C9F1693009F49FC06A3009F4A0
:101B200065C080E046C06E3009F452C06F3099F74E
:101B30000E940E0DF7011381110F110F110F6C8907
:101B4000160F60E4CE010E94730D612F62956F70D5
:101B50006061CE010E94730D612F6F70CE010E94F3
:101B60006A0DF7016481606BCE010E946A0DF70176
:101B7000408151816281660F660F660FCE010E941F
:101B8000170D0150A1F72EC06BE171E0442311F055
:101B900066E171E0CE010E941F0D0AC0411110C024
:101BA0006FE071E00E941F0DE881F98182898C8BC2
:101BB00081E0DF91CF911F910F91FF90EF900895F9
:101BC00068E071E00E941F0DE881F9818389EFCF01
:101BD0000E940E0D61E8CE010E94730D602FCE01B0
:101BE0000E946A0DCE010E94050DE2CFEA85FB85B9
:101BF00030E020E040E068E2CE010995EE81FF810F
:101C000030E020E040E064E1CE01099541E06BE482
:101C1000CE010E94FE0CE881F981448169E2CE0187
:101C20000E94FE0C40E06BE4CE010E94FE0CE881B5
:101C3000F981448169E2CE010E94FE0C41E06BE42F
:101C4000CE010E94FE0CE881F981458169E2CE0156
:101C50000E94FE0C60E271E09DCF85E591E09983E2
:101C600088831C8AA5CFDC011896ED91FC9130E0A9
:101C700020E040E069E10994DC011896ED91FC91C7
:101C800030E020E040E068E10994CF93DF931F92B9
:101C9000CDB7DEB76983BE016F5F7F4F0E94250815
:101CA0000F90DF91CF910895EF92FF921F93CF9302
:101CB000DF93EC01162F7A010E943C0E60E4CE0106
:101CC0000E94450EE885F9859701412F67E1CE0115
:101CD0000995CE01DF91CF911F91FF90EF900C9469
:101CE000330EEF92FF921F93CF93DF93EC01142FEB
:101CF0007901663181F138F4643109F44BC0653102
:101D000079F080E022C06831C9F150F16931C9F73A
:101D10008091D701882391F1CE010E94330E2EC00D
:101D20008091D701882319F0CE010E94330ECE0195
:101D30000E943C0E60E0CE010E94450E612FCE0154
:101D40000E94450E81E08093D701DF91CF911F91D2
:101D5000FF90EF900895642F0E94450E81E0F5CF2B
:101D60008091D701882319F0CE010E94330EA7017C
:101D7000193138F4612FCE010E94540E1092D70110
:101D8000EDCF68E1CE010E94540E185188E1E80EB3
:101D9000F11CEDCF8E898F3F11F488E78E8BE8859B
:101DA000F9859701412F64E1CE01DF91CF911F9119
:101DB000FF90EF900994FC016623D9F16A30C9F1D4
:101DC000808D811125C06C3F48F085E0808F617067
:101DD00070E0738B628B2EEF3FEF29C0683F20F0DD
:101DE00084E0808F6370F4CF603F20F083E0808FC9
:101DF0006770EECF603E20F082E0808F6F70E8CF9A
:101E0000262F30E0603C98F081E0808F6F71E0CF4A
:101E10008150808F2289338996E0220F331F9A9553
:101E2000E1F76F73262B338B228B8111D4CFC9013D
:101E300008952FEF3FEFFBCF0F93FC01E05CFF4FC6
:101E40000190F081E02D4E1B5F0BDC01D496ED91EB
:101E5000FC9109950F910895CF93DF93FC01A08128
:101E6000B18182AD90E09C0143E0220F331F4A957F
:101E7000E1F737AF26AF50962C91509748E0249F5A
:101E80009001112435AF24AF23AD30E0B90153E008
:101E9000660F771F5A95E1F7EF01C05CDF4F79833A
:101EA000688351964C915197E901C80FD91F50E0B2
:101EB0004C175D0718F4CA01821B930BEF01CE5B30
:101EC000DF4F79836883229623E0880F991F2A9534
:101ED000E1F7860F971F99838883229654968D91F8
:101EE0009C91559799838883E85BFF4F56968D9117
:101EF0009C9191838083DF91CF9108950F931F93DD
:101F0000FC01E25BFF4F0190F081E02DDC01A05B62
:101F1000BF4F0D90BC91A02D4A175B0740F4E0170E
:101F2000F10748F00417150730F080E019C0E017FA
:101F3000F107C0F3FACFFC01E65BFF4F408151810E
:101F4000845B9F4FFC01808191816817790758F469
:101F500081E04217530720F081E02617370728F762
:101F60001F910F91089542175307B0F3DECF2F92C0
:101F70003F924F925F926F927F928F929F92AF9219
:101F8000BF92CF92DF92EF92FF920F931F93CF9366
:101F9000DF93CDB7DEB72A970FB6F894DEBF0FBE3A
:101FA000CDBF9A878987865B9F4F9A838983FC017F
:101FB00011821082E985FA85EA5BFF4F40805180EB
:101FC00029853A85245B3F4F3C832B83F90151825D
:101FD0004082E985FA85EE5BFF4F208031802985BC
:101FE0003A85225B3F4F3E832D83F9013182208267
:101FF000E985FA85EC5BFF4F6080718029853A8521
:10200000205B3F4F38872F83F90171826082E98519
:10201000FA85E85AFF4FE080F180E985FA85EC5AAD
:10202000FF4FA080B180E985FA85EA5AFF4FC08052
:10203000D180E985FA85EE5AFF4F80809180870133
:102040009501A601B40189859A850E947E0F298594
:102050003A852C573F4F3A87298781111BC0F901D8
:1020600010822A960FB6F894DEBF0FBECDBFDF9167
:10207000CF911F910F91FF90EF90DF90CF90BF9085
:10208000AF909F908F907F906F905F904F903F9018
:102090002F90089581E0E985FA8580838114910469
:1020A00021F0E981FA8191828082A414B50420F4A0
:1020B000EB81FC81B182A0822C143D0420F4ED81DF
:1020C000FE81D182C082E614F70458F6EF81F885CC
:1020D000F182E082C6CF0F93CF93DF93E02FDC0134
:1020E000AC57BF4FFC91FF2309F460C021153105A7
:1020F00009F45CC02230310538F0023009F04AC0E2
:102100006F5F7F4F621B730B0E2F0170E0FD52C09B
:10211000FC01E25BFF4F0190F081E02D4E175F075D
:1021200008F444C0FC01E05BFF4F0190F081E02D1A
:102130004E175F07D8F5FC01E45BFF4F0190F0817B
:10214000E02DDC01A65BBF4F0D90BC91A02D260FAA
:10215000371F2617370738F56E177F0718F59F01C9
:1021600021503109A217B30708F56A177B0708F455
:10217000BD012E173F0708F4F901E61BF70BEC0130
:10218000AEA9BFA914960D90BC91A02D9F01FD0191
:1021900009950CC0033009F0B7CF4F5F5F4F421B6A
:1021A000530BB2CFBD016E177F07E0F2DF91CF91E5
:1021B0000F910895FC01E65BFF4F0190F081E02D47
:1021C0006E177F0798F3FC01E45BFF4F0190F081ED
:1021D000E02D6E177F0750F7FC01E05BFF4F019089
:1021E000F081E02DDC01A25BBF4F0D90BC91A02DD2
:1021F000240F351F24173507A8F44E175F0788F4FE
:102200009F0121503109A217B30780F64A175B07D7
:1022100008F4AD012E173F0708F4F901E41BF50B94
:10222000AECFAD014E175F0708F6EDCF5F926F920C
:102230007F928F929F92AF92BF92CF92DF92EF9256
:10224000FF920F931F93CF93DF93EC016A017C0100
:10225000E60EF71E87012CE430E0AC0164E370E089
:102260008BE394E00E947E0F882309F43DC04E0169
:102270008FEF881A980A84012CE430E0AE0164E301
:1022800070E08BE394E00E947E0F882329F1509048
:10229000C504560184E3682E712C11E0F501849188
:1022A000812391F15092C50400E021E030E0AE01BD
:1022B000B3018BE394E00E946B10FFEF6F1A7F0A6B
:1022C000110F21F48FEFA81AB80A11E0ECE46E1692
:1022D000710421F75092C504F3E0CF0ED11CE40144
:1022E000E814F90409F0C3CFDF91CF911F910F914A
:1022F000FF90EF90DF90CF90BF90AF909F908F9026
:102300007F906F905F9008958091C4048111D5CF24
:1023100081E0511080E08093C504C6CF213069F080
:1023200038F0223079F0840F911D47FD9A95089579
:10233000860F911D67FD9A950895841B910947FDAD
:1023400093950895861B910967FD93950895213013
:1023500069F038F0223079F0861B910967FD93957A
:102360000895840F911D47FD9A950895860F911D3C
:1023700067FD9A950895841B910947FD93950895EB
:102380003F924F925F926F927F928F929F92AF9205
:10239000BF92CF92DF92EF92FF920F931F93CF9352
:1023A000DF937C01162F442EEC01C25ADF4F5E8072
:1023B0006F806C018AE8C80ED11C78847518312EA4
:1023C000711608F4372C8C809D800E85202F462DA9
:1023D000652D8A819B810E948E115C01202F462DE4
:1023E000652DC4010E94A711AC01442079F08C85B1
:1023F000F6018083232D30E0B501C7010E946B10E8
:10240000171548F017196394512CD7CF8B8581117C
:10241000F7CF8D85EDCF150D1E836F82DF91CF91A4
:102420001F910F91FF90EF90DF90CF90BF90AF90F2
:102430009F908F907F906F905F904F903F90089506
:10244000DC011A964C911A97ED91FC911197249109
:1024500030E0042E02C0359527950A94E2F7842FC8
:10246000860F883068F031961196FC93EE93E491D4
:1024700098E0941B01C0EE0F9A95EAF72E2B885036
:102480001A968C938FEF9FEF01C0880F6A95EAF739
:102490008095822308950F931F93CF93DF938C0130
:1024A000EC01C25ADF4F798368831A86FC01EF582A
:1024B000FF4F6081CE010E9420128887F801EE58FC
:1024C000FF4F6081CE010E9420128987F801E657F4
:1024D000FF4F90819C8781E0911180E08D87DF9193
:1024E000CF911F910F910895CF93C62F0E94201274
:1024F000C15021E030E001C0220FCA95EAF7821BEB
:10250000CF910895FC01E60FF11D849190E0982F82
:1025100088273196E4918E0F911D0895CF93DF9314
:10252000EC01FC0184918093A8043196E491E0933E
:10253000A904FE013296E491E093AA04FE013396C9
:10254000E491E093AB04FE013496E491E093AC0493
:10255000FE013596E491E093AD04FE013696E491D8
:10256000E093AE04FE013796E491E093AF04FE01E0
:102570003896E491E093B004FE013996E491E0933B
:10258000B104FE013A96E491E093B204FE013B9659
:10259000E491E093B304FE013C96E491E093B4042B
:1025A000FE013D96E491E093B504FE013E96E49170
:1025B000E093B604FE013F96E491E093B704FE0178
:1025C0007096E491E093B80461E1CE010E9482121A
:1025D0009093BA048093B90463E1CE010E94821201
:1025E0009093BC048093BB0465E1CE010E948212EB
:1025F0009093BE048093BD04DF91CF910895EF9234
:10260000FF920F931F93CF93DF93FC01E65AFF4F86
:1026100020813181295E3F4F6F3F710509F048F5F8
:1026200061367105D8F080589F4FFC0180819181FF
:10263000280F391FC9010196FC014491442309F474
:1026400047C0F90144914617170671F40196DF91CE
:10265000CF911F910F91FF90EF9008956134710514
:1026600048F382589F4FE1CFFC018491280F311D20
:10267000E1CF8B01FC01EE57FF4FC081D181C20F2A
:10268000D31F7E0160E0C7010E948212C80FD91FCC
:1026900062E0C7010E948212F4E0EF0EF11C801785
:1026A000910780F3FE01849190E0982F882731965E
:1026B000E4918E2B009761F00817190719F4CE01E9
:1026C0000396C5CFFE013296E491CE0FD11DEACF1D
:1026D00090E080E0BCCFCF92DF92FF920F931F93E8
:1026E000CF93DF931092A104109253046C0180ECFD
:1026F000F82E10E000E0D0E0C0E0F60161916F013B
:10270000E0913D04F0913E048BE394E009958F3F06
:10271000980789F18E3F2FEF920779F3BC018BE385
:1027200094E00E94FF12009721F1BC018BE394E03A
:102730000E944B126091AE0489E994E00E947412E9
:102740008093C3046091AF0489E994E00E947412FD
:102750006091B00489E994E00E947412082F880FF8
:10276000110B80ECF81202C0F090C304C00FD11F0F
:10277000C4CF80E0F3CF2091A104222399F080916F
:10278000C304022E000C330B280F311D87FD3A9530
:10279000C20FD31FC01BD10B1F1424F4CF0DD11DAA
:1027A000F7FCDA95CE01DF91CF911F910F91FF9049
:1027B000DF90CF9008958F929F92AF92BF92CF9269
:1027C000DF92EF92FF920F931F93CF93DF93EC0171
:1027D0007B018A016901FC01E459FF4F808181304E
:1027E00009F46FC008F462C0823009F475C0833008
:1027F00009F47DC0FE01E05AFF4FF182E08232967B
:1028000011830083B601CE010E94FF12009709F4E4
:10281000FFC07E012EE5E20EF11CBC01CE010E943C
:102820004B12FE01E959FF4FB0803C966081C70111
:102830000E947412882EFE01EC58FF4F6081C70180
:102840000E947412082FFE01EB58FF4F6081C701F0
:102850000E947412A82EF701908419140CF090C0F5
:1028600016850B0D0195212F402F682D82819381B4
:102870000E948E116C01F70193838283212F402FD8
:10288000682D848195810E94A711AC01F701958381
:102890008483113009F484C0A8F1123009F491C086
:1028A000133009F4A4C08C01960136C0FE01E45A2D
:1028B000FF4F0190F081E02DCE010995080F191FFF
:1028C00099CFFE01E45AFF4F0190F081E02DCE0137
:1028D0000995E81AF90A8ECFFE01E45AFF4F0190DC
:1028E000F081E02DCE010995081B190B83CFFE0165
:1028F000E45AFF4F0190F081E02DCE010995E80EDA
:10290000F91E78CF9601290D311D97FC3A958C015F
:102910000B0D111DB7FC1A95B601CE010E947E0F5A
:10292000882371F1F701168217828E0101591F4F1A
:102930006E01F0E7CF0ED11CF8016081C7010E9443
:102940002012882EF6016081C7010E942012982E65
:1029500040E0682DCE010E94C01141E0692DCE01FA
:102960000E94C01161E0C7010E9420128111F0CFC6
:10297000F70187818B1504F3C657DF4F8485888361
:102980008A2DAA0C990BDF91CF911F910F91FF9087
:10299000EF90DF90CF90BF90AF909F908F90089571
:1029A00081E090E08B199109B7FC939596012F5F18
:1029B0003F4F8A01090D111D97FC1A95C80ED91EAB
:1029C000ABCF81E090E0BC016919710997FC739568
:1029D00096012F5F3F4F8B199109B7FC93958A01A0
:1029E0000F5F1F4F480F591FC60ED71E95CF960178
:1029F0002B0D311DB7FC3A9581E090E089199109C2
:102A000097FC93958A010F5F1F4F480F591F84CF82
:102A100090E080E0B8CFCF92DF92EF92FF920F93D9
:102A20001F93CF93DF938C01109253047B01D12C21
:102A3000C12CC1E1D0E0F70161917F01E0913D043B
:102A4000F0913E048BE394E009958F3F980719F1CC
:102A50008E3F2FEF920779F39C01AE01B8018BE313
:102A600094E00E94DB132091A704213059F038F044
:102A7000223059F0233061F0C80ED91EDCCF080F88
:102A8000191FFACFC80FD91FF7CF081B190BF4CFA6
:102A9000C81BD90BF1CFC601DF91CF911F910F91C8
:102AA000FF90EF90DF90CF9008952F923F924F923A
:102AB0005F926F927F928F929F92AF92BF92CF92CE
:102AC000DF92EF92FF920F931F93CF93DF93CDB7D7
:102AD000DEB72F970FB6F894DEBF0FBECDBF2C0127
:102AE0007B018BED9EE090933E0480933D04CB01EF
:102AF0000E946B136C01019696958795481A590AA6
:102B000022E1C216D10408F0EAC042E150E04C19BB
:102B10005D09569547955A83498372E1C72ED12C9A
:102B200081E08093A4048BED9EE090933E0480931B
:102B30003D04B701C2010E940B1589819A81481A90
:102B4000590A8091C1049091C5049F83082E000CFE
:102B5000990B2091C2043C01621A710827FD7394FD
:102B600028E0620E711C33E0E32EF12C21E130E00D
:102B7000A901481B590B59874887C60101969C013A
:102B8000240D351D3B872A87A2014C0D5D1D5D87F5
:102B90004C875201AE18BF08C701880F991F9C01CE
:102BA0002C0D3D1D3A832983E0919704F091980400
:102BB0008BE394E0099528843984280E391EA701F7
:102BC00040955095420D531D5F874E8751E0E51AA1
:102BD000F10809F48CC08E859F85860D971D9E8314
:102BE0008D832A853B852E0D3F1D3C832B838C01D5
:102BF0004E855F85B5018BE394E00E947E0F8823AC
:102C0000E9F100E029813A814E855F85B5018BE3CA
:102C100094E00E946B1032E06316710478F1430176
:102C200042E0841A91088E859F8501969F878E8742
:102C300081149104C9F001E09401AC01B5018BE36A
:102C400094E00E946B1094014E855F856C857D85B4
:102C50006E0D7F1D8BE394E00E946B102E853F85E7
:102C6000280D391D3F872E8700E029813A814E8546
:102C70005F85B5018BE394E00E946B108F810E9409
:102C8000010832E0E316F10431F541E050E05F87DE
:102C90004E8751E0251A31084D815E812E853F8592
:102CA000420F531F00E029813A81B2018BE394E087
:102CB0000E946B106B817C814E855F85640F751F50
:102CC00001E09301A1018BE394E00E946B108E85DB
:102CD0009F85029739F492E0691A71085ACF1A82D7
:102CE00019821ECF82E090E09F878E87D5CF2F96E6
:102CF0000FB6F894DEBF0FBECDBFDF91CF911F910D
:102D00000F91FF90EF90DF90CF90BF90AF909F908A
:102D10008F907F906F905F904F903F902F9008958D
:102D2000CF92DF92EF92FF920F931F93CF93DF9397
:102D3000EC01962F683109F44BC0B901993130F498
:102D40009431C9F0973189F080E006C0993109F4D7
:102D500061C09032C9F781E0DF91CF911F910F914F
:102D6000FF90EF90DF90CF90089550E089EA92E0D5
:102D70000E948008F0CF8C859D85AE85BF85892B0C
:102D80008A2B8B2B71F4E881F981A585B0E020EACC
:102D900036E841E050E00E94DB286C877D878E8713
:102DA0009F8710922E0210922D02109230021092E4
:102DB0002F020E947F0A84E598E090935802809346
:102DC000570285E598E090935C0280935B02C3CF45
:102DD0002C853D854E855F8560E074E284EF90E050
:102DE0000E94E6282051310941095109569547951D
:102DF000379527952093B8008E8990E09595879513
:102E000091E090930C028093D601109230021092C0
:102E10002F02A1CFD0912F02D13208F093C0C091E0
:102E2000D6010E94FA0A6B017C0180917F02811118
:102E300064C082E080937F0281E0809381028FEF03
:102E400080937E021092A302D093A202ACEEB1E076
:102E5000E2E8F2E080E0D8137CC01092A4028091F6
:102E6000A402CC0FC82BC093A402809180028130B1
:102E700009F073C0109280020E94FA0A6B017C0173
:102E80008091A4028093BB00809132029091330222
:102E9000A0913402B0913502892B8A2B8B2B99F0AB
:102EA0000E94FA0A009132021091330220913402FA
:102EB000309135026C197D098E099F090617170795
:102EC00028073907D8F18091BC0083FDD9CF85EC64
:102ED0008093BC000E94FA0A6B017C0180917F0202
:102EE0008230E9F180917E028F3F61F180917E0214
:102EF000803241F180917E0225C080913202909112
:102F00003302A0913402B0913502892B8A2B8B2B8E
:102F100009F48BCF0E94FA0A009132021091330219
:102F200020913402309135026C197D098E099F0978
:102F3000061717072807390708F077CF8091310265
:102F40000E949D0A1092300210922F0210920C02E1
:102F500002CF9D9191938F5F7ECF85EEB9CF809107
:102F6000320290913302A0913402B0913502892B44
:102F70008A2B8B2B09F4B2CF0E94FA0A00913202FD
:102F80001091330220913402309135026C197D0981
:102F90008E099F09061717072807390708F09ECFE3
:102FA000CDCFFC01E25CFE4F208131812330310521
:102FB000E9F038F42130310561F02230310589F033
:102FC000089525303105F1F0D0F029303105E9F0D0
:102FD000089511821082805C9E4FFC013183208312
:102FE000089521E030E031832083F5CF22E030E006
:102FF00031832083805C9E4F21E030E0EECF23E0E0
:1030000030E0F6CF24E030E0F3CF25E030E0F0CF41
:10301000DC01A25CBE4FED91FC911197EA30F10505
:10302000B8F4EB5EF74E0C9423291F1829183218B8
:10303000351838183B182818281828181F1821E0A8
:1030400030E02D933C93805C9E4FFC0131832083C4
:10305000089522E030E02D933C93805C9E4F21E068
:1030600030E0F3CF23E030E0F6CF24E030E0F3CFE0
:1030700025E030E0F0CF29E030E0EDCFCF92DF92D5
:10308000EF92FF920F931F93CF93DF936C01EB01AD
:103090007B01E40EF51E10E000E0CE15DF0561F0C7
:1030A0006991D601ED91FC910190F081E02DC6016E
:1030B0000995080F191FF1CFC801DF91CF911F911A
:1030C0000F91FF90EF90DF90CF900895CF92DF9215
:1030D000EF92FF920F931F93CF93DF93EC016C015C
:1030E00024E0C20ED11CFC01E057FF4F0190F0819B
:1030F000E02DC60109958E3FEFEF9E07D8F48E01B3
:103100000C561F4FF801408151817E01F2E9EF0E0C
:10311000F11CF701608171819C01C6010E94DB13E3
:10312000C059DF4F28812130C1F078F02230B9F04A
:103130002330E9F081E090E0DF91CF911F910F9172
:10314000FF90EF90DF90CF900895F70120813181BB
:10315000820F931F91838083EDCFF801F7CFF701A2
:1031600020813181281B390B31832083E3CFF80183
:10317000F7CFDC01ED91FD918081ED91FD91908182
:10318000ED91FD916C9163708E2309F064609F2333
:1031900009F06860E6EDF8E1E60FF11D65956595CB
:1031A0006D936D917D918D919D91099423C01AC06D
:1031B00012C016C010C01EC009C014C013C006C083
:1031C00019C009C00DC007C00DC014C062507040C6
:1031D000804090400BC0615070408040904006C0DD
:1031E0006E5F01C06F5F7F4F8F4F9F4F9E938E9397
:1031F0007E936E93089580915203909153030C94A3
:10320000B91880915403909155030C94B9180895FE
:1032100090E080E00895E7E3F4E0A481B581509662
:103220002C9186AD38E0839FC0011124289FA00116
:10323000299F500D112470E060E084AD95AD0C9491
:103240002929CF930E946107C0917604809175046B
:10325000C80FE0913B04F0913C048189C81770F0DD
:10326000E0913F04F091400430E020E040E060E174
:103270008BE394E0099580E0CF9108958091C60496
:1032800081110E940B198C2F0E944A0781E0F4CF14
:103290008091C60481110E940B1980E00C944A07AA
:1032A000EF92FF920F931F93CF93DF9300D01F9263
:1032B000CDB7DEB77C018B0119821A821B82809107
:1032C00095049091960482589C4051F082E89CE0CD
:1032D00090939604809395040E948E120E94C607D4
:1032E00082E0E816F104A9F123E0E216F10409F402
:1032F00041C0EA94EF28E1F00F3F100741F0802F22
:103300000E940808BC01CE0101960E943029BE012E
:103310006F5F7F4F81E190E00E9455150F900F90F5
:103320000F90DF91CF911F910F91FF90EF90089533
:103330000F3F100741F0802F0E940808BC01CE010A
:1033400001960E943029BE016F5F7F4F81E390E0BC
:10335000E3CF0F3F100741F0802F0E940808BC0107
:10336000CE0101960E943029BE016F5F7F4F81E53B
:1033700090E0D2CF0F3F100741F0802F0E94080845
:10338000BC01CE0101960E943029BE016F5F7F4FC4
:1033900081E790E0C1CF85ED8093BC00809132023F
:1033A00090913302A0913402B09135020796A11D8D
:1033B000B11D23E0B695A795979587952A95D1F7E6
:1033C0002091BC0024FD03C010927F02089540911B
:1033D0003202509133026091340270913502452BD4
:1033E000462B472B69F30097A105B10541F025E372
:1033F0002A95F1F700000197A109B109E1CF809169
:1034000031020C949D0A1F920F920FB60F92112455
:103410002F933F934F935F936F937F938F939F93DC
:10342000AF93BF93EF93FF938091B900887F80366D
:1034300009F44AC0F0F5883209F4A7C018F58031C4
:1034400009F49BC0B8F4882309F4F9C0883009F462
:1034500094C0FF91EF91BF91AF919F918F917F9118
:103460006F915F914F913F912F910F900FBE0F90F1
:103470001F901895883109F488C0803251F78093E5
:103480007E0214C0803409F49DC040F48033B9F347
:103490008833F9F680937E0285ECB0C0803509F45C
:1034A00085C0883509F496C0883499F60E94CB19F6
:1034B000D0CF883909F48CC038F5883729F050F41A
:1034C000883611F0803729F683E080937F021092CE
:1034D0007D0257C0883809F47BC0803919F08038E4
:1034E00009F0B7CF80917D02803208F071C0E09181
:1034F0007D0281E08E0F80937D028091BB00F0E021
:10350000E35AFD4F80833DC0803B39F0E0F4803AC0
:1035100009F479C0883A09F09CCF84E080937F0257
:1035200010925A0210925902E0915702F0915802FB
:1035300009958091590281110FC081E08093590251
:103540001092370209C0803C09F4A6CF883C09F4E8
:10355000A3CF883B09F07DCFE0915A0281E08E0F26
:1035600080935A02F0E0E95CFD4F80818093BB00BC
:1035700090915A028091590229C08091A4028093AF
:10358000BB0085EC8093BC0064CF9091A302809136
:10359000A202981758F5E091A30281E08E0F809364
:1035A000A302F0E0EE57FD4F8081E9CFE091A30246
:1035B00081E08E0F8093A3028091BB00F0E0EE5774
:1035C000FD4F80839091A3028091A2029817C8F2C8
:1035D00085E8D8CFE091A30281E08E0F8093A3020B
:1035E0008091BB00F0E0EE57FD4F80838091810217
:1035F00081115CCF81E08093800284EA8093BC00DB
:1036000010927F0226CF85EC8093BC0010927F023F
:1036100080917D02803230F4E0917D02F0E0E35A47
:10362000FD4F108260917D0270E0E0915B02F091AD
:103630005C028DE592E0099510927D020ACF10920E
:103640007E0234CF1F920F920FB60F9211242F9348
:103650003F938F939F93AF93BF938091E401909199
:10366000E501A091E601B091E7013091E30123E08B
:10367000230F2D3758F50196A11DB11D2093E301AD
:103680008093E4019093E501A093E601B093E701F4
:103690008091E8019091E901A091EA01B091EB01DC
:1036A0000196A11DB11D8093E8019093E901A093BB
:1036B000EA01B093EB01BF91AF919F918F913F9140
:1036C0002F910F900FBE0F901F90189526E8230F93
:1036D0000296A11DB11DD2CF1F920F920FB60F926D
:1036E00011242F933F934F935F936F937F938F9307
:1036F0009F93AF93BF93EF93FF93E0910201F091FB
:1037000003010995FF91EF91BF91AF919F918F9127
:103710007F916F915F914F913F912F910F900FBECD
:103720000F901F9018951F920F920FB60F921124B1
:103730002F933F934F935F936F937F938F939F93B9
:10374000AF93BF93EF93FF93E0910001F0910101DC
:103750000995FF91EF91BF91AF919F918F917F91CB
:103760006F915F914F913F912F910F900FBE0F90EE
:103770001F9018951F920F920FB60F9211242F933E
:103780003F934F935F936F937F938F939F93AF93E9
:10379000BF93EF93FF9385EB92E00E94480CFF915B
:1037A000EF91BF91AF919F918F917F916F915F91B9
:1037B0004F913F912F910F900FBE0F901F90189532
:1037C0001F920F920FB60F9211242F938F939F93F6
:1037D000EF93FF93E091C502F091C6028081E091E2
:1037E000CB02F091CC0282FD1BC090818091CE0271
:1037F0008F5F8F732091CF02821741F0E091CE024C
:10380000F0E0EB54FD4F958F8093CE02FF91EF9146
:103810009F918F912F910F900FBE0F901F90189531
:103820008081F4CF1F920F920FB60F9211242F9325
:103830003F934F935F936F937F938F939F93AF9338
:10384000BF93CF93DF93EF93FF938091D801C09103
:10385000B603D0E087FF23C0109285001092840049
:103860008091D8018F5F8093D8018091D801082E74
:10387000000C990B8C179D0724F48091D8018C3093
:103880007CF1809184009091850084349C4908F4F7
:1038900023C1809184009091850004961FC180917E
:1038A000D801082E000C990B8C179D07CCF6E091DF
:1038B000D80128E0E202F0011124EA5AFC4F80818D
:1038C00086FFCECFE091D80188E0E802F001112414
:1038D000EA5AFC4F808160E08F730E942E09C0CFAE
:1038E000E091D80188E0E802F0011124EA5AFC4F87
:1038F0008781882309F468C0A091D801E091D8019C
:1039000028E0A202D0011124AA5ABC4F88E0E802A4
:10391000F0011124EA5AFC4F15962D913C918181BA
:103920009281A091D801E091D8018217930708F005
:103930008AC028E0E202F0011124EA5AFC4F88E034
:10394000A802D0011124AA5ABC4F17968C9121814C
:103950003281820F932F911D92838183A091D80190
:10396000E091D80128E0A202D0011124AA5ABC4F4C
:1039700088E0E802F0011124EA5AFC4F15962D91D7
:103980003C918181928182179307F0F0A091D80138
:10399000E091D80128E0E202F0011124EA5AFC4F3C
:1039A00088E0A802D0011124AA5ABC4F15968D9127
:1039B0009C9192838183E091D80128E0E202F0019A
:1039C0001124EA5AFC4F178280918400909185005F
:1039D000E091D80128E0E202F0011124EA5AFC4FFC
:1039E00021813281820F931F9093890080938800F8
:1039F000E091D80188E0E802F0011124EA5AFC4F76
:103A0000808186FF0DC0E091D80128E0E202F0013C
:103A10001124EA5AFC4F808161E08F730E942E09C5
:103A2000FF91EF91DF91CF91BF91AF919F918F91D6
:103A30007F916F915F914F913F912F910F900FBEAA
:103A40000F901F90189588E0E802F0011124EA5ABF
:103A5000FC4F28E0A202D0011124AA5ABC4F1796AD
:103A60002C9181819281821B910992838183A09103
:103A7000D801E091D80188E0A802D0011124AA5A07
:103A8000BC4F28E0E202F0011124EA5AFC4F1596DF
:103A90002D913C91818192812817390708F494CFA8
:103AA000A091D801E091D80188E0E802F00111244A
:103AB000EA5AFC4F28E0A202D0011124AA5ABC4FB6
:103AC00015968D919C9192838183E091D80188E035
:103AD000E802F001112475CF80E49CE990938900FD
:103AE000809388008FEF8093D8019ACFCF93DF9394
:103AF0001092AC021092AB0288EE93E0A0E0B0E02E
:103B00008093AD029093AE02A093AF02B093B00247
:103B10002DE731E03093AA022093A9021092B80257
:103B20001092B7028093B9029093BA02A093BB029D
:103B3000B093BC028FE891E09093B6028093B502F7
:103B400085EC90E09093C2028093C10284EC90E0F7
:103B50009093C4028093C30280EC90E09093C602DD
:103B60008093C50281EC90E09093C8028093C702D5
:103B700082EC90E09093CA028093C90286EC90E0B8
:103B80009093CC028093CB021092CE021092CF027F
:103B90001092D0021092D10210923A04109239047D
:103BA0008EEC96E09093C8048093C7041092CA04E8
:103BB0001092C9041092CC041092CB0410925304BA
:103BC00081EA91E0909338048093370410923C048A
:103BD00010923B0410925004109247041092480433
:103BE0001092490410924A048FEF809351048093FD
:103BF0005504E9E5F4E08FE694E0CFEFC1938E172A
:103C00009F07E1F78CE79DE09093400480933F0489
:103C100081E79EE0909342048093410480E996E11D
:103C2000909344048093430482E59BE09093460480
:103C30008093450430E020E040E069E08BE394E0CD
:103C40000E947C0D109296041092950488ED96E0E7
:103C50009093700480936F0487EB93E090937404C7
:103C60008093730481E0809375041092760410921F
:103C7000A4041092C4041092C0048093C5048093DD
:103C8000C60489EA91E090937204809371048BE3F7
:103C900094E00E942C0F10928E0410928D041092CA
:103CA0009204109291048FEF9FEF90939004809371
:103CB0008F049093940480939304E0917104F091A5
:103CC00072040280F381E02D8BE394E0099587E490
:103CD00097E090939804809397041092A704C09360
:103CE0006404C0936504C09366041092CE041092DD
:103CF000CD04EFECF4E088E0DF011D928A95E9F74E
:103D00001092D8041092D7041092DA041092D904B9
:103D10001092DC041092DB041092DE041092DD0499
:103D20001092E0041092DF041092E1041092E20479
:103D30001092E3041092E4041092E5041092E60459
:103D40001092E7041092E8041092EA041092E90439
:103D50001092EB041092EC041092ED041092EE0419
:103D60001092EF041092F0041092F1041092F204F9
:103D700088EC90E0A0E0B0E08093F3049093F4042A
:103D8000A093F504B093F6041092F8041092F7048F
:103D9000E091B603EC3008F08EC181E08E0F809385
:103DA000B603E093F904B8E0EB9FF0011124EA5A5E
:103DB000FC4F88EB9BE0928381831092FE0484E0A9
:103DC00091E09093FD048093FC0410920005109202
:103DD000FF0410920405109205051092060510923A
:103DE0000705109208051092090510920A05109215
:103DF0000B0510920C0510920D0510920E051092F5
:103E00000F051092110510921005109212051092D4
:103E100013051092140510921505109217051092B3
:103E20001605109219051092180562E082E00E94B2
:103E3000BE0A62E083E00E94BE0AE8E4F4E0E49196
:103E4000F0E0EE0FFF1FE45CFB4FA591B491B0933F
:103E50001B05A0931A05EAE2F4E0449140931E0585
:103E6000E9E4F4E0E491F0E0EE0FFF1FE45CFB4FC7
:103E7000C591D491D0931D05C0931C05EBE2F4E0ED
:103E8000E491E0931F0510922105109222051092F3
:103E90002305109224052BE33FE1C9010197F1F7B7
:103EA0009C91842F892391E009F490E08881E82394
:103EB00009F09260909320052AE135E03093530396
:103EC000209352038BEF98E19093010180930001BE
:103ED000809169008C7F816080936900E89A81E01D
:103EE00080932505309355032093540381E099E195
:103EF000909303018093020180916900837F846025
:103F000080936900E99A82E08093250582E390E03E
:103F1000909329058093280580E991E090932B05E3
:103F200080932A0580E293E090932D0580932C05E1
:103F300088EE93E090932F0580932E051092310523
:103F4000109230051092330510923205109235050B
:103F500010923405109237051092360510923905EB
:103F60001092380510923B0510923A0510923D05CB
:103F700010923C0510923F0510923E0510924105AB
:103F8000109240051092430510924205109245058B
:103F9000109244051092470510924605109249056B
:103FA0001092480510924B0510924A0510924D054B
:103FB00010924C0510924F0510924E05109251052B
:103FC000109250051092530510925205109255050B
:103FD00010925405109257051092560510925905EB
:103FE0001092580510925A058FEF9FEF90935C0541
:103FF00080935B0590935E0580935D0510925F054D
:10400000109260051092610510926205109263058E
:10401000109264051092650510926605109267056E
:10402000109268051092690510926A0510926C054D
:1040300010926B0581E090E090936E0580936D0582
:104040001092700510926F05109271051092720512
:10405000109273051092740584E090E09093270508
:104060008093260562E00E94BE0A109278051092A5
:104070007705E9E7F5E088E0DF011D928A95E9F729
:10408000109282051092810589E19CEFAFEFBFEF9E
:104090008093830590938405A0938505B09386054E
:1040A00010928705109288051092890510928A0552
:1040B000DF91CF910895C093F90487CE789484B5A9
:1040C000826084BD84B5816084BD85B5826085BD14
:1040D00085B5816085BD80916E00816080936E00A2
:1040E0001092810080918100826080938100809194
:1040F0008100816080938100809180008160809345
:1041000080008091B10084608093B1008091B00004
:1041100081608093B00080917A00846080937A00FF
:1041200080917A00826080937A0080917A00816029
:1041300080937A0080917A00806880937A00109250
:10414000C100E091C502F091C60282E08083E09157
:10415000C102F091C2021082E091C302F091C40248
:1041600087E680831092CD02E091C902F091CA02E5
:1041700086E08083E091C702F091C802808180616F
:104180008083E091C702F091C802808188608083BB
:10419000E091C702F091C802808180688083E0913D
:1041A000C702F091C80280818F7D808362EA73E04C
:1041B00085EB92E00E94B70C69E673E085EB92E034
:1041C0000E94B70C6CEF72E085EB92E00E94B70C96
:1041D00080E89AE1A6E0B0E0809347049093480419
:1041E000A0934904B0934A04E0913F04F091400445
:1041F00030E020E040E06AE08BE394E009950E9423
:1042000048190E9421198111FCCF0E944A07E091B0
:104210003F04F091400430E020E040E06BE08BE3AD
:1042200094E009956EED72E085EB92E00E94B70C88
:104230001092CE041092CD040E94B9070E94B907D3
:104240008091F9048C3008F04AC061E086E00E9459
:10425000BE0AE091F90428E0E29FD0011124AA5A95
:10426000BC4F8C91807C86608C931092FA041092E3
:10427000FB042CE08E2F622F0E941729829FB00131
:10428000112430E020E0DB01A20FB31F43E0AA0FAE
:10429000BB1F4A95E1F7AA5ABC4F9C9196FD16C0E8
:1042A0002F5F3F4F2C30310571F781110FC01092F5
:1042B000800082E08093810010928500109284003B
:1042C000B19A80916F00826080936F0038E0E39F25
:1042D000F0011124EA5AFC4F808180648083809130
:1042E000F90448E0849F80011124F801EA5AFC4F48
:1042F00028E030E0348323838C3008F048C080917C
:10430000FA04C8E8D0E0C81BD10987FDD395CC0FCB
:10431000DD1FCC0FDD1F6E010D2E000CEE08FF0817
:104320008091FB0468E572E0681B710987FD739555
:10433000660F771F660F771F072E000C880B990BEF
:104340006C197D098E099F0923E0660F771F881F6E
:10435000991F2A95D1F724EB30E040E050E00E940D
:10436000BC282C0D3D1D4E1D5F1D2C173D070CF468
:104370009E018FB7F894F801EA5AFC4F2250310998
:10438000220F331F3683258394E697838FBFC8E5BA
:10439000D2E008E810E08091FB046E01C81AD10851
:1043A00087FDD394CC0CDD1CCC0CDD1C0D2C000C3B
:1043B000EE08FF088091FA044801881A910887FDE9
:1043C0009394880C991C880C991C092C000CAA0841
:1043D000BB08E091F90490E080E0EF3FB9F058E0CD
:1043E000E59FF0011124EA5AFC4F8181928163E03C
:1043F000880F991F6A95E1F7B0E0A0E074E0B595E9
:10440000A795979587957A95D1F702969C012F5F8E
:104410003F4F032E000C440B550B281939094A094C
:104420005B09A4EBB0E00E94DB28A70196012819E4
:1044300039094A095B090E94BC282830310539F046
:1044400065E070E080E090E00E941F0BA4CF68EC74
:1044500072E085EB92E00E94B70C61E089E00E9477
:10446000BE0A61E08AE00E94BE0A61E08FE00E941D
:10447000BE0A61E08EE00E94BE0A61E081E10E9416
:10448000BE0A61E080E10E94BE0A61E08BE00E940A
:10449000BE0A61E08CE00E94BE0A68EA72E085EB29
:1044A00092E00E94B70CC7E3D4E081E090E09093E3
:1044B00017058093160563E573E085EB92E00E9493
:1044C000B70C88E098E19093350580933405D0933C
:1044D0003705C093360581ED97E190933B058093B6
:1044E0003A05D0933D05C0933C0580916D059091B0
:1044F0006E058230910514F482E090E090936E0591
:1045000080936D0563E373E085EB92E00E94B70C46
:1045100060E173E085EB92E00E94B70C10927605A3
:104520001092750581E090E090937805809377056F
:1045300022E030E0309300052093FF041092030541
:104540001092020540ED57E060E070E040930405F2
:104550005093050560930605709307059093190520
:104560008093180562E873E085EB92E00E94B70C37
:10457000C1E0D0E05DE7852E912CA12CB12C42E06A
:10458000242E312C80912505823008F004C1F89446
:104590008AE195E00E94B918809121059091220549
:1045A000A0912305B091240578948093870590937A
:1045B0008805A0938905B0938A0580918305909121
:1045C0008405A0918505B09186054091870550919D
:1045D00088056091890570918A050396A11DB11D1A
:1045E00084179507A607B707CCF0809183059091B3
:1045F0008405A0918505B09186054091870550916D
:1046000088056091890570918A050397A109B10910
:10461000481759076A077B070CF054C0409187057B
:10462000509188056091890570918A058091830574
:1046300090918405A0918505B0918605481759078A
:104640006A077B076CF08091750590917605833041
:10465000910509F4C4C008F0A0C0029709F4B0C0E5
:1046600040918705509188056091890570918A0570
:104670008091830590918405A0918505B091860570
:10468000481759076A077B076CF48091750590916C
:1046900076058330910509F4E0C008F0BAC00297AE
:1046A00009F4CBC08091870590918805A091890578
:1046B000B0918A058093830590938405A093850526
:1046C000B0938605809126059091270597FD37C107
:1046D0000E9405098C010E94BD0B609363057093D5
:1046E0006405809365059093660520915D05309182
:1046F0005E050217130709F0CCC0C0905F05D0908B
:104700006005E0906105F09062059B01AC012C19F9
:104710003D094E095F0969017A01409028055090D2
:104720002905712C612CC414D504E604F70420F08B
:1047300010935C0500935B0500915B0510915C058F
:10474000E0903005F0903105409067055090680585
:104750006090690570906A059B01AC0124193509C8
:104760004609570929013A01209158053091590508
:104770002230310509F435C10CF098C021153105FE
:1047800009F4A9C02130310509F4F6C01092590589
:1047900010925805D4C0F894FFCE8430910561F191
:1047A000059709F05DCF8091D5049091D6040097CC
:1047B00009F456CF01979093D6048093D5040CC08A
:1047C0008091CF049091D004009709F449CF0197CC
:1047D0009093D0048093CF040E94B90741CF809179
:1047E000D1049091D204009709F43ACF01979093A5
:1047F000D2048093D104F0CF8091D3049091D4045B
:10480000009709F42DCF01979093D4048093D3049B
:10481000E3CF8430910579F1059709F043CF80917A
:10482000D5049091D6048336910509F43BCF0196C7
:104830009093D6048093D5040DC08091CF049091BD
:10484000D0048336910509F42DCF01969093D004BE
:104850008093CF040E94B90725CF8091D104909115
:10486000D2048336910509F41DCF01969093D204AA
:104870008093D104EFCF8091D3049091D4048336F8
:10488000910509F40FCF01969093D4048093D3043B
:10489000E1CF60935F05709360058093610590930D
:1048A000620510935E0500935D0546CF2630310505
:1048B00009F40EC12730310509F451C12330310507
:1048C00009F064CFE016F10609F09BC0D0935905BA
:1048D000C093580558C080915A05811115C0809128
:1048E0002E0590912F05B0E0A0E084159505A60552
:1048F000B70550F4E0915605F0915705309721F037
:1049000081E080935A050995E016F106C1F4D09331
:104910005905C09358058091630590916405A09155
:104920006505B09166058093670590936805A0932F
:104930006905B0936A0510926C0510926B05809121
:10494000770590917805019709F026C1E0917505EA
:10495000F0917605EA30F10508F01AC1EE54FB4DEE
:104960000C942329C22509270E2713272327332731
:10497000C825C825C8254227E016F10669F03092FF
:1049800059052092580560936705709368058093D8
:10499000690590936A05D3CF80912C0590912D05E0
:1049A000B0E0A0E084159505A605B70508F0C7CFCF
:1049B000E0914405F0914505309709F00995E091A3
:1049C0004605F0914705309729F080914805909170
:1049D0004905099546E050E0509359054093580524
:1049E000AECF80916B0590916C05019690936C050C
:1049F00080936B0583E090E0909359058093580570
:104A00009ECF80916B0590916C0540912A05509145
:104A10002B0570E060E0441655066606770640F404
:104A200020916D0530916E052817390709F087CF61
:104A30008130910531F5E0913205F09133053097E1
:104A400009F00995E0913405F0913505809136051E
:104A500090913705309741F51092590510925805FD
:104A600010926C0510926B050E94BD0B6093670558
:104A7000709368058093690590936A0510925A05B2
:104A80005ECF029799F4E0913805F091390530979F
:104A900009F00995E0913A05F0913B0580913C05BC
:104AA00090913D053097C1F20995D6CFE0913E0532
:104AB000F0913F05309709F00995E0914005F0919C
:104AC00041058091420590914305309769F7C4CF25
:104AD000E016F10639F0A7E0B0E0B0935905A093D5
:104AE00058052DCF00917105109172052091730525
:104AF00030917405AB01BC01401B510B620B730B71
:104B000080916F0590917005B0E0A0E048175907BB
:104B10006A077B0708F413CFE0915005F091510527
:104B2000309709F00995E0915205F09153053097BF
:104B300029F0809154059091550509958091630560
:104B400090916405A0916505B0916605809371050B
:104B500090937205A0937305B0937405F0CEE09125
:104B60004A05F0914B05309709F00995E0914C0505
:104B7000F0914D05309709F46FCF80914E059091DB
:104B80004F0592CF1092CE041092CD040E94B90727
:104B900010927805109277058091D7049091D804EF
:104BA0008130910541F52091D9043091DA04232B0D
:104BB00011F59093DA048093D9040E9448198091EA
:104BC000CD049091CE048230910509F4D4C108F04F
:104BD00068C1009709F490C1019709F4ABC10E9424
:104BE00021198111ECCF1092D8041092D7041092A1
:104BF000DA041092D9048091DB049091DC048130B6
:104C0000910571F52091DD043091DE04232B41F5EF
:104C10009093DE048093DD040E9448198091CD04B6
:104C20009091CE04099781F4E091F704F091F80493
:104C3000EE0FFF1FE559FE4F4081518160E270E0A9
:104C400090E080E00E9416110E9421198111E6CFA8
:104C50001092DC041092DB041092DE041092DD044A
:104C60000E94BD0B6093E1047093E2048093E3041F
:104C70009093E4040091E5041091E6042091E70488
:104C80003091E8046B017C01C01AD10AE20AF30AF0
:104C9000970186010B3F110521053105F0F02091A8
:104CA000CD043091CE042250310924303105A8F4CE
:104CB0006093E5047093E6048093E7049093E8041E
:104CC0008091E9049091EA04019709F4A3C1D0937B
:104CD000EA04C093E9040E94B9070E94BD0B6093E7
:104CE000EB047093EC048093ED049093EE04009138
:104CF000EF041091F0042091F1043091F2046B0163
:104D00007C01C01AD10AE20AF30A97018601C09019
:104D1000F304D090F404E090F504F090F604C0168B
:104D2000D106E206F30628F52091CD043091CE0499
:104D300029303105F1F46093EF047093F00480930F
:104D4000F1049093F2048091DD049091DE04892BAC
:104D500081F48091F7049091F8048730910508F46C
:104D60005EC148E650E060E270E090E080E00E94C2
:104D700016118091FF04909100058130910509F48E
:104D8000F3C1029709F455C10E94BD0B6093080559
:104D90007093090580930A0590930B0500910C050B
:104DA00010910D0520910E0530910F056B017C01CE
:104DB000C01AD10AE20AF30A970186010B3F1105D6
:104DC00021053105B8F060930C0570930D058093B3
:104DD0000E0590930F058091100590911105019794
:104DE00009F4C5C1D0931105C0931005D0931705E0
:104DF000C093160580E0E82E80E0F82EEF2809F435
:104E0000C1CB0E94340C882309F4B9CB0E94000066
:104E1000B6CBD093CE04C093CD04B8CE3092CE049E
:104E20002092CD04B3CE8091CF049091D004909382
:104E30007A058093790533E0C32ED12CD092CE042D
:104E4000C092CD04A3CE8091D1049091D2049093CE
:104E50007C0580937B0524E0E22EF12CF092CE04B9
:104E6000E092CD0493CE8091D3049091D40490939A
:104E70007E0580937D0525E030E03093CE042093BD
:104E8000CD0484CE8091D5049091D6049093800572
:104E900080937F0549E050E05093CE044093CD04C9
:104EA00075CE8430910509F494C008F479C0059753
:104EB00009F095CE6091CF047091D0048091E904FF
:104EC0009091EA04019709F062C090E080E00E94AE
:104ED00050196091D1047091D20481E090E00E9459
:104EE00050196091D3047091D40482E090E00E9444
:104EF00050196FEF7FEF3AC0D093E004C093DF0406
:104F000080919504909196048A55944051F08AE5D9
:104F100094E090939604809395040E948E120E94D0
:104F2000C60748EB53E068E170E084E090E00E943F
:104F3000161155CE6091CF047091D00490E080E0BE
:104F40000E9450196091CF047091D00481E090E0EC
:104F50000E9450196091CF047091D00482E090E0DB
:104F60000E9450196091CF047091D00483E090E0CA
:104F70000E94501934CE8091E9049091EA046FEFB9
:104F80007FEF019721F06091CF047091D00490E001
:104F900080E00E9450196091D1047091D20410C039
:104FA0006091CF047091D0048091E9049091EA045B
:104FB000019769F790E080E00E9450196FEF7FEF52
:104FC00081E090E00E9450196091D3047091D40464
:104FD00018C06091CF047091D0048091E904909141
:104FE000EA040197A1F690E080E00E9450196091D8
:104FF000D1047091D20481E090E00E9450196FEFCB
:105000007FEF82E090E00E9450196091D50470918A
:10501000D604ACCF1092EA041092E9045CCE01965B
:105020009093F8048093F704D093DC04C093DB04DE
:10503000A0CE8091020590910305009709F44FC01E
:10504000029709F0A1CE0E94BD0B6B017C018091FB
:10505000180590911905019709F580910105809334
:10506000DD010E94BD0B6093D9017093DA0180933A
:10507000DB019093DC0110921905109218058092C3
:10508000120590921305A0921405B0921505109286
:1050900011051092100585E5809301058091D901D5
:1050A0009091DA01A091DB01B091DC01C81AD90A14
:1050B000EA0AFB0A8091040590910505A091060576
:1050C000B0910705C816D906EA06FB0608F44CC0DD
:1050D0008091DD01809301050E94520A55CE0E9405
:1050E000BD0B6B017C01809118059091190501970A
:1050F00029F5809101058093E2010E94BD0B609328
:10510000DE017093DF018093E0019093E101109242
:105110001905109218052AEF30E040E050E0209386
:105120001205309313054093140550931505109202
:105130001105109210058FEF809301058091DE011B
:105140009091DF01A091E001B091E101C81AD90A64
:10515000EA0AFB0A8091E20134ECC31639E0D30677
:10516000E104F10408F0B6CF0E94A9090DCE109217
:105170001105109210053ACE052E97FB1EF40094EF
:105180000E94D32857FD07D00E94E62807FC03D0D1
:105190004EF40C94D32850954095309521953F4F6F
:1051A0004F4F5F4F089590958095709561957F4F13
:1051B0008F4F9F4F08950E940829A59F900DB49F7F
:1051C000900DA49F800D911D11240895A1E21A2E27
:1051D000AA1BBB1BFD010DC0AA1FBB1FEE1FFF1F9B
:1051E000A217B307E407F50720F0A21BB30BE40BEB
:1051F000F50B661F771F881F991F1A9469F7609532
:105200007095809590959B01AC01BD01CF010895EB
:10521000A29FB001B39FC001A39F700D811D1124F7
:10522000911DB29F700D811D1124911D0895991B30
:1052300079E004C0991F961708F0961B881F7A958D
:10524000C9F780950895EE0FFF1F0590F491E02DAA
:105250000994DC0101C06D9341505040E0F708957E
:10526000FB01DC0101900D920020E1F70895F89414
:02527000FFCF6E
:10527200C90BC90B00642D641815A015C019FF18BD
:1052820015A115C819FF1815AE19FF1815AF19FF8A
:105292001815AE15D5168015A8163F15D31600158C
:1052A20040158D16141520160015A115C815DA160D
:1052B20002158116CF15D916F115DB1640152E15DC
:1052C200A415A619FF0001140A6464323200127A8E
:1052D200000004289610080000800040004802E800
:1052E2000188012801C800680000000000AD0880A4
:1052F2000808195608790866085708000000006A6D
:105302000CCA0BF70BDE0C280C060C1A0C00000062
:105312000066183E18081907192C0FB70F1C0F0D3D
:025322000A007F
:00000001FF
